{"contracts/ballotManager.sol":{"ballotManager":{"abi":[{"inputs":[{"internalType":"address","name":"_verifierAddress","type":"address"},{"internalType":"uint256","name":"_officialRoot","type":"uint256"},{"internalType":"uint256","name":"_nullifier","type":"uint256"},{"internalType":"uint256[2]","name":"_pk","type":"uint256[2]"},{"internalType":"string[]","name":"_names","type":"string[]"},{"internalType":"string[]","name":"_ipfsCID","type":"string[]"},{"internalType":"uint256","name":"_durationTime","type":"uint256"},{"internalType":"address[5]","name":"_shareholderAddress","type":"address[5]"},{"internalType":"uint256","name":"_subscriptionId","type":"uint256"},{"internalType":"string","name":"_oracleSourceCode","type":"string"}],"stateMutability":"nonpayable","type":"constructor"},{"inputs":[],"name":"EmptyArgs","type":"error"},{"inputs":[],"name":"EmptySource","type":"error"},{"inputs":[],"name":"NoInlineSecrets","type":"error"},{"inputs":[],"name":"OnlyRouterCanFulfill","type":"error"},{"anonymous":false,"inputs":[{"indexed":true,"internalType":"bytes32","name":"id","type":"bytes32"}],"name":"RequestFulfilled","type":"event"},{"anonymous":false,"inputs":[{"indexed":true,"internalType":"bytes32","name":"id","type":"bytes32"}],"name":"RequestSent","type":"event"},{"anonymous":false,"inputs":[{"indexed":true,"internalType":"uint256","name":"nullifierHash","type":"uint256"},{"indexed":false,"internalType":"uint256[2][2]","name":"vote01Count","type":"uint256[2][2]"},{"indexed":false,"internalType":"uint256[2][2]","name":"vote02Count","type":"uint256[2][2]"},{"indexed":false,"internalType":"uint256[2][2]","name":"vote03Count","type":"uint256[2][2]"}],"name":"Vote","type":"event"},{"inputs":[{"internalType":"uint256","name":"x1","type":"uint256"},{"internalType":"uint256","name":"y1","type":"uint256"},{"internalType":"uint256","name":"x2","type":"uint256"},{"internalType":"uint256","name":"y2","type":"uint256"}],"name":"babyAdd","outputs":[{"internalType":"uint256","name":"x3","type":"uint256"},{"internalType":"uint256","name":"y3","type":"uint256"}],"stateMutability":"pure","type":"function"},{"inputs":[{"internalType":"uint256","name":"k","type":"uint256"},{"internalType":"uint256[2]","name":"P","type":"uint256[2]"}],"name":"babyMul","outputs":[{"internalType":"uint256[2]","name":"","type":"uint256[2]"}],"stateMutability":"pure","type":"function"},{"inputs":[{"internalType":"uint256","name":"","type":"uint256"}],"name":"candidates","outputs":[{"internalType":"string","name":"name","type":"string"},{"internalType":"string","name":"ipfsCID","type":"string"}],"stateMutability":"view","type":"function"},{"inputs":[],"name":"getCandidates","outputs":[{"components":[{"internalType":"string","name":"name","type":"string"},{"internalType":"string","name":"ipfsCID","type":"string"},{"internalType":"uint256[2][2]","name":"voteCount","type":"uint256[2][2]"}],"internalType":"struct ballotManager.candidate[]","name":"","type":"tuple[]"}],"stateMutability":"view","type":"function"},{"inputs":[{"internalType":"uint256","name":"_shareholderId","type":"uint256"}],"name":"getShares","outputs":[{"internalType":"uint256[2][3]","name":"","type":"uint256[2][3]"}],"stateMutability":"view","type":"function"},{"inputs":[{"internalType":"bytes32","name":"requestId","type":"bytes32"},{"internalType":"bytes","name":"response","type":"bytes"},{"internalType":"bytes","name":"err","type":"bytes"}],"name":"handleOracleFulfillment","outputs":[],"stateMutability":"nonpayable","type":"function"},{"inputs":[{"internalType":"uint256","name":"","type":"uint256"}],"name":"hasVoted_nullifier","outputs":[{"internalType":"bool","name":"","type":"bool"}],"stateMutability":"view","type":"function"},{"inputs":[],"name":"nullifier","outputs":[{"internalType":"uint256","name":"","type":"uint256"}],"stateMutability":"view","type":"function"},{"inputs":[],"name":"oracleSourceCode","outputs":[{"internalType":"string","name":"","type":"string"}],"stateMutability":"view","type":"function"},{"inputs":[{"internalType":"uint256","name":"","type":"uint256"}],"name":"pk","outputs":[{"internalType":"uint256","name":"","type":"uint256"}],"stateMutability":"view","type":"function"},{"inputs":[{"internalType":"uint256","name":"","type":"uint256"}],"name":"resultVoting","outputs":[{"internalType":"uint256","name":"","type":"uint256"}],"stateMutability":"view","type":"function"},{"inputs":[],"name":"root","outputs":[{"internalType":"uint256","name":"","type":"uint256"}],"stateMutability":"view","type":"function"},{"inputs":[{"internalType":"uint256","name":"","type":"uint256"}],"name":"shareholderSubmitInfo","outputs":[{"internalType":"bool","name":"isSubmitted","type":"bool"}],"stateMutability":"view","type":"function"},{"inputs":[{"internalType":"uint256[2][3]","name":"_S","type":"uint256[2][3]"}],"name":"submitSi","outputs":[],"stateMutability":"nonpayable","type":"function"},{"inputs":[],"name":"subscriptionId","outputs":[{"internalType":"uint256","name":"","type":"uint256"}],"stateMutability":"view","type":"function"},{"inputs":[],"name":"totalSubmit","outputs":[{"internalType":"uint256","name":"","type":"uint256"}],"stateMutability":"view","type":"function"},{"inputs":[],"name":"verifier","outputs":[{"internalType":"contract Groth16Verifier","name":"","type":"address"}],"stateMutability":"view","type":"function"},{"inputs":[{"internalType":"uint256[2]","name":"_proofa","type":"uint256[2]"},{"internalType":"uint256[2][2]","name":"_proofb","type":"uint256[2][2]"},{"internalType":"uint256[2]","name":"_proofc","type":"uint256[2]"},{"internalType":"uint256[17]","name":"_input","type":"uint256[17]"}],"name":"vote","outputs":[],"stateMutability":"nonpayable","type":"function"},{"inputs":[],"name":"votingDeadline","outputs":[{"internalType":"uint256","name":"","type":"uint256"}],"stateMutability":"view","type":"function"},{"inputs":[{"internalType":"address","name":"","type":"address"}],"name":"whiteList","outputs":[{"internalType":"uint256","name":"shareholderId","type":"uint256"},{"internalType":"bool","name":"isActive","type":"bool"}],"stateMutability":"view","type":"function"}],"evm":{"bytecode":{"linkReferences":{},"object":"60a0604052600060085573b83e47c2bc239b3bf370bc41e1459a34b41238d0600c60006101000a81548173ffffffffffffffffffffffffffffffffffffffff021916908373ffffffffffffffffffffffffffffffffffffffff1602179055507f66756e2d657468657265756d2d7365706f6c69612d310000000000000000000060001b600d553480156200009257600080fd5b5060405162005859380380620058598339818101604052810190620000b8919062000ced565b600c60009054906101000a900473ffffffffffffffffffffffffffffffffffffffff168073ffffffffffffffffffffffffffffffffffffffff1660808173ffffffffffffffffffffffffffffffffffffffff168152505050896000806101000a81548173ffffffffffffffffffffffffffffffffffffffff021916908373ffffffffffffffffffffffffffffffffffffffff1602179055508860028190555087600381905550866005906002620001719291906200066b565b50603c8462000181919062000e70565b426200018e919062000ebb565b60078190555060005b86518110156200038257620001ab620006b0565b600081600060028110620001c457620001c362000ef6565b5b6020020151600060028110620001df57620001de62000ef6565b5b60200201818152505060018160006002811062000201576200020062000ef6565b5b60200201516001600281106200021c576200021b62000ef6565b5b6020020181815250506000816001600281106200023e576200023d62000ef6565b5b602002015160006002811062000259576200025862000ef6565b5b6020020181815250506001816001600281106200027b576200027a62000ef6565b5b602002015160016002811062000296576200029562000ef6565b5b602002018181525050600160405180606001604052808a8581518110620002c257620002c162000ef6565b5b60200260200101518152602001898581518110620002e557620002e462000ef6565b5b60200260200101518152602001838152509080600181540180825580915050600190039060005260206000209060060201600090919091909150600082015181600001908162000336919062001166565b5060208201518160010190816200034e919062001166565b5060408201518160020190600262000368929190620006e0565b50505050808062000379906200124d565b91505062000197565b5060005b600581101562000641576040518060400160405280600183620003aa919062000ebb565b815260200160011515815250600e6000868460058110620003d057620003cf62000ef6565b5b602002015173ffffffffffffffffffffffffffffffffffffffff1673ffffffffffffffffffffffffffffffffffffffff1681526020019081526020016000206000820151816000015560208201518160010160006101000a81548160ff0219169083151502179055509050506200044662000737565b6000816000600381106200045f576200045e62000ef6565b5b60200201516000600281106200047a576200047962000ef6565b5b6020020181815250506001816000600381106200049c576200049b62000ef6565b5b6020020151600160028110620004b757620004b662000ef6565b5b602002018181525050600081600160038110620004d957620004d862000ef6565b5b6020020151600060028110620004f457620004f362000ef6565b5b60200201818152505060018160016003811062000516576200051562000ef6565b5b602002015160016002811062000531576200053062000ef6565b5b60200201818152505060008160026003811062000553576200055262000ef6565b5b60200201516000600281106200056e576200056d62000ef6565b5b60200201818152505060018160026003811062000590576200058f62000ef6565b5b6020020151600160028110620005ab57620005aa62000ef6565b5b602002018181525050604051806040016040528082815260200160001515815250600f6000600185620005df919062000ebb565b81526020019081526020016000206000820151816000019060036200060692919062000767565b5060208201518160060160006101000a81548160ff02191690831515021790555090505050808062000638906200124d565b91505062000386565b508160098190555080600a90816200065a919062001166565b50505050505050505050506200129a565b82600281019282156200069d579160200282015b828111156200069c5782518255916020019190600101906200067f565b5b509050620006ac9190620007bf565b5090565b60405180604001604052806002905b620006c9620007de565b815260200190600190039081620006bf5790505090565b8260028002810192821562000724579160200282015b828111156200072357825182906002620007129291906200066b565b5091602001919060020190620006f6565b5b50905062000733919062000800565b5090565b60405180606001604052806003905b62000750620007de565b815260200190600190039081620007465790505090565b8260036002028101928215620007ac579160200282015b82811115620007ab578251829060026200079a9291906200066b565b50916020019190600201906200077e565b5b509050620007bb919062000800565b5090565b5b80821115620007da576000816000905550600101620007c0565b5090565b6040518060400160405280600290602082028036833780820191505090505090565b5b808211156200082457600081816200081a919062000828565b5060020162000801565b5090565b506000815560010160009055565b6000604051905090565b600080fd5b600080fd5b600073ffffffffffffffffffffffffffffffffffffffff82169050919050565b600062000877826200084a565b9050919050565b62000889816200086a565b81146200089557600080fd5b50565b600081519050620008a9816200087e565b92915050565b6000819050919050565b620008c481620008af565b8114620008d057600080fd5b50565b600081519050620008e481620008b9565b92915050565b600080fd5b6000601f19601f8301169050919050565b7f4e487b7100000000000000000000000000000000000000000000000000000000600052604160045260246000fd5b6200093a82620008ef565b810181811067ffffffffffffffff821117156200095c576200095b62000900565b5b80604052505050565b60006200097162000836565b90506200097f82826200092f565b919050565b600067ffffffffffffffff821115620009a257620009a162000900565b5b602082029050919050565b600080fd5b6000620009c9620009c38462000984565b62000965565b90508060208402830185811115620009e657620009e5620009ad565b5b835b8181101562000a135780620009fe8882620008d3565b845260208401935050602081019050620009e8565b5050509392505050565b600082601f83011262000a355762000a34620008ea565b5b600262000a44848285620009b2565b91505092915050565b600067ffffffffffffffff82111562000a6b5762000a6a62000900565b5b602082029050602081019050919050565b600080fd5b600067ffffffffffffffff82111562000a9f5762000a9e62000900565b5b62000aaa82620008ef565b9050602081019050919050565b60005b8381101562000ad757808201518184015260208101905062000aba565b60008484015250505050565b600062000afa62000af48462000a81565b62000965565b90508281526020810184848401111562000b195762000b1862000a7c565b5b62000b2684828562000ab7565b509392505050565b600082601f83011262000b465762000b45620008ea565b5b815162000b5884826020860162000ae3565b91505092915050565b600062000b7862000b728462000a4d565b62000965565b9050808382526020820190506020840283018581111562000b9e5762000b9d620009ad565b5b835b8181101562000bec57805167ffffffffffffffff81111562000bc75762000bc6620008ea565b5b80860162000bd6898262000b2e565b8552602085019450505060208101905062000ba0565b5050509392505050565b600082601f83011262000c0e5762000c0d620008ea565b5b815162000c2084826020860162000b61565b91505092915050565b600067ffffffffffffffff82111562000c475762000c4662000900565b5b602082029050919050565b600062000c6962000c638462000c29565b62000965565b9050806020840283018581111562000c865762000c85620009ad565b5b835b8181101562000cb3578062000c9e888262000898565b84526020840193505060208101905062000c88565b5050509392505050565b600082601f83011262000cd55762000cd4620008ea565b5b600562000ce484828562000c52565b91505092915050565b6000806000806000806000806000806101e08b8d03121562000d145762000d1362000840565b5b600062000d248d828e0162000898565b9a5050602062000d378d828e01620008d3565b995050604062000d4a8d828e01620008d3565b985050606062000d5d8d828e0162000a1d565b97505060a08b015167ffffffffffffffff81111562000d815762000d8062000845565b5b62000d8f8d828e0162000bf6565b96505060c08b015167ffffffffffffffff81111562000db35762000db262000845565b5b62000dc18d828e0162000bf6565b95505060e062000dd48d828e01620008d3565b94505061010062000de88d828e0162000cbd565b9350506101a062000dfc8d828e01620008d3565b9250506101c08b015167ffffffffffffffff81111562000e215762000e2062000845565b5b62000e2f8d828e0162000b2e565b9150509295989b9194979a5092959850565b7f4e487b7100000000000000000000000000000000000000000000000000000000600052601160045260246000fd5b600062000e7d82620008af565b915062000e8a83620008af565b925082820262000e9a81620008af565b9150828204841483151762000eb45762000eb362000e41565b5b5092915050565b600062000ec882620008af565b915062000ed583620008af565b925082820190508082111562000ef05762000eef62000e41565b5b92915050565b7f4e487b7100000000000000000000000000000000000000000000000000000000600052603260045260246000fd5b600081519050919050565b7f4e487b7100000000000000000000000000000000000000000000000000000000600052602260045260246000fd5b6000600282049050600182168062000f7857607f821691505b60208210810362000f8e5762000f8d62000f30565b5b50919050565b60008190508160005260206000209050919050565b60006020601f8301049050919050565b600082821b905092915050565b60006008830262000ff87fffffffffffffffffffffffffffffffffffffffffffffffffffffffffffffffff8262000fb9565b62001004868362000fb9565b95508019841693508086168417925050509392505050565b6000819050919050565b600062001047620010416200103b84620008af565b6200101c565b620008af565b9050919050565b6000819050919050565b620010638362001026565b6200107b62001072826200104e565b84845462000fc6565b825550505050565b600090565b6200109262001083565b6200109f81848462001058565b505050565b5b81811015620010c757620010bb60008262001088565b600181019050620010a5565b5050565b601f8211156200111657620010e08162000f94565b620010eb8462000fa9565b81016020851015620010fb578190505b620011136200110a8562000fa9565b830182620010a4565b50505b505050565b600082821c905092915050565b60006200113b600019846008026200111b565b1980831691505092915050565b600062001156838362001128565b9150826002028217905092915050565b620011718262000f25565b67ffffffffffffffff8111156200118d576200118c62000900565b5b62001199825462000f5f565b620011a6828285620010cb565b600060209050601f831160018114620011de5760008415620011c9578287015190505b620011d5858262001148565b86555062001245565b601f198416620011ee8662000f94565b60005b828110156200121857848901518255600182019150602085019450602081019050620011f1565b8683101562001238578489015162001234601f89168262001128565b8355505b6001600288020188555050505b505050505050565b60006200125a82620008af565b91507fffffffffffffffffffffffffffffffffffffffffffffffffffffffffffffffff82036200128f576200128e62000e41565b5b600182019050919050565b60805161459c620012bd6000396000818161065101526122c9015261459c6000f3fe608060405234801561001057600080fd5b506004361061012c5760003560e01c80633477ee2e116100ad57806384ade8891161007157806384ade8891461035d5780638fe4cb7914610379578063a54a0868146103a9578063e168f6e2146103da578063ebf0c7171461040a5761012c565b80633477ee2e1461027d578063372c12b1146102ae57806343bf6cf0146102df5780634be9c9d8146102fd5780636f7267b71461032d5761012c565b80630e6ce084116100f45780630e6ce084146101d757806317031d6d146101f35780632b7ac3f3146102235780632be6514b146102415780632dd342d31461025f5761012c565b8063036ee8501461013157806305b6dc1e1461014f57806306a49fce1461017f57806309c1ba2e1461019d5780630ca76175146101bb575b600080fd5b610139610428565b6040516101469190612c7b565b60405180910390f35b61016960048036038101906101649190612cd6565b61042e565b6040516101769190612c7b565b60405180910390f35b610187610449565b6040516101949190612ff3565b60405180910390f35b6101a5610649565b6040516101b29190612c7b565b60405180910390f35b6101d560048036038101906101d09190613180565b61064f565b005b6101f160048036038101906101ec9190613372565b610711565b005b61020d60048036038101906102089190612cd6565b610914565b60405161021a91906133ba565b60405180910390f35b61022b61093f565b6040516102389190613454565b60405180910390f35b610249610963565b60405161025691906134b9565b60405180910390f35b6102676109f1565b6040516102749190612c7b565b60405180910390f35b61029760048036038101906102929190612cd6565b6109f7565b6040516102a59291906134db565b60405180910390f35b6102c860048036038101906102c39190613550565b610b3b565b6040516102d692919061357d565b60405180910390f35b6102e7610b6c565b6040516102f49190612c7b565b60405180910390f35b61031760048036038101906103129190612cd6565b610b72565b60405161032491906133ba565b60405180910390f35b61034760048036038101906103429190612cd6565b610b92565b604051610354919061362a565b60405180910390f35b610377600480360381019061037291906137a7565b610c2b565b005b610393600480360381019061038e9190613810565b611387565b6040516103a091906138b2565b60405180910390f35b6103c360048036038101906103be91906138cd565b611527565b6040516103d1929190613934565b60405180910390f35b6103f460048036038101906103ef9190612cd6565b611890565b6040516104019190612c7b565b60405180910390f35b6104126118b4565b60405161041f9190612c7b565b60405180910390f35b60075481565b6005816002811061043e57600080fd5b016000915090505481565b60606001805480602002602001604051908101604052809291908181526020016000905b8282101561064057838290600052602060002090600602016040518060600160405290816000820180546104a09061398c565b80601f01602080910402602001604051908101604052809291908181526020018280546104cc9061398c565b80156105195780601f106104ee57610100808354040283529160200191610519565b820191906000526020600020905b8154815290600101906020018083116104fc57829003601f168201915b505050505081526020016001820180546105329061398c565b80601f016020809104026020016040519081016040528092919081815260200182805461055e9061398c565b80156105ab5780601f10610580576101008083540402835291602001916105ab565b820191906000526020600020905b81548152906001019060200180831161058e57829003601f168201915b5050505050815260200160028201600280602002604051908101604052809291906000905b8282101561062957838260020201600280602002604051908101604052809291908260028015610615576020028201915b815481526020019060010190808311610601575b5050505050815260200190600101906105d0565b50505050815250508152602001906001019061046d565b50505050905090565b60095481565b7f000000000000000000000000000000000000000000000000000000000000000073ffffffffffffffffffffffffffffffffffffffff163373ffffffffffffffffffffffffffffffffffffffff16146106d4576040517fc6829f8300000000000000000000000000000000000000000000000000000000815260040160405180910390fd5b6106df8383836118ba565b827f85e1543bf2f84fe80c6badbce3648c8539ad1df4d2b3d822938ca0538be727e660405160405180910390a2505050565b600e60003373ffffffffffffffffffffffffffffffffffffffff1673ffffffffffffffffffffffffffffffffffffffff16815260200190815260200160002060010160009054906101000a900460ff166107a0576040517f08c379a000000000000000000000000000000000000000000000000000000000815260040161079790613a09565b60405180910390fd5b600f6000600e60003373ffffffffffffffffffffffffffffffffffffffff1673ffffffffffffffffffffffffffffffffffffffff16815260200190815260200160002060000154815260200190815260200160002060060160009054906101000a900460ff166108255760016008600082825461081d9190613a58565b925050819055505b80600f6000600e60003373ffffffffffffffffffffffffffffffffffffffff1673ffffffffffffffffffffffffffffffffffffffff16815260200190815260200160002060000154815260200190815260200160002060000190600361088c929190612a3a565b506001600f6000600e60003373ffffffffffffffffffffffffffffffffffffffff1673ffffffffffffffffffffffffffffffffffffffff16815260200190815260200160002060000154815260200190815260200160002060060160006101000a81548160ff021916908315150217905550600560085403610911576109106118e9565b5b50565b600f6020528060005260406000206000915090508060060160009054906101000a900460ff16905081565b60008054906101000a900473ffffffffffffffffffffffffffffffffffffffff1681565b600a80546109709061398c565b80601f016020809104026020016040519081016040528092919081815260200182805461099c9061398c565b80156109e95780601f106109be576101008083540402835291602001916109e9565b820191906000526020600020905b8154815290600101906020018083116109cc57829003601f168201915b505050505081565b60085481565b60018181548110610a0757600080fd5b9060005260206000209060060201600091509050806000018054610a2a9061398c565b80601f0160208091040260200160405190810160405280929190818152602001828054610a569061398c565b8015610aa35780601f10610a7857610100808354040283529160200191610aa3565b820191906000526020600020905b815481529060010190602001808311610a8657829003601f168201915b505050505090806001018054610ab89061398c565b80601f0160208091040260200160405190810160405280929190818152602001828054610ae49061398c565b8015610b315780601f10610b0657610100808354040283529160200191610b31565b820191906000526020600020905b815481529060010190602001808311610b1457829003601f168201915b5050505050905082565b600e6020528060005260406000206000915090508060000154908060010160009054906101000a900460ff16905082565b60035481565b60046020528060005260406000206000915054906101000a900460ff1681565b610b9a612a8b565b600f6000838152602001908152602001600020600001600380602002604051908101604052809291906000905b82821015610c2057838260020201600280602002604051908101604052809291908260028015610c0c576020028201915b815481526020019060010190808311610bf8575b505050505081526020019060010190610bc7565b505050509050919050565b60025481600e60118110610c4257610c41613a8c565b5b602002015114610c87576040517f08c379a0000000000000000000000000000000000000000000000000000000008152600401610c7e90613b07565b60405180910390fd5b60035481600d60118110610c9e57610c9d613a8c565b5b602002015114610ce3576040517f08c379a0000000000000000000000000000000000000000000000000000000008152600401610cda90613b73565b60405180910390fd5b6005600060028110610cf857610cf7613a8c565b5b015481600f60118110610d0e57610d0d613a8c565b5b6020020151148015610d4d57506005600160028110610d3057610d2f613a8c565b5b015481601060118110610d4657610d45613a8c565b5b6020020151145b610d8c576040517f08c379a0000000000000000000000000000000000000000000000000000000008152600401610d8390613bdf565b60405180910390fd5b6004600082600060118110610da457610da3613a8c565b5b6020020151815260200190815260200160002060009054906101000a900460ff1615610e05576040517f08c379a0000000000000000000000000000000000000000000000000000000008152600401610dfc90613c4b565b60405180910390fd5b60008054906101000a900473ffffffffffffffffffffffffffffffffffffffff1673ffffffffffffffffffffffffffffffffffffffff1663c1940a36858585856040518563ffffffff1660e01b8152600401610e649493929190613d51565b602060405180830381865afa158015610e81573d6000803e3d6000fd5b505050506040513d601f19601f82011682018060405250810190610ea59190613dc4565b610ee4576040517f08c379a0000000000000000000000000000000000000000000000000000000008152600401610edb90613e3d565b60405180910390fd5b60016004600083600060118110610efe57610efd613a8c565b5b6020020151815260200190815260200160002060006101000a81548160ff02191690831515021790555060005b6001805490508110156112be57611041826001600284610f4b9190613e5d565b610f559190613a58565b60118110610f6657610f65613a8c565b5b60200201518360028085610f7a9190613e5d565b610f849190613a58565b60118110610f9557610f94613a8c565b5b602002015160018481548110610fae57610fad613a8c565b5b9060005260206000209060060201600201600060028110610fd257610fd1613a8c565b5b60020201600060028110610fe957610fe8613a8c565b5b015460018581548110610fff57610ffe613a8c565b5b906000526020600020906006020160020160006002811061102357611022613a8c565b5b6002020160016002811061103a57611039613a8c565b5b0154611527565b6001838154811061105557611054613a8c565b5b906000526020600020906006020160020160006002811061107957611078613a8c565b5b600202016000600281106110905761108f613a8c565b5b016000600185815481106110a7576110a6613a8c565b5b90600052602060002090600602016002016000600281106110cb576110ca613a8c565b5b600202016001600281106110e2576110e1613a8c565b5b0160008491905055839190505550506111fb8260076002846111049190613e5d565b61110e9190613a58565b6011811061111f5761111e613a8c565b5b60200201518360086002856111349190613e5d565b61113e9190613a58565b6011811061114f5761114e613a8c565b5b60200201516001848154811061116857611167613a8c565b5b906000526020600020906006020160020160016002811061118c5761118b613a8c565b5b600202016000600281106111a3576111a2613a8c565b5b0154600185815481106111b9576111b8613a8c565b5b90600052602060002090600602016002016001600281106111dd576111dc613a8c565b5b600202016001600281106111f4576111f3613a8c565b5b0154611527565b6001838154811061120f5761120e613a8c565b5b906000526020600020906006020160020160016002811061123357611232613a8c565b5b6002020160006002811061124a57611249613a8c565b5b0160006001858154811061126157611260613a8c565b5b906000526020600020906006020160020160016002811061128557611284613a8c565b5b6002020160016002811061129c5761129b613a8c565b5b01600084919050558391905055505080806112b690613e9f565b915050610f2b565b50806000601181106112d3576112d2613a8c565b5b60200201517f501740464b64c9c9e79c952b9302af63c9497d782a97c96435879dec06500e26600160008154811061130e5761130d613a8c565b5b90600052602060002090600602016002016001808154811061133357611332613a8c565b5b9060005260206000209060060201600201600160028154811061135957611358613a8c565b5b90600052602060002090600602016002016040516113799392919061403b565b60405180910390a250505050565b61138f612ab8565b60006040518060400160405280600081526020016001815250905060008390505b600085111561151c5760018086160361146a5761142f826000600281106113da576113d9613a8c565b5b6020020151836001600281106113f3576113f2613a8c565b5b60200201518360006002811061140c5761140b613a8c565b5b60200201518460016002811061142557611424613a8c565b5b6020020151611527565b8360006002811061144357611442613a8c565b5b602002018460016002811061145b5761145a613a8c565b5b60200201828152508281525050505b6114d68160006002811061148157611480613a8c565b5b60200201518260016002811061149a57611499613a8c565b5b6020020151836000600281106114b3576114b2613a8c565b5b6020020151846001600281106114cc576114cb613a8c565b5b6020020151611527565b826000600281106114ea576114e9613a8c565b5b602002018360016002811061150257611501613a8c565b5b6020020182815250828152505050600185901c94506113b0565b819250505092915050565b60008060007f30644e72e131a029b85045b68181585d2833e84879b9709143e1f593f00000018061155b5761155a614074565b5b858809905060007f30644e72e131a029b85045b68181585d2833e84879b9709143e1f593f00000018061159157611590614074565b5b858809905060007f30644e72e131a029b85045b68181585d2833e84879b9709143e1f593f0000001806115c7576115c6614074565b5b7f30644e72e131a029b85045b68181585d2833e84879b9709143e1f593f0000001806115f6576115f5614074565b5b838509620292f809905060007f30644e72e131a029b85045b68181585d2833e84879b9709143e1f593f00000018061163157611630614074565b5b7f30644e72e131a029b85045b68181585d2833e84879b9709143e1f593f0000001806116605761165f614074565b5b898b097f30644e72e131a029b85045b68181585d2833e84879b9709143e1f593f00000018061169257611691614074565b5b898d0908905060007f30644e72e131a029b85045b68181585d2833e84879b9709143e1f593f0000001806116c9576116c8614074565b5b7f30644e72e131a029b85045b68181585d2833e84879b9709143e1f593f0000001806116f8576116f7614074565b5b86620292fc097f30644e72e131a029b85045b68181585d2833e84879b9709143e1f593f000000161172991906140a3565b85089050600061178b7f30644e72e131a029b85045b68181585d2833e84879b9709143e1f593f00000018061176157611760614074565b5b856001087f30644e72e131a029b85045b68181585d2833e84879b9709143e1f593f0000001611cce565b905060006118167f30644e72e131a029b85045b68181585d2833e84879b9709143e1f593f0000001806117c1576117c0614074565b5b867f30644e72e131a029b85045b68181585d2833e84879b9709143e1f593f00000016117ed91906140a3565b6001087f30644e72e131a029b85045b68181585d2833e84879b9709143e1f593f0000001611cce565b90507f30644e72e131a029b85045b68181585d2833e84879b9709143e1f593f00000018061184757611846614074565b5b82850998507f30644e72e131a029b85045b68181585d2833e84879b9709143e1f593f00000018061187b5761187a614074565b5b81840997505050505050505094509492505050565b600b81815481106118a057600080fd5b906000526020600020016000915090505481565b60025481565b818060200190518101906118ce91906141af565b600b90805190602001906118e3929190612ada565b50505050565b6118f1612b27565b61198e600a80546119019061398c565b80601f016020809104026020016040519081016040528092919081815260200182805461192d9061398c565b801561197a5780601f1061194f5761010080835404028352916020019161197a565b820191906000526020600020905b81548152906001019060200180831161195d57829003601f168201915b505050505082611cef90919063ffffffff16565b6000602467ffffffffffffffff8111156119ab576119aa613055565b5b6040519080825280602002602001820160405280156119de57816020015b60608152602001906001900390816119c95790505b50905060005b600180549050811015611b1657611a4a60018281548110611a0857611a07613a8c565b5b9060005260206000209060060201600201600160028110611a2c57611a2b613a8c565b5b60020201600060028110611a4357611a42613a8c565b5b0154611d00565b82600283611a589190613e5d565b81518110611a6957611a68613a8c565b5b6020026020010181905250611acd60018281548110611a8b57611a8a613a8c565b5b9060005260206000209060060201600201600160028110611aaf57611aae613a8c565b5b60020201600160028110611ac657611ac5613a8c565b5b0154611d00565b826001600284611add9190613e5d565b611ae79190613a58565b81518110611af857611af7613a8c565b5b60200260200101819052508080611b0e90613e9f565b9150506119e4565b5060005b6005811015611c9a5760005b6003811015611c8657611b84600f6000600185611b439190613a58565b81526020019081526020016000206000018260038110611b6657611b65613a8c565b5b60020201600060028110611b7d57611b7c613a8c565b5b0154611d00565b836006836002611b949190613e5d565b856006611ba19190613e5d565b611bab9190613a58565b611bb59190613a58565b81518110611bc657611bc5613a8c565b5b6020026020010181905250611c26600f6000600185611be59190613a58565b81526020019081526020016000206000018260038110611c0857611c07613a8c565b5b60020201600160028110611c1f57611c1e613a8c565b5b0154611d00565b836007836002611c369190613e5d565b856006611c439190613e5d565b611c4d9190613a58565b611c579190613a58565b81518110611c6857611c67613a8c565b5b60200260200101819052508080611c7e90613e9f565b915050611b26565b508080611c9290613e9f565b915050611b1a565b50611cae8183611e6090919063ffffffff16565b611cc9611cba83611ea8565b600954620493e0600d546122c4565b505050565b6000611ce783600284611ce191906140a3565b846123a7565b905092915050565b611cfc8260008084612415565b5050565b606060008203611d47576040518060400160405280600181526020017f30000000000000000000000000000000000000000000000000000000000000008152509050611e5b565b600082905060005b60008214611d79578080611d6290613e9f565b915050600a82611d7291906141f8565b9150611d4f565b60008167ffffffffffffffff811115611d9557611d94613055565b5b6040519080825280601f01601f191660200182016040528015611dc75781602001600182028036833780820191505090505b5090505b60008514611e5457600182611de091906140a3565b9150600a85611def9190614229565b6030611dfb9190613a58565b60f81b818381518110611e1157611e10613a8c565b5b60200101907effffffffffffffffffffffffffffffffffffffffffffffffffffffffffffff1916908160001a905350600a85611e4d91906141f8565b9450611dcb565b8093505050505b919050565b6000815103611e9b576040517ffe936cb700000000000000000000000000000000000000000000000000000000815260040160405180910390fd5b808260a001819052505050565b60606000611eb76101006124bf565b9050611f016040518060400160405280600c81526020017f636f64654c6f636174696f6e0000000000000000000000000000000000000000815250826124e690919063ffffffff16565b611f2a83600001516002811115611f1b57611f1a61425a565b5b8261250f90919063ffffffff16565b611f726040518060400160405280600881526020017f6c616e6775616765000000000000000000000000000000000000000000000000815250826124e690919063ffffffff16565b611f9b83604001516000811115611f8c57611f8b61425a565b5b8261250f90919063ffffffff16565b611fe36040518060400160405280600681526020017f736f757263650000000000000000000000000000000000000000000000000000815250826124e690919063ffffffff16565b611ffa8360600151826124e690919063ffffffff16565b60008360a001515111156120b6576120506040518060400160405280600481526020017f6172677300000000000000000000000000000000000000000000000000000000815250826124e690919063ffffffff16565b6120598161255f565b60005b8360a00151518110156120ab5761209a8460a00151828151811061208357612082613a8c565b5b6020026020010151836124e690919063ffffffff16565b806120a490613e9f565b905061205c565b506120b581612587565b5b600083608001515111156121f757600060028111156120d8576120d761425a565b5b836020015160028111156120ef576120ee61425a565b5b03612126576040517fa80d31f700000000000000000000000000000000000000000000000000000000815260040160405180910390fd5b61216e6040518060400160405280600f81526020017f736563726574734c6f636174696f6e0000000000000000000000000000000000815250826124e690919063ffffffff16565b612197836020015160028111156121885761218761425a565b5b8261250f90919063ffffffff16565b6121df6040518060400160405280600781526020017f7365637265747300000000000000000000000000000000000000000000000000815250826124e690919063ffffffff16565b6121f68360800151826125af90919063ffffffff16565b5b60008360c001515111156122b35761224d6040518060400160405280600981526020017f6279746573417267730000000000000000000000000000000000000000000000815250826124e690919063ffffffff16565b6122568161255f565b60005b8360c00151518110156122a8576122978460c0015182815181106122805761227f613a8c565b5b6020026020010151836125af90919063ffffffff16565b806122a190613e9f565b9050612259565b506122b281612587565b5b806000015160000151915050919050565b6000807f000000000000000000000000000000000000000000000000000000000000000073ffffffffffffffffffffffffffffffffffffffff1663461d27628688600188886040518663ffffffff1660e01b815260040161232995949392919061434c565b6020604051808303816000875af1158015612348573d6000803e3d6000fd5b505050506040513d601f19601f8201168201806040525081019061236c91906143bb565b9050807f1131472297a800fee664d1d89cfa8f7676ff07189ecc53f80bbb5f4969099db860405160405180910390a280915050949350505050565b60006001905081846123b99190614229565b93505b600083111561240e5760016002846123d49190614229565b036123ee5781806123e8576123e7614074565b5b84820990505b81806123fd576123fc614074565b5b8485099350600183901c92506123bc565b9392505050565b6000815103612450576040517f22ce3edd00000000000000000000000000000000000000000000000000000000815260040160405180910390fd5b82846000019060028111156124685761246761425a565b5b9081600281111561247c5761247b61425a565b5b8152505081846040019060008111156124985761249761425a565b5b908160008111156124ac576124ab61425a565b5b8152505080846060018190525050505050565b6124c7612b99565b6124d58160000151836125d8565b506000816020018181525050919050565b6124f38260038351612651565b61250a8183600001516127fa90919063ffffffff16565b505050565b61253160026005600660ff16901b17836000015161281690919063ffffffff16565b5061255b82826040516020016125479190612c7b565b6040516020818303038152906040526125af565b5050565b61256a816004612880565b60018160200181815161257d9190613a58565b9150818152505050565b612592816007612880565b6001816020018181516125a591906140a3565b9150818152505050565b6125bc8260028351612651565b6125d38183600001516127fa90919063ffffffff16565b505050565b6125e0612bb9565b60006020836125ef9190614229565b1461261b576020826126019190614229565b602061260d91906140a3565b826126189190613a58565b91505b81836020018181525050604051808452600081528281016020018181101561264257600080fd5b80604052505082905092915050565b60178167ffffffffffffffff161161268c576126868160058460ff16901b60ff1617846000015161281690919063ffffffff16565b506127f5565b60ff8167ffffffffffffffff16116126ea576126bf601860058460ff16901b17846000015161281690919063ffffffff16565b506126e48167ffffffffffffffff16600185600001516128a69092919063ffffffff16565b506127f4565b61ffff8167ffffffffffffffff16116127495761271e601960058460ff16901b17846000015161281690919063ffffffff16565b506127438167ffffffffffffffff16600285600001516128a69092919063ffffffff16565b506127f3565b63ffffffff8167ffffffffffffffff16116127aa5761277f601a60058460ff16901b17846000015161281690919063ffffffff16565b506127a48167ffffffffffffffff16600485600001516128a69092919063ffffffff16565b506127f2565b6127cb601b60058460ff16901b17846000015161281690919063ffffffff16565b506127f08167ffffffffffffffff16600885600001516128a69092919063ffffffff16565b505b5b5b5b505050565b612802612bb9565b61280e83838451612933565b905092915050565b61281e612bb9565b6000836000015151905060006001826128379190613a58565b90508460200151821061285b5761285a856002836128559190613e5d565b612a16565b5b84516020838201018581538151831115612873578282525b5050849250505092915050565b6128a1601f60058360ff16901b17836000015161281690919063ffffffff16565b505050565b6128ae612bb9565b60008460000151519050600081846128c69190613a58565b905085602001518111156128eb576128ea866002836128e59190613e5d565b612a16565b5b60006001856101006128fd919061451b565b61290791906140a3565b905086518281018783198251161781528151841115612924578382525b50508693505050509392505050565b61293b612bb9565b825182111561294957600080fd5b60008460000151519050600083826129619190613a58565b9050856020015181111561298657612985866002836129809190613e5d565b612a16565b5b600080875180518560208301019350808511156129a1578482525b60208901925050505b602086106129e857805182526020826129c39190613a58565b91506020816129d29190613a58565b90506020866129e191906140a3565b95506129aa565b60006001876020036101000a0390508019825116818451168181178552505050879450505050509392505050565b600082600001519050612a2983836125d8565b50612a3483826127fa565b50505050565b8260036002028101928215612a7a579160200282015b82811115612a7957825182906002612a69929190612bd3565b5091602001919060020190612a50565b5b509050612a879190612c13565b5090565b60405180606001604052806003905b612aa2612ab8565b815260200190600190039081612a9a5790505090565b6040518060400160405280600290602082028036833780820191505090505090565b828054828255906000526020600020908101928215612b16579160200282015b82811115612b15578251825591602001919060010190612afa565b5b509050612b239190612c37565b5090565b6040518060e0016040528060006002811115612b4657612b4561425a565b5b815260200160006002811115612b5f57612b5e61425a565b5b8152602001600080811115612b7757612b7661425a565b5b8152602001606081526020016060815260200160608152602001606081525090565b6040518060400160405280612bac612bb9565b8152602001600081525090565b604051806040016040528060608152602001600081525090565b8260028101928215612c02579160200282015b82811115612c01578251825591602001919060010190612be6565b5b509050612c0f9190612c37565b5090565b5b80821115612c335760008181612c2a9190612c54565b50600201612c14565b5090565b5b80821115612c50576000816000905550600101612c38565b5090565b506000815560010160009055565b6000819050919050565b612c7581612c62565b82525050565b6000602082019050612c906000830184612c6c565b92915050565b6000604051905090565b600080fd5b600080fd5b612cb381612c62565b8114612cbe57600080fd5b50565b600081359050612cd081612caa565b92915050565b600060208284031215612cec57612ceb612ca0565b5b6000612cfa84828501612cc1565b91505092915050565b600081519050919050565b600082825260208201905092915050565b6000819050602082019050919050565b600081519050919050565b600082825260208201905092915050565b60005b83811015612d69578082015181840152602081019050612d4e565b60008484015250505050565b6000601f19601f8301169050919050565b6000612d9182612d2f565b612d9b8185612d3a565b9350612dab818560208601612d4b565b612db481612d75565b840191505092915050565b600060029050919050565b600081905092915050565b6000819050919050565b600060029050919050565b600081905092915050565b6000819050919050565b612e0881612c62565b82525050565b6000612e1a8383612dff565b60208301905092915050565b6000602082019050919050565b612e3c81612ddf565b612e468184612dea565b9250612e5182612df5565b8060005b83811015612e82578151612e698782612e0e565b9650612e7483612e26565b925050600181019050612e55565b505050505050565b6000612e968383612e33565b60408301905092915050565b6000602082019050919050565b612eb881612dbf565b612ec28184612dca565b9250612ecd82612dd5565b8060005b83811015612efe578151612ee58782612e8a565b9650612ef083612ea2565b925050600181019050612ed1565b505050505050565b600060c0830160008301518482036000860152612f238282612d86565b91505060208301518482036020860152612f3d8282612d86565b9150506040830151612f526040860182612eaf565b508091505092915050565b6000612f698383612f06565b905092915050565b6000602082019050919050565b6000612f8982612d03565b612f938185612d0e565b935083602082028501612fa585612d1f565b8060005b85811015612fe15784840389528151612fc28582612f5d565b9450612fcd83612f71565b925060208a01995050600181019050612fa9565b50829750879550505050505092915050565b6000602082019050818103600083015261300d8184612f7e565b905092915050565b6000819050919050565b61302881613015565b811461303357600080fd5b50565b6000813590506130458161301f565b92915050565b600080fd5b600080fd5b7f4e487b7100000000000000000000000000000000000000000000000000000000600052604160045260246000fd5b61308d82612d75565b810181811067ffffffffffffffff821117156130ac576130ab613055565b5b80604052505050565b60006130bf612c96565b90506130cb8282613084565b919050565b600067ffffffffffffffff8211156130eb576130ea613055565b5b6130f482612d75565b9050602081019050919050565b82818337600083830152505050565b600061312361311e846130d0565b6130b5565b90508281526020810184848401111561313f5761313e613050565b5b61314a848285613101565b509392505050565b600082601f8301126131675761316661304b565b5b8135613177848260208601613110565b91505092915050565b60008060006060848603121561319957613198612ca0565b5b60006131a786828701613036565b935050602084013567ffffffffffffffff8111156131c8576131c7612ca5565b5b6131d486828701613152565b925050604084013567ffffffffffffffff8111156131f5576131f4612ca5565b5b61320186828701613152565b9150509250925092565b600067ffffffffffffffff82111561322657613225613055565b5b602082029050919050565b600080fd5b600067ffffffffffffffff82111561325157613250613055565b5b602082029050919050565b600061326f61326a84613236565b6130b5565b9050806020840283018581111561328957613288613231565b5b835b818110156132b2578061329e8882612cc1565b84526020840193505060208101905061328b565b5050509392505050565b600082601f8301126132d1576132d061304b565b5b60026132de84828561325c565b91505092915050565b60006132fa6132f58461320b565b6130b5565b9050806040840283018581111561331457613313613231565b5b835b8181101561333d578061332988826132bc565b845260208401935050604081019050613316565b5050509392505050565b600082601f83011261335c5761335b61304b565b5b60036133698482856132e7565b91505092915050565b600060c0828403121561338857613387612ca0565b5b600061339684828501613347565b91505092915050565b60008115159050919050565b6133b48161339f565b82525050565b60006020820190506133cf60008301846133ab565b92915050565b600073ffffffffffffffffffffffffffffffffffffffff82169050919050565b6000819050919050565b600061341a613415613410846133d5565b6133f5565b6133d5565b9050919050565b600061342c826133ff565b9050919050565b600061343e82613421565b9050919050565b61344e81613433565b82525050565b60006020820190506134696000830184613445565b92915050565b600082825260208201905092915050565b600061348b82612d2f565b613495818561346f565b93506134a5818560208601612d4b565b6134ae81612d75565b840191505092915050565b600060208201905081810360008301526134d38184613480565b905092915050565b600060408201905081810360008301526134f58185613480565b905081810360208301526135098184613480565b90509392505050565b600061351d826133d5565b9050919050565b61352d81613512565b811461353857600080fd5b50565b60008135905061354a81613524565b92915050565b60006020828403121561356657613565612ca0565b5b60006135748482850161353b565b91505092915050565b60006040820190506135926000830185612c6c565b61359f60208301846133ab565b9392505050565b600060039050919050565b600081905092915050565b6000819050919050565b6000602082019050919050565b6135dc816135a6565b6135e681846135b1565b92506135f1826135bc565b8060005b838110156136225781516136098782612e8a565b9650613614836135c6565b9250506001810190506135f5565b505050505050565b600060c08201905061363f60008301846135d3565b92915050565b600067ffffffffffffffff8211156136605761365f613055565b5b602082029050919050565b600061367e61367984613645565b6130b5565b9050806040840283018581111561369857613697613231565b5b835b818110156136c157806136ad88826132bc565b84526020840193505060408101905061369a565b5050509392505050565b600082601f8301126136e0576136df61304b565b5b60026136ed84828561366b565b91505092915050565b600067ffffffffffffffff82111561371157613710613055565b5b602082029050919050565b600061372f61372a846136f6565b6130b5565b9050806020840283018581111561374957613748613231565b5b835b81811015613772578061375e8882612cc1565b84526020840193505060208101905061374b565b5050509392505050565b600082601f8301126137915761379061304b565b5b601161379e84828561371c565b91505092915050565b60008060008061032085870312156137c2576137c1612ca0565b5b60006137d0878288016132bc565b94505060406137e1878288016136cb565b93505060c06137f2878288016132bc565b9250506101006138048782880161377c565b91505092959194509250565b6000806060838503121561382757613826612ca0565b5b600061383585828601612cc1565b9250506020613846858286016132bc565b9150509250929050565b600081905092915050565b61386481612ddf565b61386e8184613850565b925061387982612df5565b8060005b838110156138aa5781516138918782612e0e565b965061389c83612e26565b92505060018101905061387d565b505050505050565b60006040820190506138c7600083018461385b565b92915050565b600080600080608085870312156138e7576138e6612ca0565b5b60006138f587828801612cc1565b945050602061390687828801612cc1565b935050604061391787828801612cc1565b925050606061392887828801612cc1565b91505092959194509250565b60006040820190506139496000830185612c6c565b6139566020830184612c6c565b9392505050565b7f4e487b7100000000000000000000000000000000000000000000000000000000600052602260045260246000fd5b600060028204905060018216806139a457607f821691505b6020821081036139b7576139b661395d565b5b50919050565b7f596f7520617265206e6f7420746865207368617265686f6c6465722e00000000600082015250565b60006139f3601c8361346f565b91506139fe826139bd565b602082019050919050565b60006020820190508181036000830152613a22816139e6565b9050919050565b7f4e487b7100000000000000000000000000000000000000000000000000000000600052601160045260246000fd5b6000613a6382612c62565b9150613a6e83612c62565b9250828201905080821115613a8657613a85613a29565b5b92915050565b7f4e487b7100000000000000000000000000000000000000000000000000000000600052603260045260246000fd5b7f496e76616c696420726f6f742121210000000000000000000000000000000000600082015250565b6000613af1600f8361346f565b9150613afc82613abb565b602082019050919050565b60006020820190508181036000830152613b2081613ae4565b9050919050565b7f496e76616c6964206e756c6c6966696572212121000000000000000000000000600082015250565b6000613b5d60148361346f565b9150613b6882613b27565b602082019050919050565b60006020820190508181036000830152613b8c81613b50565b9050919050565b7f496e76616c6964207075626c6963206b65792121210000000000000000000000600082015250565b6000613bc960158361346f565b9150613bd482613b93565b602082019050919050565b60006020820190508181036000830152613bf881613bbc565b9050919050565b7f596f75206861766520766f74656420616c726561647921212100000000000000600082015250565b6000613c3560198361346f565b9150613c4082613bff565b602082019050919050565b60006020820190508181036000830152613c6481613c28565b9050919050565b600081905092915050565b613c7f81612dbf565b613c898184613c6b565b9250613c9482612dd5565b8060005b83811015613cc5578151613cac8782612e8a565b9650613cb783612ea2565b925050600181019050613c98565b505050505050565b600060119050919050565b600081905092915050565b6000819050919050565b6000602082019050919050565b613d0381613ccd565b613d0d8184613cd8565b9250613d1882613ce3565b8060005b83811015613d49578151613d308782612e0e565b9650613d3b83613ced565b925050600181019050613d1c565b505050505050565b600061032082019050613d67600083018761385b565b613d746040830186613c76565b613d8160c083018561385b565b613d8f610100830184613cfa565b95945050505050565b613da18161339f565b8114613dac57600080fd5b50565b600081519050613dbe81613d98565b92915050565b600060208284031215613dda57613dd9612ca0565b5b6000613de884828501613daf565b91505092915050565b7f496e76616c69642070726f6f6621212100000000000000000000000000000000600082015250565b6000613e2760108361346f565b9150613e3282613df1565b602082019050919050565b60006020820190508181036000830152613e5681613e1a565b9050919050565b6000613e6882612c62565b9150613e7383612c62565b9250828202613e8181612c62565b91508282048414831517613e9857613e97613a29565b5b5092915050565b6000613eaa82612c62565b91507fffffffffffffffffffffffffffffffffffffffffffffffffffffffffffffffff8203613edc57613edb613a29565b5b600182019050919050565b600060029050919050565b6000819050919050565b600060029050919050565b6000819050919050565b60008160001c9050919050565b6000819050919050565b6000613f3b613f3683613f11565b613f1e565b9050919050565b6000613f4e8254613f28565b9050919050565b6000600182019050919050565b613f6b81613efc565b613f758184612dea565b9250613f8082613f07565b8060005b83811015613fb857613f9582613f42565b613f9f8782612e0e565b9650613faa83613f55565b925050600181019050613f84565b505050505050565b6000613fcc8383613f62565b60408301905092915050565b6000600282019050919050565b613fee81613ee7565b613ff88184613c6b565b925061400382613ef2565b8060005b83811015614033578161401a8782613fc0565b965061402583613fd8565b925050600181019050614007565b505050505050565b6000610180820190506140516000830186613fe5565b61405e6080830185613fe5565b61406c610100830184613fe5565b949350505050565b7f4e487b7100000000000000000000000000000000000000000000000000000000600052601260045260246000fd5b60006140ae82612c62565b91506140b983612c62565b92508282039050818111156140d1576140d0613a29565b5b92915050565b600067ffffffffffffffff8211156140f2576140f1613055565b5b602082029050602081019050919050565b60008151905061411281612caa565b92915050565b600061412b614126846140d7565b6130b5565b9050808382526020820190506020840283018581111561414e5761414d613231565b5b835b8181101561417757806141638882614103565b845260208401935050602081019050614150565b5050509392505050565b600082601f8301126141965761419561304b565b5b81516141a6848260208601614118565b91505092915050565b6000602082840312156141c5576141c4612ca0565b5b600082015167ffffffffffffffff8111156141e3576141e2612ca5565b5b6141ef84828501614181565b91505092915050565b600061420382612c62565b915061420e83612c62565b92508261421e5761421d614074565b5b828204905092915050565b600061423482612c62565b915061423f83612c62565b92508261424f5761424e614074565b5b828206905092915050565b7f4e487b7100000000000000000000000000000000000000000000000000000000600052602160045260246000fd5b600067ffffffffffffffff82169050919050565b6142a681614289565b82525050565b600081519050919050565b600082825260208201905092915050565b60006142d3826142ac565b6142dd81856142b7565b93506142ed818560208601612d4b565b6142f681612d75565b840191505092915050565b600061ffff82169050919050565b61431881614301565b82525050565b600063ffffffff82169050919050565b6143378161431e565b82525050565b61434681613015565b82525050565b600060a082019050614361600083018861429d565b818103602083015261437381876142c8565b9050614382604083018661430f565b61438f606083018561432e565b61439c608083018461433d565b9695505050505050565b6000815190506143b58161301f565b92915050565b6000602082840312156143d1576143d0612ca0565b5b60006143df848285016143a6565b91505092915050565b60008160011c9050919050565b6000808291508390505b600185111561443f5780860481111561441b5761441a613a29565b5b600185161561442a5780820291505b8081029050614438856143e8565b94506143ff565b94509492505050565b6000826144585760019050614514565b816144665760009050614514565b816001811461447c5760028114614486576144b5565b6001915050614514565b60ff84111561449857614497613a29565b5b8360020a9150848211156144af576144ae613a29565b5b50614514565b5060208310610133831016604e8410600b84101617156144ea5782820a9050838111156144e5576144e4613a29565b5b614514565b6144f784848460016143f5565b9250905081840481111561450e5761450d613a29565b5b81810290505b9392505050565b600061452682612c62565b915061453183612c62565b925061455e7fffffffffffffffffffffffffffffffffffffffffffffffffffffffffffffffff8484614448565b90509291505056fea2646970667358221220b9fcf0d0d95d4a6d92c163ab4d755c2a2c151f722f258b6053a2afaf7c90461c64736f6c63430008130033","opcodes":"PUSH1 0xA0 PUSH1 0x40 MSTORE PUSH1 0x0 PUSH1 0x8 SSTORE PUSH20 0xB83E47C2BC239B3BF370BC41E1459A34B41238D0 PUSH1 0xC PUSH1 0x0 PUSH2 0x100 EXP DUP2 SLOAD DUP2 PUSH20 0xFFFFFFFFFFFFFFFFFFFFFFFFFFFFFFFFFFFFFFFF MUL NOT AND SWAP1 DUP4 PUSH20 0xFFFFFFFFFFFFFFFFFFFFFFFFFFFFFFFFFFFFFFFF AND MUL OR SWAP1 SSTORE POP PUSH32 0x66756E2D657468657265756D2D7365706F6C69612D3100000000000000000000 PUSH1 0x0 SHL PUSH1 0xD SSTORE CALLVALUE DUP1 ISZERO PUSH3 0x92 JUMPI PUSH1 0x0 DUP1 REVERT JUMPDEST POP PUSH1 0x40 MLOAD PUSH3 0x5859 CODESIZE SUB DUP1 PUSH3 0x5859 DUP4 CODECOPY DUP2 DUP2 ADD PUSH1 0x40 MSTORE DUP2 ADD SWAP1 PUSH3 0xB8 SWAP2 SWAP1 PUSH3 0xCED JUMP JUMPDEST PUSH1 0xC PUSH1 0x0 SWAP1 SLOAD SWAP1 PUSH2 0x100 EXP SWAP1 DIV PUSH20 0xFFFFFFFFFFFFFFFFFFFFFFFFFFFFFFFFFFFFFFFF AND DUP1 PUSH20 0xFFFFFFFFFFFFFFFFFFFFFFFFFFFFFFFFFFFFFFFF AND PUSH1 0x80 DUP2 PUSH20 0xFFFFFFFFFFFFFFFFFFFFFFFFFFFFFFFFFFFFFFFF AND DUP2 MSTORE POP POP POP DUP10 PUSH1 0x0 DUP1 PUSH2 0x100 EXP DUP2 SLOAD DUP2 PUSH20 0xFFFFFFFFFFFFFFFFFFFFFFFFFFFFFFFFFFFFFFFF MUL NOT AND SWAP1 DUP4 PUSH20 0xFFFFFFFFFFFFFFFFFFFFFFFFFFFFFFFFFFFFFFFF AND MUL OR SWAP1 SSTORE POP DUP9 PUSH1 0x2 DUP2 SWAP1 SSTORE POP DUP8 PUSH1 0x3 DUP2 SWAP1 SSTORE POP DUP7 PUSH1 0x5 SWAP1 PUSH1 0x2 PUSH3 0x171 SWAP3 SWAP2 SWAP1 PUSH3 0x66B JUMP JUMPDEST POP PUSH1 0x3C DUP5 PUSH3 0x181 SWAP2 SWAP1 PUSH3 0xE70 JUMP JUMPDEST TIMESTAMP PUSH3 0x18E SWAP2 SWAP1 PUSH3 0xEBB JUMP JUMPDEST PUSH1 0x7 DUP2 SWAP1 SSTORE POP PUSH1 0x0 JUMPDEST DUP7 MLOAD DUP2 LT ISZERO PUSH3 0x382 JUMPI PUSH3 0x1AB PUSH3 0x6B0 JUMP JUMPDEST PUSH1 0x0 DUP2 PUSH1 0x0 PUSH1 0x2 DUP2 LT PUSH3 0x1C4 JUMPI PUSH3 0x1C3 PUSH3 0xEF6 JUMP JUMPDEST JUMPDEST PUSH1 0x20 MUL ADD MLOAD PUSH1 0x0 PUSH1 0x2 DUP2 LT PUSH3 0x1DF JUMPI PUSH3 0x1DE PUSH3 0xEF6 JUMP JUMPDEST JUMPDEST PUSH1 0x20 MUL ADD DUP2 DUP2 MSTORE POP POP PUSH1 0x1 DUP2 PUSH1 0x0 PUSH1 0x2 DUP2 LT PUSH3 0x201 JUMPI PUSH3 0x200 PUSH3 0xEF6 JUMP JUMPDEST JUMPDEST PUSH1 0x20 MUL ADD MLOAD PUSH1 0x1 PUSH1 0x2 DUP2 LT PUSH3 0x21C JUMPI PUSH3 0x21B PUSH3 0xEF6 JUMP JUMPDEST JUMPDEST PUSH1 0x20 MUL ADD DUP2 DUP2 MSTORE POP POP PUSH1 0x0 DUP2 PUSH1 0x1 PUSH1 0x2 DUP2 LT PUSH3 0x23E JUMPI PUSH3 0x23D PUSH3 0xEF6 JUMP JUMPDEST JUMPDEST PUSH1 0x20 MUL ADD MLOAD PUSH1 0x0 PUSH1 0x2 DUP2 LT PUSH3 0x259 JUMPI PUSH3 0x258 PUSH3 0xEF6 JUMP JUMPDEST JUMPDEST PUSH1 0x20 MUL ADD DUP2 DUP2 MSTORE POP POP PUSH1 0x1 DUP2 PUSH1 0x1 PUSH1 0x2 DUP2 LT PUSH3 0x27B JUMPI PUSH3 0x27A PUSH3 0xEF6 JUMP JUMPDEST JUMPDEST PUSH1 0x20 MUL ADD MLOAD PUSH1 0x1 PUSH1 0x2 DUP2 LT PUSH3 0x296 JUMPI PUSH3 0x295 PUSH3 0xEF6 JUMP JUMPDEST JUMPDEST PUSH1 0x20 MUL ADD DUP2 DUP2 MSTORE POP POP PUSH1 0x1 PUSH1 0x40 MLOAD DUP1 PUSH1 0x60 ADD PUSH1 0x40 MSTORE DUP1 DUP11 DUP6 DUP2 MLOAD DUP2 LT PUSH3 0x2C2 JUMPI PUSH3 0x2C1 PUSH3 0xEF6 JUMP JUMPDEST JUMPDEST PUSH1 0x20 MUL PUSH1 0x20 ADD ADD MLOAD DUP2 MSTORE PUSH1 0x20 ADD DUP10 DUP6 DUP2 MLOAD DUP2 LT PUSH3 0x2E5 JUMPI PUSH3 0x2E4 PUSH3 0xEF6 JUMP JUMPDEST JUMPDEST PUSH1 0x20 MUL PUSH1 0x20 ADD ADD MLOAD DUP2 MSTORE PUSH1 0x20 ADD DUP4 DUP2 MSTORE POP SWAP1 DUP1 PUSH1 0x1 DUP2 SLOAD ADD DUP1 DUP3 SSTORE DUP1 SWAP2 POP POP PUSH1 0x1 SWAP1 SUB SWAP1 PUSH1 0x0 MSTORE PUSH1 0x20 PUSH1 0x0 KECCAK256 SWAP1 PUSH1 0x6 MUL ADD PUSH1 0x0 SWAP1 SWAP2 SWAP1 SWAP2 SWAP1 SWAP2 POP PUSH1 0x0 DUP3 ADD MLOAD DUP2 PUSH1 0x0 ADD SWAP1 DUP2 PUSH3 0x336 SWAP2 SWAP1 PUSH3 0x1166 JUMP JUMPDEST POP PUSH1 0x20 DUP3 ADD MLOAD DUP2 PUSH1 0x1 ADD SWAP1 DUP2 PUSH3 0x34E SWAP2 SWAP1 PUSH3 0x1166 JUMP JUMPDEST POP PUSH1 0x40 DUP3 ADD MLOAD DUP2 PUSH1 0x2 ADD SWAP1 PUSH1 0x2 PUSH3 0x368 SWAP3 SWAP2 SWAP1 PUSH3 0x6E0 JUMP JUMPDEST POP POP POP POP DUP1 DUP1 PUSH3 0x379 SWAP1 PUSH3 0x124D JUMP JUMPDEST SWAP2 POP POP PUSH3 0x197 JUMP JUMPDEST POP PUSH1 0x0 JUMPDEST PUSH1 0x5 DUP2 LT ISZERO PUSH3 0x641 JUMPI PUSH1 0x40 MLOAD DUP1 PUSH1 0x40 ADD PUSH1 0x40 MSTORE DUP1 PUSH1 0x1 DUP4 PUSH3 0x3AA SWAP2 SWAP1 PUSH3 0xEBB JUMP JUMPDEST DUP2 MSTORE PUSH1 0x20 ADD PUSH1 0x1 ISZERO ISZERO DUP2 MSTORE POP PUSH1 0xE PUSH1 0x0 DUP7 DUP5 PUSH1 0x5 DUP2 LT PUSH3 0x3D0 JUMPI PUSH3 0x3CF PUSH3 0xEF6 JUMP JUMPDEST JUMPDEST PUSH1 0x20 MUL ADD MLOAD PUSH20 0xFFFFFFFFFFFFFFFFFFFFFFFFFFFFFFFFFFFFFFFF AND PUSH20 0xFFFFFFFFFFFFFFFFFFFFFFFFFFFFFFFFFFFFFFFF AND DUP2 MSTORE PUSH1 0x20 ADD SWAP1 DUP2 MSTORE PUSH1 0x20 ADD PUSH1 0x0 KECCAK256 PUSH1 0x0 DUP3 ADD MLOAD DUP2 PUSH1 0x0 ADD SSTORE PUSH1 0x20 DUP3 ADD MLOAD DUP2 PUSH1 0x1 ADD PUSH1 0x0 PUSH2 0x100 EXP DUP2 SLOAD DUP2 PUSH1 0xFF MUL NOT AND SWAP1 DUP4 ISZERO ISZERO MUL OR SWAP1 SSTORE POP SWAP1 POP POP PUSH3 0x446 PUSH3 0x737 JUMP JUMPDEST PUSH1 0x0 DUP2 PUSH1 0x0 PUSH1 0x3 DUP2 LT PUSH3 0x45F JUMPI PUSH3 0x45E PUSH3 0xEF6 JUMP JUMPDEST JUMPDEST PUSH1 0x20 MUL ADD MLOAD PUSH1 0x0 PUSH1 0x2 DUP2 LT PUSH3 0x47A JUMPI PUSH3 0x479 PUSH3 0xEF6 JUMP JUMPDEST JUMPDEST PUSH1 0x20 MUL ADD DUP2 DUP2 MSTORE POP POP PUSH1 0x1 DUP2 PUSH1 0x0 PUSH1 0x3 DUP2 LT PUSH3 0x49C JUMPI PUSH3 0x49B PUSH3 0xEF6 JUMP JUMPDEST JUMPDEST PUSH1 0x20 MUL ADD MLOAD PUSH1 0x1 PUSH1 0x2 DUP2 LT PUSH3 0x4B7 JUMPI PUSH3 0x4B6 PUSH3 0xEF6 JUMP JUMPDEST JUMPDEST PUSH1 0x20 MUL ADD DUP2 DUP2 MSTORE POP POP PUSH1 0x0 DUP2 PUSH1 0x1 PUSH1 0x3 DUP2 LT PUSH3 0x4D9 JUMPI PUSH3 0x4D8 PUSH3 0xEF6 JUMP JUMPDEST JUMPDEST PUSH1 0x20 MUL ADD MLOAD PUSH1 0x0 PUSH1 0x2 DUP2 LT PUSH3 0x4F4 JUMPI PUSH3 0x4F3 PUSH3 0xEF6 JUMP JUMPDEST JUMPDEST PUSH1 0x20 MUL ADD DUP2 DUP2 MSTORE POP POP PUSH1 0x1 DUP2 PUSH1 0x1 PUSH1 0x3 DUP2 LT PUSH3 0x516 JUMPI PUSH3 0x515 PUSH3 0xEF6 JUMP JUMPDEST JUMPDEST PUSH1 0x20 MUL ADD MLOAD PUSH1 0x1 PUSH1 0x2 DUP2 LT PUSH3 0x531 JUMPI PUSH3 0x530 PUSH3 0xEF6 JUMP JUMPDEST JUMPDEST PUSH1 0x20 MUL ADD DUP2 DUP2 MSTORE POP POP PUSH1 0x0 DUP2 PUSH1 0x2 PUSH1 0x3 DUP2 LT PUSH3 0x553 JUMPI PUSH3 0x552 PUSH3 0xEF6 JUMP JUMPDEST JUMPDEST PUSH1 0x20 MUL ADD MLOAD PUSH1 0x0 PUSH1 0x2 DUP2 LT PUSH3 0x56E JUMPI PUSH3 0x56D PUSH3 0xEF6 JUMP JUMPDEST JUMPDEST PUSH1 0x20 MUL ADD DUP2 DUP2 MSTORE POP POP PUSH1 0x1 DUP2 PUSH1 0x2 PUSH1 0x3 DUP2 LT PUSH3 0x590 JUMPI PUSH3 0x58F PUSH3 0xEF6 JUMP JUMPDEST JUMPDEST PUSH1 0x20 MUL ADD MLOAD PUSH1 0x1 PUSH1 0x2 DUP2 LT PUSH3 0x5AB JUMPI PUSH3 0x5AA PUSH3 0xEF6 JUMP JUMPDEST JUMPDEST PUSH1 0x20 MUL ADD DUP2 DUP2 MSTORE POP POP PUSH1 0x40 MLOAD DUP1 PUSH1 0x40 ADD PUSH1 0x40 MSTORE DUP1 DUP3 DUP2 MSTORE PUSH1 0x20 ADD PUSH1 0x0 ISZERO ISZERO DUP2 MSTORE POP PUSH1 0xF PUSH1 0x0 PUSH1 0x1 DUP6 PUSH3 0x5DF SWAP2 SWAP1 PUSH3 0xEBB JUMP JUMPDEST DUP2 MSTORE PUSH1 0x20 ADD SWAP1 DUP2 MSTORE PUSH1 0x20 ADD PUSH1 0x0 KECCAK256 PUSH1 0x0 DUP3 ADD MLOAD DUP2 PUSH1 0x0 ADD SWAP1 PUSH1 0x3 PUSH3 0x606 SWAP3 SWAP2 SWAP1 PUSH3 0x767 JUMP JUMPDEST POP PUSH1 0x20 DUP3 ADD MLOAD DUP2 PUSH1 0x6 ADD PUSH1 0x0 PUSH2 0x100 EXP DUP2 SLOAD DUP2 PUSH1 0xFF MUL NOT AND SWAP1 DUP4 ISZERO ISZERO MUL OR SWAP1 SSTORE POP SWAP1 POP POP POP DUP1 DUP1 PUSH3 0x638 SWAP1 PUSH3 0x124D JUMP JUMPDEST SWAP2 POP POP PUSH3 0x386 JUMP JUMPDEST POP DUP2 PUSH1 0x9 DUP2 SWAP1 SSTORE POP DUP1 PUSH1 0xA SWAP1 DUP2 PUSH3 0x65A SWAP2 SWAP1 PUSH3 0x1166 JUMP JUMPDEST POP POP POP POP POP POP POP POP POP POP POP PUSH3 0x129A JUMP JUMPDEST DUP3 PUSH1 0x2 DUP2 ADD SWAP3 DUP3 ISZERO PUSH3 0x69D JUMPI SWAP2 PUSH1 0x20 MUL DUP3 ADD JUMPDEST DUP3 DUP2 GT ISZERO PUSH3 0x69C JUMPI DUP3 MLOAD DUP3 SSTORE SWAP2 PUSH1 0x20 ADD SWAP2 SWAP1 PUSH1 0x1 ADD SWAP1 PUSH3 0x67F JUMP JUMPDEST JUMPDEST POP SWAP1 POP PUSH3 0x6AC SWAP2 SWAP1 PUSH3 0x7BF JUMP JUMPDEST POP SWAP1 JUMP JUMPDEST PUSH1 0x40 MLOAD DUP1 PUSH1 0x40 ADD PUSH1 0x40 MSTORE DUP1 PUSH1 0x2 SWAP1 JUMPDEST PUSH3 0x6C9 PUSH3 0x7DE JUMP JUMPDEST DUP2 MSTORE PUSH1 0x20 ADD SWAP1 PUSH1 0x1 SWAP1 SUB SWAP1 DUP2 PUSH3 0x6BF JUMPI SWAP1 POP POP SWAP1 JUMP JUMPDEST DUP3 PUSH1 0x2 DUP1 MUL DUP2 ADD SWAP3 DUP3 ISZERO PUSH3 0x724 JUMPI SWAP2 PUSH1 0x20 MUL DUP3 ADD JUMPDEST DUP3 DUP2 GT ISZERO PUSH3 0x723 JUMPI DUP3 MLOAD DUP3 SWAP1 PUSH1 0x2 PUSH3 0x712 SWAP3 SWAP2 SWAP1 PUSH3 0x66B JUMP JUMPDEST POP SWAP2 PUSH1 0x20 ADD SWAP2 SWAP1 PUSH1 0x2 ADD SWAP1 PUSH3 0x6F6 JUMP JUMPDEST JUMPDEST POP SWAP1 POP PUSH3 0x733 SWAP2 SWAP1 PUSH3 0x800 JUMP JUMPDEST POP SWAP1 JUMP JUMPDEST PUSH1 0x40 MLOAD DUP1 PUSH1 0x60 ADD PUSH1 0x40 MSTORE DUP1 PUSH1 0x3 SWAP1 JUMPDEST PUSH3 0x750 PUSH3 0x7DE JUMP JUMPDEST DUP2 MSTORE PUSH1 0x20 ADD SWAP1 PUSH1 0x1 SWAP1 SUB SWAP1 DUP2 PUSH3 0x746 JUMPI SWAP1 POP POP SWAP1 JUMP JUMPDEST DUP3 PUSH1 0x3 PUSH1 0x2 MUL DUP2 ADD SWAP3 DUP3 ISZERO PUSH3 0x7AC JUMPI SWAP2 PUSH1 0x20 MUL DUP3 ADD JUMPDEST DUP3 DUP2 GT ISZERO PUSH3 0x7AB JUMPI DUP3 MLOAD DUP3 SWAP1 PUSH1 0x2 PUSH3 0x79A SWAP3 SWAP2 SWAP1 PUSH3 0x66B JUMP JUMPDEST POP SWAP2 PUSH1 0x20 ADD SWAP2 SWAP1 PUSH1 0x2 ADD SWAP1 PUSH3 0x77E JUMP JUMPDEST JUMPDEST POP SWAP1 POP PUSH3 0x7BB SWAP2 SWAP1 PUSH3 0x800 JUMP JUMPDEST POP SWAP1 JUMP JUMPDEST JUMPDEST DUP1 DUP3 GT ISZERO PUSH3 0x7DA JUMPI PUSH1 0x0 DUP2 PUSH1 0x0 SWAP1 SSTORE POP PUSH1 0x1 ADD PUSH3 0x7C0 JUMP JUMPDEST POP SWAP1 JUMP JUMPDEST PUSH1 0x40 MLOAD DUP1 PUSH1 0x40 ADD PUSH1 0x40 MSTORE DUP1 PUSH1 0x2 SWAP1 PUSH1 0x20 DUP3 MUL DUP1 CALLDATASIZE DUP4 CALLDATACOPY DUP1 DUP3 ADD SWAP2 POP POP SWAP1 POP POP SWAP1 JUMP JUMPDEST JUMPDEST DUP1 DUP3 GT ISZERO PUSH3 0x824 JUMPI PUSH1 0x0 DUP2 DUP2 PUSH3 0x81A SWAP2 SWAP1 PUSH3 0x828 JUMP JUMPDEST POP PUSH1 0x2 ADD PUSH3 0x801 JUMP JUMPDEST POP SWAP1 JUMP JUMPDEST POP PUSH1 0x0 DUP2 SSTORE PUSH1 0x1 ADD PUSH1 0x0 SWAP1 SSTORE JUMP JUMPDEST PUSH1 0x0 PUSH1 0x40 MLOAD SWAP1 POP SWAP1 JUMP JUMPDEST PUSH1 0x0 DUP1 REVERT JUMPDEST PUSH1 0x0 DUP1 REVERT JUMPDEST PUSH1 0x0 PUSH20 0xFFFFFFFFFFFFFFFFFFFFFFFFFFFFFFFFFFFFFFFF DUP3 AND SWAP1 POP SWAP2 SWAP1 POP JUMP JUMPDEST PUSH1 0x0 PUSH3 0x877 DUP3 PUSH3 0x84A JUMP JUMPDEST SWAP1 POP SWAP2 SWAP1 POP JUMP JUMPDEST PUSH3 0x889 DUP2 PUSH3 0x86A JUMP JUMPDEST DUP2 EQ PUSH3 0x895 JUMPI PUSH1 0x0 DUP1 REVERT JUMPDEST POP JUMP JUMPDEST PUSH1 0x0 DUP2 MLOAD SWAP1 POP PUSH3 0x8A9 DUP2 PUSH3 0x87E JUMP JUMPDEST SWAP3 SWAP2 POP POP JUMP JUMPDEST PUSH1 0x0 DUP2 SWAP1 POP SWAP2 SWAP1 POP JUMP JUMPDEST PUSH3 0x8C4 DUP2 PUSH3 0x8AF JUMP JUMPDEST DUP2 EQ PUSH3 0x8D0 JUMPI PUSH1 0x0 DUP1 REVERT JUMPDEST POP JUMP JUMPDEST PUSH1 0x0 DUP2 MLOAD SWAP1 POP PUSH3 0x8E4 DUP2 PUSH3 0x8B9 JUMP JUMPDEST SWAP3 SWAP2 POP POP JUMP JUMPDEST PUSH1 0x0 DUP1 REVERT JUMPDEST PUSH1 0x0 PUSH1 0x1F NOT PUSH1 0x1F DUP4 ADD AND SWAP1 POP SWAP2 SWAP1 POP JUMP JUMPDEST PUSH32 0x4E487B7100000000000000000000000000000000000000000000000000000000 PUSH1 0x0 MSTORE PUSH1 0x41 PUSH1 0x4 MSTORE PUSH1 0x24 PUSH1 0x0 REVERT JUMPDEST PUSH3 0x93A DUP3 PUSH3 0x8EF JUMP JUMPDEST DUP2 ADD DUP2 DUP2 LT PUSH8 0xFFFFFFFFFFFFFFFF DUP3 GT OR ISZERO PUSH3 0x95C JUMPI PUSH3 0x95B PUSH3 0x900 JUMP JUMPDEST JUMPDEST DUP1 PUSH1 0x40 MSTORE POP POP POP JUMP JUMPDEST PUSH1 0x0 PUSH3 0x971 PUSH3 0x836 JUMP JUMPDEST SWAP1 POP PUSH3 0x97F DUP3 DUP3 PUSH3 0x92F JUMP JUMPDEST SWAP2 SWAP1 POP JUMP JUMPDEST PUSH1 0x0 PUSH8 0xFFFFFFFFFFFFFFFF DUP3 GT ISZERO PUSH3 0x9A2 JUMPI PUSH3 0x9A1 PUSH3 0x900 JUMP JUMPDEST JUMPDEST PUSH1 0x20 DUP3 MUL SWAP1 POP SWAP2 SWAP1 POP JUMP JUMPDEST PUSH1 0x0 DUP1 REVERT JUMPDEST PUSH1 0x0 PUSH3 0x9C9 PUSH3 0x9C3 DUP5 PUSH3 0x984 JUMP JUMPDEST PUSH3 0x965 JUMP JUMPDEST SWAP1 POP DUP1 PUSH1 0x20 DUP5 MUL DUP4 ADD DUP6 DUP2 GT ISZERO PUSH3 0x9E6 JUMPI PUSH3 0x9E5 PUSH3 0x9AD JUMP JUMPDEST JUMPDEST DUP4 JUMPDEST DUP2 DUP2 LT ISZERO PUSH3 0xA13 JUMPI DUP1 PUSH3 0x9FE DUP9 DUP3 PUSH3 0x8D3 JUMP JUMPDEST DUP5 MSTORE PUSH1 0x20 DUP5 ADD SWAP4 POP POP PUSH1 0x20 DUP2 ADD SWAP1 POP PUSH3 0x9E8 JUMP JUMPDEST POP POP POP SWAP4 SWAP3 POP POP POP JUMP JUMPDEST PUSH1 0x0 DUP3 PUSH1 0x1F DUP4 ADD SLT PUSH3 0xA35 JUMPI PUSH3 0xA34 PUSH3 0x8EA JUMP JUMPDEST JUMPDEST PUSH1 0x2 PUSH3 0xA44 DUP5 DUP3 DUP6 PUSH3 0x9B2 JUMP JUMPDEST SWAP2 POP POP SWAP3 SWAP2 POP POP JUMP JUMPDEST PUSH1 0x0 PUSH8 0xFFFFFFFFFFFFFFFF DUP3 GT ISZERO PUSH3 0xA6B JUMPI PUSH3 0xA6A PUSH3 0x900 JUMP JUMPDEST JUMPDEST PUSH1 0x20 DUP3 MUL SWAP1 POP PUSH1 0x20 DUP2 ADD SWAP1 POP SWAP2 SWAP1 POP JUMP JUMPDEST PUSH1 0x0 DUP1 REVERT JUMPDEST PUSH1 0x0 PUSH8 0xFFFFFFFFFFFFFFFF DUP3 GT ISZERO PUSH3 0xA9F JUMPI PUSH3 0xA9E PUSH3 0x900 JUMP JUMPDEST JUMPDEST PUSH3 0xAAA DUP3 PUSH3 0x8EF JUMP JUMPDEST SWAP1 POP PUSH1 0x20 DUP2 ADD SWAP1 POP SWAP2 SWAP1 POP JUMP JUMPDEST PUSH1 0x0 JUMPDEST DUP4 DUP2 LT ISZERO PUSH3 0xAD7 JUMPI DUP1 DUP3 ADD MLOAD DUP2 DUP5 ADD MSTORE PUSH1 0x20 DUP2 ADD SWAP1 POP PUSH3 0xABA JUMP JUMPDEST PUSH1 0x0 DUP5 DUP5 ADD MSTORE POP POP POP POP JUMP JUMPDEST PUSH1 0x0 PUSH3 0xAFA PUSH3 0xAF4 DUP5 PUSH3 0xA81 JUMP JUMPDEST PUSH3 0x965 JUMP JUMPDEST SWAP1 POP DUP3 DUP2 MSTORE PUSH1 0x20 DUP2 ADD DUP5 DUP5 DUP5 ADD GT ISZERO PUSH3 0xB19 JUMPI PUSH3 0xB18 PUSH3 0xA7C JUMP JUMPDEST JUMPDEST PUSH3 0xB26 DUP5 DUP3 DUP6 PUSH3 0xAB7 JUMP JUMPDEST POP SWAP4 SWAP3 POP POP POP JUMP JUMPDEST PUSH1 0x0 DUP3 PUSH1 0x1F DUP4 ADD SLT PUSH3 0xB46 JUMPI PUSH3 0xB45 PUSH3 0x8EA JUMP JUMPDEST JUMPDEST DUP2 MLOAD PUSH3 0xB58 DUP5 DUP3 PUSH1 0x20 DUP7 ADD PUSH3 0xAE3 JUMP JUMPDEST SWAP2 POP POP SWAP3 SWAP2 POP POP JUMP JUMPDEST PUSH1 0x0 PUSH3 0xB78 PUSH3 0xB72 DUP5 PUSH3 0xA4D JUMP JUMPDEST PUSH3 0x965 JUMP JUMPDEST SWAP1 POP DUP1 DUP4 DUP3 MSTORE PUSH1 0x20 DUP3 ADD SWAP1 POP PUSH1 0x20 DUP5 MUL DUP4 ADD DUP6 DUP2 GT ISZERO PUSH3 0xB9E JUMPI PUSH3 0xB9D PUSH3 0x9AD JUMP JUMPDEST JUMPDEST DUP4 JUMPDEST DUP2 DUP2 LT ISZERO PUSH3 0xBEC JUMPI DUP1 MLOAD PUSH8 0xFFFFFFFFFFFFFFFF DUP2 GT ISZERO PUSH3 0xBC7 JUMPI PUSH3 0xBC6 PUSH3 0x8EA JUMP JUMPDEST JUMPDEST DUP1 DUP7 ADD PUSH3 0xBD6 DUP10 DUP3 PUSH3 0xB2E JUMP JUMPDEST DUP6 MSTORE PUSH1 0x20 DUP6 ADD SWAP5 POP POP POP PUSH1 0x20 DUP2 ADD SWAP1 POP PUSH3 0xBA0 JUMP JUMPDEST POP POP POP SWAP4 SWAP3 POP POP POP JUMP JUMPDEST PUSH1 0x0 DUP3 PUSH1 0x1F DUP4 ADD SLT PUSH3 0xC0E JUMPI PUSH3 0xC0D PUSH3 0x8EA JUMP JUMPDEST JUMPDEST DUP2 MLOAD PUSH3 0xC20 DUP5 DUP3 PUSH1 0x20 DUP7 ADD PUSH3 0xB61 JUMP JUMPDEST SWAP2 POP POP SWAP3 SWAP2 POP POP JUMP JUMPDEST PUSH1 0x0 PUSH8 0xFFFFFFFFFFFFFFFF DUP3 GT ISZERO PUSH3 0xC47 JUMPI PUSH3 0xC46 PUSH3 0x900 JUMP JUMPDEST JUMPDEST PUSH1 0x20 DUP3 MUL SWAP1 POP SWAP2 SWAP1 POP JUMP JUMPDEST PUSH1 0x0 PUSH3 0xC69 PUSH3 0xC63 DUP5 PUSH3 0xC29 JUMP JUMPDEST PUSH3 0x965 JUMP JUMPDEST SWAP1 POP DUP1 PUSH1 0x20 DUP5 MUL DUP4 ADD DUP6 DUP2 GT ISZERO PUSH3 0xC86 JUMPI PUSH3 0xC85 PUSH3 0x9AD JUMP JUMPDEST JUMPDEST DUP4 JUMPDEST DUP2 DUP2 LT ISZERO PUSH3 0xCB3 JUMPI DUP1 PUSH3 0xC9E DUP9 DUP3 PUSH3 0x898 JUMP JUMPDEST DUP5 MSTORE PUSH1 0x20 DUP5 ADD SWAP4 POP POP PUSH1 0x20 DUP2 ADD SWAP1 POP PUSH3 0xC88 JUMP JUMPDEST POP POP POP SWAP4 SWAP3 POP POP POP JUMP JUMPDEST PUSH1 0x0 DUP3 PUSH1 0x1F DUP4 ADD SLT PUSH3 0xCD5 JUMPI PUSH3 0xCD4 PUSH3 0x8EA JUMP JUMPDEST JUMPDEST PUSH1 0x5 PUSH3 0xCE4 DUP5 DUP3 DUP6 PUSH3 0xC52 JUMP JUMPDEST SWAP2 POP POP SWAP3 SWAP2 POP POP JUMP JUMPDEST PUSH1 0x0 DUP1 PUSH1 0x0 DUP1 PUSH1 0x0 DUP1 PUSH1 0x0 DUP1 PUSH1 0x0 DUP1 PUSH2 0x1E0 DUP12 DUP14 SUB SLT ISZERO PUSH3 0xD14 JUMPI PUSH3 0xD13 PUSH3 0x840 JUMP JUMPDEST JUMPDEST PUSH1 0x0 PUSH3 0xD24 DUP14 DUP3 DUP15 ADD PUSH3 0x898 JUMP JUMPDEST SWAP11 POP POP PUSH1 0x20 PUSH3 0xD37 DUP14 DUP3 DUP15 ADD PUSH3 0x8D3 JUMP JUMPDEST SWAP10 POP POP PUSH1 0x40 PUSH3 0xD4A DUP14 DUP3 DUP15 ADD PUSH3 0x8D3 JUMP JUMPDEST SWAP9 POP POP PUSH1 0x60 PUSH3 0xD5D DUP14 DUP3 DUP15 ADD PUSH3 0xA1D JUMP JUMPDEST SWAP8 POP POP PUSH1 0xA0 DUP12 ADD MLOAD PUSH8 0xFFFFFFFFFFFFFFFF DUP2 GT ISZERO PUSH3 0xD81 JUMPI PUSH3 0xD80 PUSH3 0x845 JUMP JUMPDEST JUMPDEST PUSH3 0xD8F DUP14 DUP3 DUP15 ADD PUSH3 0xBF6 JUMP JUMPDEST SWAP7 POP POP PUSH1 0xC0 DUP12 ADD MLOAD PUSH8 0xFFFFFFFFFFFFFFFF DUP2 GT ISZERO PUSH3 0xDB3 JUMPI PUSH3 0xDB2 PUSH3 0x845 JUMP JUMPDEST JUMPDEST PUSH3 0xDC1 DUP14 DUP3 DUP15 ADD PUSH3 0xBF6 JUMP JUMPDEST SWAP6 POP POP PUSH1 0xE0 PUSH3 0xDD4 DUP14 DUP3 DUP15 ADD PUSH3 0x8D3 JUMP JUMPDEST SWAP5 POP POP PUSH2 0x100 PUSH3 0xDE8 DUP14 DUP3 DUP15 ADD PUSH3 0xCBD JUMP JUMPDEST SWAP4 POP POP PUSH2 0x1A0 PUSH3 0xDFC DUP14 DUP3 DUP15 ADD PUSH3 0x8D3 JUMP JUMPDEST SWAP3 POP POP PUSH2 0x1C0 DUP12 ADD MLOAD PUSH8 0xFFFFFFFFFFFFFFFF DUP2 GT ISZERO PUSH3 0xE21 JUMPI PUSH3 0xE20 PUSH3 0x845 JUMP JUMPDEST JUMPDEST PUSH3 0xE2F DUP14 DUP3 DUP15 ADD PUSH3 0xB2E JUMP JUMPDEST SWAP2 POP POP SWAP3 SWAP6 SWAP9 SWAP12 SWAP2 SWAP5 SWAP8 SWAP11 POP SWAP3 SWAP6 SWAP9 POP JUMP JUMPDEST PUSH32 0x4E487B7100000000000000000000000000000000000000000000000000000000 PUSH1 0x0 MSTORE PUSH1 0x11 PUSH1 0x4 MSTORE PUSH1 0x24 PUSH1 0x0 REVERT JUMPDEST PUSH1 0x0 PUSH3 0xE7D DUP3 PUSH3 0x8AF JUMP JUMPDEST SWAP2 POP PUSH3 0xE8A DUP4 PUSH3 0x8AF JUMP JUMPDEST SWAP3 POP DUP3 DUP3 MUL PUSH3 0xE9A DUP2 PUSH3 0x8AF JUMP JUMPDEST SWAP2 POP DUP3 DUP3 DIV DUP5 EQ DUP4 ISZERO OR PUSH3 0xEB4 JUMPI PUSH3 0xEB3 PUSH3 0xE41 JUMP JUMPDEST JUMPDEST POP SWAP3 SWAP2 POP POP JUMP JUMPDEST PUSH1 0x0 PUSH3 0xEC8 DUP3 PUSH3 0x8AF JUMP JUMPDEST SWAP2 POP PUSH3 0xED5 DUP4 PUSH3 0x8AF JUMP JUMPDEST SWAP3 POP DUP3 DUP3 ADD SWAP1 POP DUP1 DUP3 GT ISZERO PUSH3 0xEF0 JUMPI PUSH3 0xEEF PUSH3 0xE41 JUMP JUMPDEST JUMPDEST SWAP3 SWAP2 POP POP JUMP JUMPDEST PUSH32 0x4E487B7100000000000000000000000000000000000000000000000000000000 PUSH1 0x0 MSTORE PUSH1 0x32 PUSH1 0x4 MSTORE PUSH1 0x24 PUSH1 0x0 REVERT JUMPDEST PUSH1 0x0 DUP2 MLOAD SWAP1 POP SWAP2 SWAP1 POP JUMP JUMPDEST PUSH32 0x4E487B7100000000000000000000000000000000000000000000000000000000 PUSH1 0x0 MSTORE PUSH1 0x22 PUSH1 0x4 MSTORE PUSH1 0x24 PUSH1 0x0 REVERT JUMPDEST PUSH1 0x0 PUSH1 0x2 DUP3 DIV SWAP1 POP PUSH1 0x1 DUP3 AND DUP1 PUSH3 0xF78 JUMPI PUSH1 0x7F DUP3 AND SWAP2 POP JUMPDEST PUSH1 0x20 DUP3 LT DUP2 SUB PUSH3 0xF8E JUMPI PUSH3 0xF8D PUSH3 0xF30 JUMP JUMPDEST JUMPDEST POP SWAP2 SWAP1 POP JUMP JUMPDEST PUSH1 0x0 DUP2 SWAP1 POP DUP2 PUSH1 0x0 MSTORE PUSH1 0x20 PUSH1 0x0 KECCAK256 SWAP1 POP SWAP2 SWAP1 POP JUMP JUMPDEST PUSH1 0x0 PUSH1 0x20 PUSH1 0x1F DUP4 ADD DIV SWAP1 POP SWAP2 SWAP1 POP JUMP JUMPDEST PUSH1 0x0 DUP3 DUP3 SHL SWAP1 POP SWAP3 SWAP2 POP POP JUMP JUMPDEST PUSH1 0x0 PUSH1 0x8 DUP4 MUL PUSH3 0xFF8 PUSH32 0xFFFFFFFFFFFFFFFFFFFFFFFFFFFFFFFFFFFFFFFFFFFFFFFFFFFFFFFFFFFFFFFF DUP3 PUSH3 0xFB9 JUMP JUMPDEST PUSH3 0x1004 DUP7 DUP4 PUSH3 0xFB9 JUMP JUMPDEST SWAP6 POP DUP1 NOT DUP5 AND SWAP4 POP DUP1 DUP7 AND DUP5 OR SWAP3 POP POP POP SWAP4 SWAP3 POP POP POP JUMP JUMPDEST PUSH1 0x0 DUP2 SWAP1 POP SWAP2 SWAP1 POP JUMP JUMPDEST PUSH1 0x0 PUSH3 0x1047 PUSH3 0x1041 PUSH3 0x103B DUP5 PUSH3 0x8AF JUMP JUMPDEST PUSH3 0x101C JUMP JUMPDEST PUSH3 0x8AF JUMP JUMPDEST SWAP1 POP SWAP2 SWAP1 POP JUMP JUMPDEST PUSH1 0x0 DUP2 SWAP1 POP SWAP2 SWAP1 POP JUMP JUMPDEST PUSH3 0x1063 DUP4 PUSH3 0x1026 JUMP JUMPDEST PUSH3 0x107B PUSH3 0x1072 DUP3 PUSH3 0x104E JUMP JUMPDEST DUP5 DUP5 SLOAD PUSH3 0xFC6 JUMP JUMPDEST DUP3 SSTORE POP POP POP POP JUMP JUMPDEST PUSH1 0x0 SWAP1 JUMP JUMPDEST PUSH3 0x1092 PUSH3 0x1083 JUMP JUMPDEST PUSH3 0x109F DUP2 DUP5 DUP5 PUSH3 0x1058 JUMP JUMPDEST POP POP POP JUMP JUMPDEST JUMPDEST DUP2 DUP2 LT ISZERO PUSH3 0x10C7 JUMPI PUSH3 0x10BB PUSH1 0x0 DUP3 PUSH3 0x1088 JUMP JUMPDEST PUSH1 0x1 DUP2 ADD SWAP1 POP PUSH3 0x10A5 JUMP JUMPDEST POP POP JUMP JUMPDEST PUSH1 0x1F DUP3 GT ISZERO PUSH3 0x1116 JUMPI PUSH3 0x10E0 DUP2 PUSH3 0xF94 JUMP JUMPDEST PUSH3 0x10EB DUP5 PUSH3 0xFA9 JUMP JUMPDEST DUP2 ADD PUSH1 0x20 DUP6 LT ISZERO PUSH3 0x10FB JUMPI DUP2 SWAP1 POP JUMPDEST PUSH3 0x1113 PUSH3 0x110A DUP6 PUSH3 0xFA9 JUMP JUMPDEST DUP4 ADD DUP3 PUSH3 0x10A4 JUMP JUMPDEST POP POP JUMPDEST POP POP POP JUMP JUMPDEST PUSH1 0x0 DUP3 DUP3 SHR SWAP1 POP SWAP3 SWAP2 POP POP JUMP JUMPDEST PUSH1 0x0 PUSH3 0x113B PUSH1 0x0 NOT DUP5 PUSH1 0x8 MUL PUSH3 0x111B JUMP JUMPDEST NOT DUP1 DUP4 AND SWAP2 POP POP SWAP3 SWAP2 POP POP JUMP JUMPDEST PUSH1 0x0 PUSH3 0x1156 DUP4 DUP4 PUSH3 0x1128 JUMP JUMPDEST SWAP2 POP DUP3 PUSH1 0x2 MUL DUP3 OR SWAP1 POP SWAP3 SWAP2 POP POP JUMP JUMPDEST PUSH3 0x1171 DUP3 PUSH3 0xF25 JUMP JUMPDEST PUSH8 0xFFFFFFFFFFFFFFFF DUP2 GT ISZERO PUSH3 0x118D JUMPI PUSH3 0x118C PUSH3 0x900 JUMP JUMPDEST JUMPDEST PUSH3 0x1199 DUP3 SLOAD PUSH3 0xF5F JUMP JUMPDEST PUSH3 0x11A6 DUP3 DUP3 DUP6 PUSH3 0x10CB JUMP JUMPDEST PUSH1 0x0 PUSH1 0x20 SWAP1 POP PUSH1 0x1F DUP4 GT PUSH1 0x1 DUP2 EQ PUSH3 0x11DE JUMPI PUSH1 0x0 DUP5 ISZERO PUSH3 0x11C9 JUMPI DUP3 DUP8 ADD MLOAD SWAP1 POP JUMPDEST PUSH3 0x11D5 DUP6 DUP3 PUSH3 0x1148 JUMP JUMPDEST DUP7 SSTORE POP PUSH3 0x1245 JUMP JUMPDEST PUSH1 0x1F NOT DUP5 AND PUSH3 0x11EE DUP7 PUSH3 0xF94 JUMP JUMPDEST PUSH1 0x0 JUMPDEST DUP3 DUP2 LT ISZERO PUSH3 0x1218 JUMPI DUP5 DUP10 ADD MLOAD DUP3 SSTORE PUSH1 0x1 DUP3 ADD SWAP2 POP PUSH1 0x20 DUP6 ADD SWAP5 POP PUSH1 0x20 DUP2 ADD SWAP1 POP PUSH3 0x11F1 JUMP JUMPDEST DUP7 DUP4 LT ISZERO PUSH3 0x1238 JUMPI DUP5 DUP10 ADD MLOAD PUSH3 0x1234 PUSH1 0x1F DUP10 AND DUP3 PUSH3 0x1128 JUMP JUMPDEST DUP4 SSTORE POP JUMPDEST PUSH1 0x1 PUSH1 0x2 DUP9 MUL ADD DUP9 SSTORE POP POP POP JUMPDEST POP POP POP POP POP POP JUMP JUMPDEST PUSH1 0x0 PUSH3 0x125A DUP3 PUSH3 0x8AF JUMP JUMPDEST SWAP2 POP PUSH32 0xFFFFFFFFFFFFFFFFFFFFFFFFFFFFFFFFFFFFFFFFFFFFFFFFFFFFFFFFFFFFFFFF DUP3 SUB PUSH3 0x128F JUMPI PUSH3 0x128E PUSH3 0xE41 JUMP JUMPDEST JUMPDEST PUSH1 0x1 DUP3 ADD SWAP1 POP SWAP2 SWAP1 POP JUMP JUMPDEST PUSH1 0x80 MLOAD PUSH2 0x459C PUSH3 0x12BD PUSH1 0x0 CODECOPY PUSH1 0x0 DUP2 DUP2 PUSH2 0x651 ADD MSTORE PUSH2 0x22C9 ADD MSTORE PUSH2 0x459C PUSH1 0x0 RETURN INVALID PUSH1 0x80 PUSH1 0x40 MSTORE CALLVALUE DUP1 ISZERO PUSH2 0x10 JUMPI PUSH1 0x0 DUP1 REVERT JUMPDEST POP PUSH1 0x4 CALLDATASIZE LT PUSH2 0x12C JUMPI PUSH1 0x0 CALLDATALOAD PUSH1 0xE0 SHR DUP1 PUSH4 0x3477EE2E GT PUSH2 0xAD JUMPI DUP1 PUSH4 0x84ADE889 GT PUSH2 0x71 JUMPI DUP1 PUSH4 0x84ADE889 EQ PUSH2 0x35D JUMPI DUP1 PUSH4 0x8FE4CB79 EQ PUSH2 0x379 JUMPI DUP1 PUSH4 0xA54A0868 EQ PUSH2 0x3A9 JUMPI DUP1 PUSH4 0xE168F6E2 EQ PUSH2 0x3DA JUMPI DUP1 PUSH4 0xEBF0C717 EQ PUSH2 0x40A JUMPI PUSH2 0x12C JUMP JUMPDEST DUP1 PUSH4 0x3477EE2E EQ PUSH2 0x27D JUMPI DUP1 PUSH4 0x372C12B1 EQ PUSH2 0x2AE JUMPI DUP1 PUSH4 0x43BF6CF0 EQ PUSH2 0x2DF JUMPI DUP1 PUSH4 0x4BE9C9D8 EQ PUSH2 0x2FD JUMPI DUP1 PUSH4 0x6F7267B7 EQ PUSH2 0x32D JUMPI PUSH2 0x12C JUMP JUMPDEST DUP1 PUSH4 0xE6CE084 GT PUSH2 0xF4 JUMPI DUP1 PUSH4 0xE6CE084 EQ PUSH2 0x1D7 JUMPI DUP1 PUSH4 0x17031D6D EQ PUSH2 0x1F3 JUMPI DUP1 PUSH4 0x2B7AC3F3 EQ PUSH2 0x223 JUMPI DUP1 PUSH4 0x2BE6514B EQ PUSH2 0x241 JUMPI DUP1 PUSH4 0x2DD342D3 EQ PUSH2 0x25F JUMPI PUSH2 0x12C JUMP JUMPDEST DUP1 PUSH4 0x36EE850 EQ PUSH2 0x131 JUMPI DUP1 PUSH4 0x5B6DC1E EQ PUSH2 0x14F JUMPI DUP1 PUSH4 0x6A49FCE EQ PUSH2 0x17F JUMPI DUP1 PUSH4 0x9C1BA2E EQ PUSH2 0x19D JUMPI DUP1 PUSH4 0xCA76175 EQ PUSH2 0x1BB JUMPI JUMPDEST PUSH1 0x0 DUP1 REVERT JUMPDEST PUSH2 0x139 PUSH2 0x428 JUMP JUMPDEST PUSH1 0x40 MLOAD PUSH2 0x146 SWAP2 SWAP1 PUSH2 0x2C7B JUMP JUMPDEST PUSH1 0x40 MLOAD DUP1 SWAP2 SUB SWAP1 RETURN JUMPDEST PUSH2 0x169 PUSH1 0x4 DUP1 CALLDATASIZE SUB DUP2 ADD SWAP1 PUSH2 0x164 SWAP2 SWAP1 PUSH2 0x2CD6 JUMP JUMPDEST PUSH2 0x42E JUMP JUMPDEST PUSH1 0x40 MLOAD PUSH2 0x176 SWAP2 SWAP1 PUSH2 0x2C7B JUMP JUMPDEST PUSH1 0x40 MLOAD DUP1 SWAP2 SUB SWAP1 RETURN JUMPDEST PUSH2 0x187 PUSH2 0x449 JUMP JUMPDEST PUSH1 0x40 MLOAD PUSH2 0x194 SWAP2 SWAP1 PUSH2 0x2FF3 JUMP JUMPDEST PUSH1 0x40 MLOAD DUP1 SWAP2 SUB SWAP1 RETURN JUMPDEST PUSH2 0x1A5 PUSH2 0x649 JUMP JUMPDEST PUSH1 0x40 MLOAD PUSH2 0x1B2 SWAP2 SWAP1 PUSH2 0x2C7B JUMP JUMPDEST PUSH1 0x40 MLOAD DUP1 SWAP2 SUB SWAP1 RETURN JUMPDEST PUSH2 0x1D5 PUSH1 0x4 DUP1 CALLDATASIZE SUB DUP2 ADD SWAP1 PUSH2 0x1D0 SWAP2 SWAP1 PUSH2 0x3180 JUMP JUMPDEST PUSH2 0x64F JUMP JUMPDEST STOP JUMPDEST PUSH2 0x1F1 PUSH1 0x4 DUP1 CALLDATASIZE SUB DUP2 ADD SWAP1 PUSH2 0x1EC SWAP2 SWAP1 PUSH2 0x3372 JUMP JUMPDEST PUSH2 0x711 JUMP JUMPDEST STOP JUMPDEST PUSH2 0x20D PUSH1 0x4 DUP1 CALLDATASIZE SUB DUP2 ADD SWAP1 PUSH2 0x208 SWAP2 SWAP1 PUSH2 0x2CD6 JUMP JUMPDEST PUSH2 0x914 JUMP JUMPDEST PUSH1 0x40 MLOAD PUSH2 0x21A SWAP2 SWAP1 PUSH2 0x33BA JUMP JUMPDEST PUSH1 0x40 MLOAD DUP1 SWAP2 SUB SWAP1 RETURN JUMPDEST PUSH2 0x22B PUSH2 0x93F JUMP JUMPDEST PUSH1 0x40 MLOAD PUSH2 0x238 SWAP2 SWAP1 PUSH2 0x3454 JUMP JUMPDEST PUSH1 0x40 MLOAD DUP1 SWAP2 SUB SWAP1 RETURN JUMPDEST PUSH2 0x249 PUSH2 0x963 JUMP JUMPDEST PUSH1 0x40 MLOAD PUSH2 0x256 SWAP2 SWAP1 PUSH2 0x34B9 JUMP JUMPDEST PUSH1 0x40 MLOAD DUP1 SWAP2 SUB SWAP1 RETURN JUMPDEST PUSH2 0x267 PUSH2 0x9F1 JUMP JUMPDEST PUSH1 0x40 MLOAD PUSH2 0x274 SWAP2 SWAP1 PUSH2 0x2C7B JUMP JUMPDEST PUSH1 0x40 MLOAD DUP1 SWAP2 SUB SWAP1 RETURN JUMPDEST PUSH2 0x297 PUSH1 0x4 DUP1 CALLDATASIZE SUB DUP2 ADD SWAP1 PUSH2 0x292 SWAP2 SWAP1 PUSH2 0x2CD6 JUMP JUMPDEST PUSH2 0x9F7 JUMP JUMPDEST PUSH1 0x40 MLOAD PUSH2 0x2A5 SWAP3 SWAP2 SWAP1 PUSH2 0x34DB JUMP JUMPDEST PUSH1 0x40 MLOAD DUP1 SWAP2 SUB SWAP1 RETURN JUMPDEST PUSH2 0x2C8 PUSH1 0x4 DUP1 CALLDATASIZE SUB DUP2 ADD SWAP1 PUSH2 0x2C3 SWAP2 SWAP1 PUSH2 0x3550 JUMP JUMPDEST PUSH2 0xB3B JUMP JUMPDEST PUSH1 0x40 MLOAD PUSH2 0x2D6 SWAP3 SWAP2 SWAP1 PUSH2 0x357D JUMP JUMPDEST PUSH1 0x40 MLOAD DUP1 SWAP2 SUB SWAP1 RETURN JUMPDEST PUSH2 0x2E7 PUSH2 0xB6C JUMP JUMPDEST PUSH1 0x40 MLOAD PUSH2 0x2F4 SWAP2 SWAP1 PUSH2 0x2C7B JUMP JUMPDEST PUSH1 0x40 MLOAD DUP1 SWAP2 SUB SWAP1 RETURN JUMPDEST PUSH2 0x317 PUSH1 0x4 DUP1 CALLDATASIZE SUB DUP2 ADD SWAP1 PUSH2 0x312 SWAP2 SWAP1 PUSH2 0x2CD6 JUMP JUMPDEST PUSH2 0xB72 JUMP JUMPDEST PUSH1 0x40 MLOAD PUSH2 0x324 SWAP2 SWAP1 PUSH2 0x33BA JUMP JUMPDEST PUSH1 0x40 MLOAD DUP1 SWAP2 SUB SWAP1 RETURN JUMPDEST PUSH2 0x347 PUSH1 0x4 DUP1 CALLDATASIZE SUB DUP2 ADD SWAP1 PUSH2 0x342 SWAP2 SWAP1 PUSH2 0x2CD6 JUMP JUMPDEST PUSH2 0xB92 JUMP JUMPDEST PUSH1 0x40 MLOAD PUSH2 0x354 SWAP2 SWAP1 PUSH2 0x362A JUMP JUMPDEST PUSH1 0x40 MLOAD DUP1 SWAP2 SUB SWAP1 RETURN JUMPDEST PUSH2 0x377 PUSH1 0x4 DUP1 CALLDATASIZE SUB DUP2 ADD SWAP1 PUSH2 0x372 SWAP2 SWAP1 PUSH2 0x37A7 JUMP JUMPDEST PUSH2 0xC2B JUMP JUMPDEST STOP JUMPDEST PUSH2 0x393 PUSH1 0x4 DUP1 CALLDATASIZE SUB DUP2 ADD SWAP1 PUSH2 0x38E SWAP2 SWAP1 PUSH2 0x3810 JUMP JUMPDEST PUSH2 0x1387 JUMP JUMPDEST PUSH1 0x40 MLOAD PUSH2 0x3A0 SWAP2 SWAP1 PUSH2 0x38B2 JUMP JUMPDEST PUSH1 0x40 MLOAD DUP1 SWAP2 SUB SWAP1 RETURN JUMPDEST PUSH2 0x3C3 PUSH1 0x4 DUP1 CALLDATASIZE SUB DUP2 ADD SWAP1 PUSH2 0x3BE SWAP2 SWAP1 PUSH2 0x38CD JUMP JUMPDEST PUSH2 0x1527 JUMP JUMPDEST PUSH1 0x40 MLOAD PUSH2 0x3D1 SWAP3 SWAP2 SWAP1 PUSH2 0x3934 JUMP JUMPDEST PUSH1 0x40 MLOAD DUP1 SWAP2 SUB SWAP1 RETURN JUMPDEST PUSH2 0x3F4 PUSH1 0x4 DUP1 CALLDATASIZE SUB DUP2 ADD SWAP1 PUSH2 0x3EF SWAP2 SWAP1 PUSH2 0x2CD6 JUMP JUMPDEST PUSH2 0x1890 JUMP JUMPDEST PUSH1 0x40 MLOAD PUSH2 0x401 SWAP2 SWAP1 PUSH2 0x2C7B JUMP JUMPDEST PUSH1 0x40 MLOAD DUP1 SWAP2 SUB SWAP1 RETURN JUMPDEST PUSH2 0x412 PUSH2 0x18B4 JUMP JUMPDEST PUSH1 0x40 MLOAD PUSH2 0x41F SWAP2 SWAP1 PUSH2 0x2C7B JUMP JUMPDEST PUSH1 0x40 MLOAD DUP1 SWAP2 SUB SWAP1 RETURN JUMPDEST PUSH1 0x7 SLOAD DUP2 JUMP JUMPDEST PUSH1 0x5 DUP2 PUSH1 0x2 DUP2 LT PUSH2 0x43E JUMPI PUSH1 0x0 DUP1 REVERT JUMPDEST ADD PUSH1 0x0 SWAP2 POP SWAP1 POP SLOAD DUP2 JUMP JUMPDEST PUSH1 0x60 PUSH1 0x1 DUP1 SLOAD DUP1 PUSH1 0x20 MUL PUSH1 0x20 ADD PUSH1 0x40 MLOAD SWAP1 DUP2 ADD PUSH1 0x40 MSTORE DUP1 SWAP3 SWAP2 SWAP1 DUP2 DUP2 MSTORE PUSH1 0x20 ADD PUSH1 0x0 SWAP1 JUMPDEST DUP3 DUP3 LT ISZERO PUSH2 0x640 JUMPI DUP4 DUP3 SWAP1 PUSH1 0x0 MSTORE PUSH1 0x20 PUSH1 0x0 KECCAK256 SWAP1 PUSH1 0x6 MUL ADD PUSH1 0x40 MLOAD DUP1 PUSH1 0x60 ADD PUSH1 0x40 MSTORE SWAP1 DUP2 PUSH1 0x0 DUP3 ADD DUP1 SLOAD PUSH2 0x4A0 SWAP1 PUSH2 0x398C JUMP JUMPDEST DUP1 PUSH1 0x1F ADD PUSH1 0x20 DUP1 SWAP2 DIV MUL PUSH1 0x20 ADD PUSH1 0x40 MLOAD SWAP1 DUP2 ADD PUSH1 0x40 MSTORE DUP1 SWAP3 SWAP2 SWAP1 DUP2 DUP2 MSTORE PUSH1 0x20 ADD DUP3 DUP1 SLOAD PUSH2 0x4CC SWAP1 PUSH2 0x398C JUMP JUMPDEST DUP1 ISZERO PUSH2 0x519 JUMPI DUP1 PUSH1 0x1F LT PUSH2 0x4EE JUMPI PUSH2 0x100 DUP1 DUP4 SLOAD DIV MUL DUP4 MSTORE SWAP2 PUSH1 0x20 ADD SWAP2 PUSH2 0x519 JUMP JUMPDEST DUP3 ADD SWAP2 SWAP1 PUSH1 0x0 MSTORE PUSH1 0x20 PUSH1 0x0 KECCAK256 SWAP1 JUMPDEST DUP2 SLOAD DUP2 MSTORE SWAP1 PUSH1 0x1 ADD SWAP1 PUSH1 0x20 ADD DUP1 DUP4 GT PUSH2 0x4FC JUMPI DUP3 SWAP1 SUB PUSH1 0x1F AND DUP3 ADD SWAP2 JUMPDEST POP POP POP POP POP DUP2 MSTORE PUSH1 0x20 ADD PUSH1 0x1 DUP3 ADD DUP1 SLOAD PUSH2 0x532 SWAP1 PUSH2 0x398C JUMP JUMPDEST DUP1 PUSH1 0x1F ADD PUSH1 0x20 DUP1 SWAP2 DIV MUL PUSH1 0x20 ADD PUSH1 0x40 MLOAD SWAP1 DUP2 ADD PUSH1 0x40 MSTORE DUP1 SWAP3 SWAP2 SWAP1 DUP2 DUP2 MSTORE PUSH1 0x20 ADD DUP3 DUP1 SLOAD PUSH2 0x55E SWAP1 PUSH2 0x398C JUMP JUMPDEST DUP1 ISZERO PUSH2 0x5AB JUMPI DUP1 PUSH1 0x1F LT PUSH2 0x580 JUMPI PUSH2 0x100 DUP1 DUP4 SLOAD DIV MUL DUP4 MSTORE SWAP2 PUSH1 0x20 ADD SWAP2 PUSH2 0x5AB JUMP JUMPDEST DUP3 ADD SWAP2 SWAP1 PUSH1 0x0 MSTORE PUSH1 0x20 PUSH1 0x0 KECCAK256 SWAP1 JUMPDEST DUP2 SLOAD DUP2 MSTORE SWAP1 PUSH1 0x1 ADD SWAP1 PUSH1 0x20 ADD DUP1 DUP4 GT PUSH2 0x58E JUMPI DUP3 SWAP1 SUB PUSH1 0x1F AND DUP3 ADD SWAP2 JUMPDEST POP POP POP POP POP DUP2 MSTORE PUSH1 0x20 ADD PUSH1 0x2 DUP3 ADD PUSH1 0x2 DUP1 PUSH1 0x20 MUL PUSH1 0x40 MLOAD SWAP1 DUP2 ADD PUSH1 0x40 MSTORE DUP1 SWAP3 SWAP2 SWAP1 PUSH1 0x0 SWAP1 JUMPDEST DUP3 DUP3 LT ISZERO PUSH2 0x629 JUMPI DUP4 DUP3 PUSH1 0x2 MUL ADD PUSH1 0x2 DUP1 PUSH1 0x20 MUL PUSH1 0x40 MLOAD SWAP1 DUP2 ADD PUSH1 0x40 MSTORE DUP1 SWAP3 SWAP2 SWAP1 DUP3 PUSH1 0x2 DUP1 ISZERO PUSH2 0x615 JUMPI PUSH1 0x20 MUL DUP3 ADD SWAP2 JUMPDEST DUP2 SLOAD DUP2 MSTORE PUSH1 0x20 ADD SWAP1 PUSH1 0x1 ADD SWAP1 DUP1 DUP4 GT PUSH2 0x601 JUMPI JUMPDEST POP POP POP POP POP DUP2 MSTORE PUSH1 0x20 ADD SWAP1 PUSH1 0x1 ADD SWAP1 PUSH2 0x5D0 JUMP JUMPDEST POP POP POP POP DUP2 MSTORE POP POP DUP2 MSTORE PUSH1 0x20 ADD SWAP1 PUSH1 0x1 ADD SWAP1 PUSH2 0x46D JUMP JUMPDEST POP POP POP POP SWAP1 POP SWAP1 JUMP JUMPDEST PUSH1 0x9 SLOAD DUP2 JUMP JUMPDEST PUSH32 0x0 PUSH20 0xFFFFFFFFFFFFFFFFFFFFFFFFFFFFFFFFFFFFFFFF AND CALLER PUSH20 0xFFFFFFFFFFFFFFFFFFFFFFFFFFFFFFFFFFFFFFFF AND EQ PUSH2 0x6D4 JUMPI PUSH1 0x40 MLOAD PUSH32 0xC6829F8300000000000000000000000000000000000000000000000000000000 DUP2 MSTORE PUSH1 0x4 ADD PUSH1 0x40 MLOAD DUP1 SWAP2 SUB SWAP1 REVERT JUMPDEST PUSH2 0x6DF DUP4 DUP4 DUP4 PUSH2 0x18BA JUMP JUMPDEST DUP3 PUSH32 0x85E1543BF2F84FE80C6BADBCE3648C8539AD1DF4D2B3D822938CA0538BE727E6 PUSH1 0x40 MLOAD PUSH1 0x40 MLOAD DUP1 SWAP2 SUB SWAP1 LOG2 POP POP POP JUMP JUMPDEST PUSH1 0xE PUSH1 0x0 CALLER PUSH20 0xFFFFFFFFFFFFFFFFFFFFFFFFFFFFFFFFFFFFFFFF AND PUSH20 0xFFFFFFFFFFFFFFFFFFFFFFFFFFFFFFFFFFFFFFFF AND DUP2 MSTORE PUSH1 0x20 ADD SWAP1 DUP2 MSTORE PUSH1 0x20 ADD PUSH1 0x0 KECCAK256 PUSH1 0x1 ADD PUSH1 0x0 SWAP1 SLOAD SWAP1 PUSH2 0x100 EXP SWAP1 DIV PUSH1 0xFF AND PUSH2 0x7A0 JUMPI PUSH1 0x40 MLOAD PUSH32 0x8C379A000000000000000000000000000000000000000000000000000000000 DUP2 MSTORE PUSH1 0x4 ADD PUSH2 0x797 SWAP1 PUSH2 0x3A09 JUMP JUMPDEST PUSH1 0x40 MLOAD DUP1 SWAP2 SUB SWAP1 REVERT JUMPDEST PUSH1 0xF PUSH1 0x0 PUSH1 0xE PUSH1 0x0 CALLER PUSH20 0xFFFFFFFFFFFFFFFFFFFFFFFFFFFFFFFFFFFFFFFF AND PUSH20 0xFFFFFFFFFFFFFFFFFFFFFFFFFFFFFFFFFFFFFFFF AND DUP2 MSTORE PUSH1 0x20 ADD SWAP1 DUP2 MSTORE PUSH1 0x20 ADD PUSH1 0x0 KECCAK256 PUSH1 0x0 ADD SLOAD DUP2 MSTORE PUSH1 0x20 ADD SWAP1 DUP2 MSTORE PUSH1 0x20 ADD PUSH1 0x0 KECCAK256 PUSH1 0x6 ADD PUSH1 0x0 SWAP1 SLOAD SWAP1 PUSH2 0x100 EXP SWAP1 DIV PUSH1 0xFF AND PUSH2 0x825 JUMPI PUSH1 0x1 PUSH1 0x8 PUSH1 0x0 DUP3 DUP3 SLOAD PUSH2 0x81D SWAP2 SWAP1 PUSH2 0x3A58 JUMP JUMPDEST SWAP3 POP POP DUP2 SWAP1 SSTORE POP JUMPDEST DUP1 PUSH1 0xF PUSH1 0x0 PUSH1 0xE PUSH1 0x0 CALLER PUSH20 0xFFFFFFFFFFFFFFFFFFFFFFFFFFFFFFFFFFFFFFFF AND PUSH20 0xFFFFFFFFFFFFFFFFFFFFFFFFFFFFFFFFFFFFFFFF AND DUP2 MSTORE PUSH1 0x20 ADD SWAP1 DUP2 MSTORE PUSH1 0x20 ADD PUSH1 0x0 KECCAK256 PUSH1 0x0 ADD SLOAD DUP2 MSTORE PUSH1 0x20 ADD SWAP1 DUP2 MSTORE PUSH1 0x20 ADD PUSH1 0x0 KECCAK256 PUSH1 0x0 ADD SWAP1 PUSH1 0x3 PUSH2 0x88C SWAP3 SWAP2 SWAP1 PUSH2 0x2A3A JUMP JUMPDEST POP PUSH1 0x1 PUSH1 0xF PUSH1 0x0 PUSH1 0xE PUSH1 0x0 CALLER PUSH20 0xFFFFFFFFFFFFFFFFFFFFFFFFFFFFFFFFFFFFFFFF AND PUSH20 0xFFFFFFFFFFFFFFFFFFFFFFFFFFFFFFFFFFFFFFFF AND DUP2 MSTORE PUSH1 0x20 ADD SWAP1 DUP2 MSTORE PUSH1 0x20 ADD PUSH1 0x0 KECCAK256 PUSH1 0x0 ADD SLOAD DUP2 MSTORE PUSH1 0x20 ADD SWAP1 DUP2 MSTORE PUSH1 0x20 ADD PUSH1 0x0 KECCAK256 PUSH1 0x6 ADD PUSH1 0x0 PUSH2 0x100 EXP DUP2 SLOAD DUP2 PUSH1 0xFF MUL NOT AND SWAP1 DUP4 ISZERO ISZERO MUL OR SWAP1 SSTORE POP PUSH1 0x5 PUSH1 0x8 SLOAD SUB PUSH2 0x911 JUMPI PUSH2 0x910 PUSH2 0x18E9 JUMP JUMPDEST JUMPDEST POP JUMP JUMPDEST PUSH1 0xF PUSH1 0x20 MSTORE DUP1 PUSH1 0x0 MSTORE PUSH1 0x40 PUSH1 0x0 KECCAK256 PUSH1 0x0 SWAP2 POP SWAP1 POP DUP1 PUSH1 0x6 ADD PUSH1 0x0 SWAP1 SLOAD SWAP1 PUSH2 0x100 EXP SWAP1 DIV PUSH1 0xFF AND SWAP1 POP DUP2 JUMP JUMPDEST PUSH1 0x0 DUP1 SLOAD SWAP1 PUSH2 0x100 EXP SWAP1 DIV PUSH20 0xFFFFFFFFFFFFFFFFFFFFFFFFFFFFFFFFFFFFFFFF AND DUP2 JUMP JUMPDEST PUSH1 0xA DUP1 SLOAD PUSH2 0x970 SWAP1 PUSH2 0x398C JUMP JUMPDEST DUP1 PUSH1 0x1F ADD PUSH1 0x20 DUP1 SWAP2 DIV MUL PUSH1 0x20 ADD PUSH1 0x40 MLOAD SWAP1 DUP2 ADD PUSH1 0x40 MSTORE DUP1 SWAP3 SWAP2 SWAP1 DUP2 DUP2 MSTORE PUSH1 0x20 ADD DUP3 DUP1 SLOAD PUSH2 0x99C SWAP1 PUSH2 0x398C JUMP JUMPDEST DUP1 ISZERO PUSH2 0x9E9 JUMPI DUP1 PUSH1 0x1F LT PUSH2 0x9BE JUMPI PUSH2 0x100 DUP1 DUP4 SLOAD DIV MUL DUP4 MSTORE SWAP2 PUSH1 0x20 ADD SWAP2 PUSH2 0x9E9 JUMP JUMPDEST DUP3 ADD SWAP2 SWAP1 PUSH1 0x0 MSTORE PUSH1 0x20 PUSH1 0x0 KECCAK256 SWAP1 JUMPDEST DUP2 SLOAD DUP2 MSTORE SWAP1 PUSH1 0x1 ADD SWAP1 PUSH1 0x20 ADD DUP1 DUP4 GT PUSH2 0x9CC JUMPI DUP3 SWAP1 SUB PUSH1 0x1F AND DUP3 ADD SWAP2 JUMPDEST POP POP POP POP POP DUP2 JUMP JUMPDEST PUSH1 0x8 SLOAD DUP2 JUMP JUMPDEST PUSH1 0x1 DUP2 DUP2 SLOAD DUP2 LT PUSH2 0xA07 JUMPI PUSH1 0x0 DUP1 REVERT JUMPDEST SWAP1 PUSH1 0x0 MSTORE PUSH1 0x20 PUSH1 0x0 KECCAK256 SWAP1 PUSH1 0x6 MUL ADD PUSH1 0x0 SWAP2 POP SWAP1 POP DUP1 PUSH1 0x0 ADD DUP1 SLOAD PUSH2 0xA2A SWAP1 PUSH2 0x398C JUMP JUMPDEST DUP1 PUSH1 0x1F ADD PUSH1 0x20 DUP1 SWAP2 DIV MUL PUSH1 0x20 ADD PUSH1 0x40 MLOAD SWAP1 DUP2 ADD PUSH1 0x40 MSTORE DUP1 SWAP3 SWAP2 SWAP1 DUP2 DUP2 MSTORE PUSH1 0x20 ADD DUP3 DUP1 SLOAD PUSH2 0xA56 SWAP1 PUSH2 0x398C JUMP JUMPDEST DUP1 ISZERO PUSH2 0xAA3 JUMPI DUP1 PUSH1 0x1F LT PUSH2 0xA78 JUMPI PUSH2 0x100 DUP1 DUP4 SLOAD DIV MUL DUP4 MSTORE SWAP2 PUSH1 0x20 ADD SWAP2 PUSH2 0xAA3 JUMP JUMPDEST DUP3 ADD SWAP2 SWAP1 PUSH1 0x0 MSTORE PUSH1 0x20 PUSH1 0x0 KECCAK256 SWAP1 JUMPDEST DUP2 SLOAD DUP2 MSTORE SWAP1 PUSH1 0x1 ADD SWAP1 PUSH1 0x20 ADD DUP1 DUP4 GT PUSH2 0xA86 JUMPI DUP3 SWAP1 SUB PUSH1 0x1F AND DUP3 ADD SWAP2 JUMPDEST POP POP POP POP POP SWAP1 DUP1 PUSH1 0x1 ADD DUP1 SLOAD PUSH2 0xAB8 SWAP1 PUSH2 0x398C JUMP JUMPDEST DUP1 PUSH1 0x1F ADD PUSH1 0x20 DUP1 SWAP2 DIV MUL PUSH1 0x20 ADD PUSH1 0x40 MLOAD SWAP1 DUP2 ADD PUSH1 0x40 MSTORE DUP1 SWAP3 SWAP2 SWAP1 DUP2 DUP2 MSTORE PUSH1 0x20 ADD DUP3 DUP1 SLOAD PUSH2 0xAE4 SWAP1 PUSH2 0x398C JUMP JUMPDEST DUP1 ISZERO PUSH2 0xB31 JUMPI DUP1 PUSH1 0x1F LT PUSH2 0xB06 JUMPI PUSH2 0x100 DUP1 DUP4 SLOAD DIV MUL DUP4 MSTORE SWAP2 PUSH1 0x20 ADD SWAP2 PUSH2 0xB31 JUMP JUMPDEST DUP3 ADD SWAP2 SWAP1 PUSH1 0x0 MSTORE PUSH1 0x20 PUSH1 0x0 KECCAK256 SWAP1 JUMPDEST DUP2 SLOAD DUP2 MSTORE SWAP1 PUSH1 0x1 ADD SWAP1 PUSH1 0x20 ADD DUP1 DUP4 GT PUSH2 0xB14 JUMPI DUP3 SWAP1 SUB PUSH1 0x1F AND DUP3 ADD SWAP2 JUMPDEST POP POP POP POP POP SWAP1 POP DUP3 JUMP JUMPDEST PUSH1 0xE PUSH1 0x20 MSTORE DUP1 PUSH1 0x0 MSTORE PUSH1 0x40 PUSH1 0x0 KECCAK256 PUSH1 0x0 SWAP2 POP SWAP1 POP DUP1 PUSH1 0x0 ADD SLOAD SWAP1 DUP1 PUSH1 0x1 ADD PUSH1 0x0 SWAP1 SLOAD SWAP1 PUSH2 0x100 EXP SWAP1 DIV PUSH1 0xFF AND SWAP1 POP DUP3 JUMP JUMPDEST PUSH1 0x3 SLOAD DUP2 JUMP JUMPDEST PUSH1 0x4 PUSH1 0x20 MSTORE DUP1 PUSH1 0x0 MSTORE PUSH1 0x40 PUSH1 0x0 KECCAK256 PUSH1 0x0 SWAP2 POP SLOAD SWAP1 PUSH2 0x100 EXP SWAP1 DIV PUSH1 0xFF AND DUP2 JUMP JUMPDEST PUSH2 0xB9A PUSH2 0x2A8B JUMP JUMPDEST PUSH1 0xF PUSH1 0x0 DUP4 DUP2 MSTORE PUSH1 0x20 ADD SWAP1 DUP2 MSTORE PUSH1 0x20 ADD PUSH1 0x0 KECCAK256 PUSH1 0x0 ADD PUSH1 0x3 DUP1 PUSH1 0x20 MUL PUSH1 0x40 MLOAD SWAP1 DUP2 ADD PUSH1 0x40 MSTORE DUP1 SWAP3 SWAP2 SWAP1 PUSH1 0x0 SWAP1 JUMPDEST DUP3 DUP3 LT ISZERO PUSH2 0xC20 JUMPI DUP4 DUP3 PUSH1 0x2 MUL ADD PUSH1 0x2 DUP1 PUSH1 0x20 MUL PUSH1 0x40 MLOAD SWAP1 DUP2 ADD PUSH1 0x40 MSTORE DUP1 SWAP3 SWAP2 SWAP1 DUP3 PUSH1 0x2 DUP1 ISZERO PUSH2 0xC0C JUMPI PUSH1 0x20 MUL DUP3 ADD SWAP2 JUMPDEST DUP2 SLOAD DUP2 MSTORE PUSH1 0x20 ADD SWAP1 PUSH1 0x1 ADD SWAP1 DUP1 DUP4 GT PUSH2 0xBF8 JUMPI JUMPDEST POP POP POP POP POP DUP2 MSTORE PUSH1 0x20 ADD SWAP1 PUSH1 0x1 ADD SWAP1 PUSH2 0xBC7 JUMP JUMPDEST POP POP POP POP SWAP1 POP SWAP2 SWAP1 POP JUMP JUMPDEST PUSH1 0x2 SLOAD DUP2 PUSH1 0xE PUSH1 0x11 DUP2 LT PUSH2 0xC42 JUMPI PUSH2 0xC41 PUSH2 0x3A8C JUMP JUMPDEST JUMPDEST PUSH1 0x20 MUL ADD MLOAD EQ PUSH2 0xC87 JUMPI PUSH1 0x40 MLOAD PUSH32 0x8C379A000000000000000000000000000000000000000000000000000000000 DUP2 MSTORE PUSH1 0x4 ADD PUSH2 0xC7E SWAP1 PUSH2 0x3B07 JUMP JUMPDEST PUSH1 0x40 MLOAD DUP1 SWAP2 SUB SWAP1 REVERT JUMPDEST PUSH1 0x3 SLOAD DUP2 PUSH1 0xD PUSH1 0x11 DUP2 LT PUSH2 0xC9E JUMPI PUSH2 0xC9D PUSH2 0x3A8C JUMP JUMPDEST JUMPDEST PUSH1 0x20 MUL ADD MLOAD EQ PUSH2 0xCE3 JUMPI PUSH1 0x40 MLOAD PUSH32 0x8C379A000000000000000000000000000000000000000000000000000000000 DUP2 MSTORE PUSH1 0x4 ADD PUSH2 0xCDA SWAP1 PUSH2 0x3B73 JUMP JUMPDEST PUSH1 0x40 MLOAD DUP1 SWAP2 SUB SWAP1 REVERT JUMPDEST PUSH1 0x5 PUSH1 0x0 PUSH1 0x2 DUP2 LT PUSH2 0xCF8 JUMPI PUSH2 0xCF7 PUSH2 0x3A8C JUMP JUMPDEST JUMPDEST ADD SLOAD DUP2 PUSH1 0xF PUSH1 0x11 DUP2 LT PUSH2 0xD0E JUMPI PUSH2 0xD0D PUSH2 0x3A8C JUMP JUMPDEST JUMPDEST PUSH1 0x20 MUL ADD MLOAD EQ DUP1 ISZERO PUSH2 0xD4D JUMPI POP PUSH1 0x5 PUSH1 0x1 PUSH1 0x2 DUP2 LT PUSH2 0xD30 JUMPI PUSH2 0xD2F PUSH2 0x3A8C JUMP JUMPDEST JUMPDEST ADD SLOAD DUP2 PUSH1 0x10 PUSH1 0x11 DUP2 LT PUSH2 0xD46 JUMPI PUSH2 0xD45 PUSH2 0x3A8C JUMP JUMPDEST JUMPDEST PUSH1 0x20 MUL ADD MLOAD EQ JUMPDEST PUSH2 0xD8C JUMPI PUSH1 0x40 MLOAD PUSH32 0x8C379A000000000000000000000000000000000000000000000000000000000 DUP2 MSTORE PUSH1 0x4 ADD PUSH2 0xD83 SWAP1 PUSH2 0x3BDF JUMP JUMPDEST PUSH1 0x40 MLOAD DUP1 SWAP2 SUB SWAP1 REVERT JUMPDEST PUSH1 0x4 PUSH1 0x0 DUP3 PUSH1 0x0 PUSH1 0x11 DUP2 LT PUSH2 0xDA4 JUMPI PUSH2 0xDA3 PUSH2 0x3A8C JUMP JUMPDEST JUMPDEST PUSH1 0x20 MUL ADD MLOAD DUP2 MSTORE PUSH1 0x20 ADD SWAP1 DUP2 MSTORE PUSH1 0x20 ADD PUSH1 0x0 KECCAK256 PUSH1 0x0 SWAP1 SLOAD SWAP1 PUSH2 0x100 EXP SWAP1 DIV PUSH1 0xFF AND ISZERO PUSH2 0xE05 JUMPI PUSH1 0x40 MLOAD PUSH32 0x8C379A000000000000000000000000000000000000000000000000000000000 DUP2 MSTORE PUSH1 0x4 ADD PUSH2 0xDFC SWAP1 PUSH2 0x3C4B JUMP JUMPDEST PUSH1 0x40 MLOAD DUP1 SWAP2 SUB SWAP1 REVERT JUMPDEST PUSH1 0x0 DUP1 SLOAD SWAP1 PUSH2 0x100 EXP SWAP1 DIV PUSH20 0xFFFFFFFFFFFFFFFFFFFFFFFFFFFFFFFFFFFFFFFF AND PUSH20 0xFFFFFFFFFFFFFFFFFFFFFFFFFFFFFFFFFFFFFFFF AND PUSH4 0xC1940A36 DUP6 DUP6 DUP6 DUP6 PUSH1 0x40 MLOAD DUP6 PUSH4 0xFFFFFFFF AND PUSH1 0xE0 SHL DUP2 MSTORE PUSH1 0x4 ADD PUSH2 0xE64 SWAP5 SWAP4 SWAP3 SWAP2 SWAP1 PUSH2 0x3D51 JUMP JUMPDEST PUSH1 0x20 PUSH1 0x40 MLOAD DUP1 DUP4 SUB DUP2 DUP7 GAS STATICCALL ISZERO DUP1 ISZERO PUSH2 0xE81 JUMPI RETURNDATASIZE PUSH1 0x0 DUP1 RETURNDATACOPY RETURNDATASIZE PUSH1 0x0 REVERT JUMPDEST POP POP POP POP PUSH1 0x40 MLOAD RETURNDATASIZE PUSH1 0x1F NOT PUSH1 0x1F DUP3 ADD AND DUP3 ADD DUP1 PUSH1 0x40 MSTORE POP DUP2 ADD SWAP1 PUSH2 0xEA5 SWAP2 SWAP1 PUSH2 0x3DC4 JUMP JUMPDEST PUSH2 0xEE4 JUMPI PUSH1 0x40 MLOAD PUSH32 0x8C379A000000000000000000000000000000000000000000000000000000000 DUP2 MSTORE PUSH1 0x4 ADD PUSH2 0xEDB SWAP1 PUSH2 0x3E3D JUMP JUMPDEST PUSH1 0x40 MLOAD DUP1 SWAP2 SUB SWAP1 REVERT JUMPDEST PUSH1 0x1 PUSH1 0x4 PUSH1 0x0 DUP4 PUSH1 0x0 PUSH1 0x11 DUP2 LT PUSH2 0xEFE JUMPI PUSH2 0xEFD PUSH2 0x3A8C JUMP JUMPDEST JUMPDEST PUSH1 0x20 MUL ADD MLOAD DUP2 MSTORE PUSH1 0x20 ADD SWAP1 DUP2 MSTORE PUSH1 0x20 ADD PUSH1 0x0 KECCAK256 PUSH1 0x0 PUSH2 0x100 EXP DUP2 SLOAD DUP2 PUSH1 0xFF MUL NOT AND SWAP1 DUP4 ISZERO ISZERO MUL OR SWAP1 SSTORE POP PUSH1 0x0 JUMPDEST PUSH1 0x1 DUP1 SLOAD SWAP1 POP DUP2 LT ISZERO PUSH2 0x12BE JUMPI PUSH2 0x1041 DUP3 PUSH1 0x1 PUSH1 0x2 DUP5 PUSH2 0xF4B SWAP2 SWAP1 PUSH2 0x3E5D JUMP JUMPDEST PUSH2 0xF55 SWAP2 SWAP1 PUSH2 0x3A58 JUMP JUMPDEST PUSH1 0x11 DUP2 LT PUSH2 0xF66 JUMPI PUSH2 0xF65 PUSH2 0x3A8C JUMP JUMPDEST JUMPDEST PUSH1 0x20 MUL ADD MLOAD DUP4 PUSH1 0x2 DUP1 DUP6 PUSH2 0xF7A SWAP2 SWAP1 PUSH2 0x3E5D JUMP JUMPDEST PUSH2 0xF84 SWAP2 SWAP1 PUSH2 0x3A58 JUMP JUMPDEST PUSH1 0x11 DUP2 LT PUSH2 0xF95 JUMPI PUSH2 0xF94 PUSH2 0x3A8C JUMP JUMPDEST JUMPDEST PUSH1 0x20 MUL ADD MLOAD PUSH1 0x1 DUP5 DUP2 SLOAD DUP2 LT PUSH2 0xFAE JUMPI PUSH2 0xFAD PUSH2 0x3A8C JUMP JUMPDEST JUMPDEST SWAP1 PUSH1 0x0 MSTORE PUSH1 0x20 PUSH1 0x0 KECCAK256 SWAP1 PUSH1 0x6 MUL ADD PUSH1 0x2 ADD PUSH1 0x0 PUSH1 0x2 DUP2 LT PUSH2 0xFD2 JUMPI PUSH2 0xFD1 PUSH2 0x3A8C JUMP JUMPDEST JUMPDEST PUSH1 0x2 MUL ADD PUSH1 0x0 PUSH1 0x2 DUP2 LT PUSH2 0xFE9 JUMPI PUSH2 0xFE8 PUSH2 0x3A8C JUMP JUMPDEST JUMPDEST ADD SLOAD PUSH1 0x1 DUP6 DUP2 SLOAD DUP2 LT PUSH2 0xFFF JUMPI PUSH2 0xFFE PUSH2 0x3A8C JUMP JUMPDEST JUMPDEST SWAP1 PUSH1 0x0 MSTORE PUSH1 0x20 PUSH1 0x0 KECCAK256 SWAP1 PUSH1 0x6 MUL ADD PUSH1 0x2 ADD PUSH1 0x0 PUSH1 0x2 DUP2 LT PUSH2 0x1023 JUMPI PUSH2 0x1022 PUSH2 0x3A8C JUMP JUMPDEST JUMPDEST PUSH1 0x2 MUL ADD PUSH1 0x1 PUSH1 0x2 DUP2 LT PUSH2 0x103A JUMPI PUSH2 0x1039 PUSH2 0x3A8C JUMP JUMPDEST JUMPDEST ADD SLOAD PUSH2 0x1527 JUMP JUMPDEST PUSH1 0x1 DUP4 DUP2 SLOAD DUP2 LT PUSH2 0x1055 JUMPI PUSH2 0x1054 PUSH2 0x3A8C JUMP JUMPDEST JUMPDEST SWAP1 PUSH1 0x0 MSTORE PUSH1 0x20 PUSH1 0x0 KECCAK256 SWAP1 PUSH1 0x6 MUL ADD PUSH1 0x2 ADD PUSH1 0x0 PUSH1 0x2 DUP2 LT PUSH2 0x1079 JUMPI PUSH2 0x1078 PUSH2 0x3A8C JUMP JUMPDEST JUMPDEST PUSH1 0x2 MUL ADD PUSH1 0x0 PUSH1 0x2 DUP2 LT PUSH2 0x1090 JUMPI PUSH2 0x108F PUSH2 0x3A8C JUMP JUMPDEST JUMPDEST ADD PUSH1 0x0 PUSH1 0x1 DUP6 DUP2 SLOAD DUP2 LT PUSH2 0x10A7 JUMPI PUSH2 0x10A6 PUSH2 0x3A8C JUMP JUMPDEST JUMPDEST SWAP1 PUSH1 0x0 MSTORE PUSH1 0x20 PUSH1 0x0 KECCAK256 SWAP1 PUSH1 0x6 MUL ADD PUSH1 0x2 ADD PUSH1 0x0 PUSH1 0x2 DUP2 LT PUSH2 0x10CB JUMPI PUSH2 0x10CA PUSH2 0x3A8C JUMP JUMPDEST JUMPDEST PUSH1 0x2 MUL ADD PUSH1 0x1 PUSH1 0x2 DUP2 LT PUSH2 0x10E2 JUMPI PUSH2 0x10E1 PUSH2 0x3A8C JUMP JUMPDEST JUMPDEST ADD PUSH1 0x0 DUP5 SWAP2 SWAP1 POP SSTORE DUP4 SWAP2 SWAP1 POP SSTORE POP POP PUSH2 0x11FB DUP3 PUSH1 0x7 PUSH1 0x2 DUP5 PUSH2 0x1104 SWAP2 SWAP1 PUSH2 0x3E5D JUMP JUMPDEST PUSH2 0x110E SWAP2 SWAP1 PUSH2 0x3A58 JUMP JUMPDEST PUSH1 0x11 DUP2 LT PUSH2 0x111F JUMPI PUSH2 0x111E PUSH2 0x3A8C JUMP JUMPDEST JUMPDEST PUSH1 0x20 MUL ADD MLOAD DUP4 PUSH1 0x8 PUSH1 0x2 DUP6 PUSH2 0x1134 SWAP2 SWAP1 PUSH2 0x3E5D JUMP JUMPDEST PUSH2 0x113E SWAP2 SWAP1 PUSH2 0x3A58 JUMP JUMPDEST PUSH1 0x11 DUP2 LT PUSH2 0x114F JUMPI PUSH2 0x114E PUSH2 0x3A8C JUMP JUMPDEST JUMPDEST PUSH1 0x20 MUL ADD MLOAD PUSH1 0x1 DUP5 DUP2 SLOAD DUP2 LT PUSH2 0x1168 JUMPI PUSH2 0x1167 PUSH2 0x3A8C JUMP JUMPDEST JUMPDEST SWAP1 PUSH1 0x0 MSTORE PUSH1 0x20 PUSH1 0x0 KECCAK256 SWAP1 PUSH1 0x6 MUL ADD PUSH1 0x2 ADD PUSH1 0x1 PUSH1 0x2 DUP2 LT PUSH2 0x118C JUMPI PUSH2 0x118B PUSH2 0x3A8C JUMP JUMPDEST JUMPDEST PUSH1 0x2 MUL ADD PUSH1 0x0 PUSH1 0x2 DUP2 LT PUSH2 0x11A3 JUMPI PUSH2 0x11A2 PUSH2 0x3A8C JUMP JUMPDEST JUMPDEST ADD SLOAD PUSH1 0x1 DUP6 DUP2 SLOAD DUP2 LT PUSH2 0x11B9 JUMPI PUSH2 0x11B8 PUSH2 0x3A8C JUMP JUMPDEST JUMPDEST SWAP1 PUSH1 0x0 MSTORE PUSH1 0x20 PUSH1 0x0 KECCAK256 SWAP1 PUSH1 0x6 MUL ADD PUSH1 0x2 ADD PUSH1 0x1 PUSH1 0x2 DUP2 LT PUSH2 0x11DD JUMPI PUSH2 0x11DC PUSH2 0x3A8C JUMP JUMPDEST JUMPDEST PUSH1 0x2 MUL ADD PUSH1 0x1 PUSH1 0x2 DUP2 LT PUSH2 0x11F4 JUMPI PUSH2 0x11F3 PUSH2 0x3A8C JUMP JUMPDEST JUMPDEST ADD SLOAD PUSH2 0x1527 JUMP JUMPDEST PUSH1 0x1 DUP4 DUP2 SLOAD DUP2 LT PUSH2 0x120F JUMPI PUSH2 0x120E PUSH2 0x3A8C JUMP JUMPDEST JUMPDEST SWAP1 PUSH1 0x0 MSTORE PUSH1 0x20 PUSH1 0x0 KECCAK256 SWAP1 PUSH1 0x6 MUL ADD PUSH1 0x2 ADD PUSH1 0x1 PUSH1 0x2 DUP2 LT PUSH2 0x1233 JUMPI PUSH2 0x1232 PUSH2 0x3A8C JUMP JUMPDEST JUMPDEST PUSH1 0x2 MUL ADD PUSH1 0x0 PUSH1 0x2 DUP2 LT PUSH2 0x124A JUMPI PUSH2 0x1249 PUSH2 0x3A8C JUMP JUMPDEST JUMPDEST ADD PUSH1 0x0 PUSH1 0x1 DUP6 DUP2 SLOAD DUP2 LT PUSH2 0x1261 JUMPI PUSH2 0x1260 PUSH2 0x3A8C JUMP JUMPDEST JUMPDEST SWAP1 PUSH1 0x0 MSTORE PUSH1 0x20 PUSH1 0x0 KECCAK256 SWAP1 PUSH1 0x6 MUL ADD PUSH1 0x2 ADD PUSH1 0x1 PUSH1 0x2 DUP2 LT PUSH2 0x1285 JUMPI PUSH2 0x1284 PUSH2 0x3A8C JUMP JUMPDEST JUMPDEST PUSH1 0x2 MUL ADD PUSH1 0x1 PUSH1 0x2 DUP2 LT PUSH2 0x129C JUMPI PUSH2 0x129B PUSH2 0x3A8C JUMP JUMPDEST JUMPDEST ADD PUSH1 0x0 DUP5 SWAP2 SWAP1 POP SSTORE DUP4 SWAP2 SWAP1 POP SSTORE POP POP DUP1 DUP1 PUSH2 0x12B6 SWAP1 PUSH2 0x3E9F JUMP JUMPDEST SWAP2 POP POP PUSH2 0xF2B JUMP JUMPDEST POP DUP1 PUSH1 0x0 PUSH1 0x11 DUP2 LT PUSH2 0x12D3 JUMPI PUSH2 0x12D2 PUSH2 0x3A8C JUMP JUMPDEST JUMPDEST PUSH1 0x20 MUL ADD MLOAD PUSH32 0x501740464B64C9C9E79C952B9302AF63C9497D782A97C96435879DEC06500E26 PUSH1 0x1 PUSH1 0x0 DUP2 SLOAD DUP2 LT PUSH2 0x130E JUMPI PUSH2 0x130D PUSH2 0x3A8C JUMP JUMPDEST JUMPDEST SWAP1 PUSH1 0x0 MSTORE PUSH1 0x20 PUSH1 0x0 KECCAK256 SWAP1 PUSH1 0x6 MUL ADD PUSH1 0x2 ADD PUSH1 0x1 DUP1 DUP2 SLOAD DUP2 LT PUSH2 0x1333 JUMPI PUSH2 0x1332 PUSH2 0x3A8C JUMP JUMPDEST JUMPDEST SWAP1 PUSH1 0x0 MSTORE PUSH1 0x20 PUSH1 0x0 KECCAK256 SWAP1 PUSH1 0x6 MUL ADD PUSH1 0x2 ADD PUSH1 0x1 PUSH1 0x2 DUP2 SLOAD DUP2 LT PUSH2 0x1359 JUMPI PUSH2 0x1358 PUSH2 0x3A8C JUMP JUMPDEST JUMPDEST SWAP1 PUSH1 0x0 MSTORE PUSH1 0x20 PUSH1 0x0 KECCAK256 SWAP1 PUSH1 0x6 MUL ADD PUSH1 0x2 ADD PUSH1 0x40 MLOAD PUSH2 0x1379 SWAP4 SWAP3 SWAP2 SWAP1 PUSH2 0x403B JUMP JUMPDEST PUSH1 0x40 MLOAD DUP1 SWAP2 SUB SWAP1 LOG2 POP POP POP POP JUMP JUMPDEST PUSH2 0x138F PUSH2 0x2AB8 JUMP JUMPDEST PUSH1 0x0 PUSH1 0x40 MLOAD DUP1 PUSH1 0x40 ADD PUSH1 0x40 MSTORE DUP1 PUSH1 0x0 DUP2 MSTORE PUSH1 0x20 ADD PUSH1 0x1 DUP2 MSTORE POP SWAP1 POP PUSH1 0x0 DUP4 SWAP1 POP JUMPDEST PUSH1 0x0 DUP6 GT ISZERO PUSH2 0x151C JUMPI PUSH1 0x1 DUP1 DUP7 AND SUB PUSH2 0x146A JUMPI PUSH2 0x142F DUP3 PUSH1 0x0 PUSH1 0x2 DUP2 LT PUSH2 0x13DA JUMPI PUSH2 0x13D9 PUSH2 0x3A8C JUMP JUMPDEST JUMPDEST PUSH1 0x20 MUL ADD MLOAD DUP4 PUSH1 0x1 PUSH1 0x2 DUP2 LT PUSH2 0x13F3 JUMPI PUSH2 0x13F2 PUSH2 0x3A8C JUMP JUMPDEST JUMPDEST PUSH1 0x20 MUL ADD MLOAD DUP4 PUSH1 0x0 PUSH1 0x2 DUP2 LT PUSH2 0x140C JUMPI PUSH2 0x140B PUSH2 0x3A8C JUMP JUMPDEST JUMPDEST PUSH1 0x20 MUL ADD MLOAD DUP5 PUSH1 0x1 PUSH1 0x2 DUP2 LT PUSH2 0x1425 JUMPI PUSH2 0x1424 PUSH2 0x3A8C JUMP JUMPDEST JUMPDEST PUSH1 0x20 MUL ADD MLOAD PUSH2 0x1527 JUMP JUMPDEST DUP4 PUSH1 0x0 PUSH1 0x2 DUP2 LT PUSH2 0x1443 JUMPI PUSH2 0x1442 PUSH2 0x3A8C JUMP JUMPDEST JUMPDEST PUSH1 0x20 MUL ADD DUP5 PUSH1 0x1 PUSH1 0x2 DUP2 LT PUSH2 0x145B JUMPI PUSH2 0x145A PUSH2 0x3A8C JUMP JUMPDEST JUMPDEST PUSH1 0x20 MUL ADD DUP3 DUP2 MSTORE POP DUP3 DUP2 MSTORE POP POP POP JUMPDEST PUSH2 0x14D6 DUP2 PUSH1 0x0 PUSH1 0x2 DUP2 LT PUSH2 0x1481 JUMPI PUSH2 0x1480 PUSH2 0x3A8C JUMP JUMPDEST JUMPDEST PUSH1 0x20 MUL ADD MLOAD DUP3 PUSH1 0x1 PUSH1 0x2 DUP2 LT PUSH2 0x149A JUMPI PUSH2 0x1499 PUSH2 0x3A8C JUMP JUMPDEST JUMPDEST PUSH1 0x20 MUL ADD MLOAD DUP4 PUSH1 0x0 PUSH1 0x2 DUP2 LT PUSH2 0x14B3 JUMPI PUSH2 0x14B2 PUSH2 0x3A8C JUMP JUMPDEST JUMPDEST PUSH1 0x20 MUL ADD MLOAD DUP5 PUSH1 0x1 PUSH1 0x2 DUP2 LT PUSH2 0x14CC JUMPI PUSH2 0x14CB PUSH2 0x3A8C JUMP JUMPDEST JUMPDEST PUSH1 0x20 MUL ADD MLOAD PUSH2 0x1527 JUMP JUMPDEST DUP3 PUSH1 0x0 PUSH1 0x2 DUP2 LT PUSH2 0x14EA JUMPI PUSH2 0x14E9 PUSH2 0x3A8C JUMP JUMPDEST JUMPDEST PUSH1 0x20 MUL ADD DUP4 PUSH1 0x1 PUSH1 0x2 DUP2 LT PUSH2 0x1502 JUMPI PUSH2 0x1501 PUSH2 0x3A8C JUMP JUMPDEST JUMPDEST PUSH1 0x20 MUL ADD DUP3 DUP2 MSTORE POP DUP3 DUP2 MSTORE POP POP POP PUSH1 0x1 DUP6 SWAP1 SHR SWAP5 POP PUSH2 0x13B0 JUMP JUMPDEST DUP2 SWAP3 POP POP POP SWAP3 SWAP2 POP POP JUMP JUMPDEST PUSH1 0x0 DUP1 PUSH1 0x0 PUSH32 0x30644E72E131A029B85045B68181585D2833E84879B9709143E1F593F0000001 DUP1 PUSH2 0x155B JUMPI PUSH2 0x155A PUSH2 0x4074 JUMP JUMPDEST JUMPDEST DUP6 DUP9 MULMOD SWAP1 POP PUSH1 0x0 PUSH32 0x30644E72E131A029B85045B68181585D2833E84879B9709143E1F593F0000001 DUP1 PUSH2 0x1591 JUMPI PUSH2 0x1590 PUSH2 0x4074 JUMP JUMPDEST JUMPDEST DUP6 DUP9 MULMOD SWAP1 POP PUSH1 0x0 PUSH32 0x30644E72E131A029B85045B68181585D2833E84879B9709143E1F593F0000001 DUP1 PUSH2 0x15C7 JUMPI PUSH2 0x15C6 PUSH2 0x4074 JUMP JUMPDEST JUMPDEST PUSH32 0x30644E72E131A029B85045B68181585D2833E84879B9709143E1F593F0000001 DUP1 PUSH2 0x15F6 JUMPI PUSH2 0x15F5 PUSH2 0x4074 JUMP JUMPDEST JUMPDEST DUP4 DUP6 MULMOD PUSH3 0x292F8 MULMOD SWAP1 POP PUSH1 0x0 PUSH32 0x30644E72E131A029B85045B68181585D2833E84879B9709143E1F593F0000001 DUP1 PUSH2 0x1631 JUMPI PUSH2 0x1630 PUSH2 0x4074 JUMP JUMPDEST JUMPDEST PUSH32 0x30644E72E131A029B85045B68181585D2833E84879B9709143E1F593F0000001 DUP1 PUSH2 0x1660 JUMPI PUSH2 0x165F PUSH2 0x4074 JUMP JUMPDEST JUMPDEST DUP10 DUP12 MULMOD PUSH32 0x30644E72E131A029B85045B68181585D2833E84879B9709143E1F593F0000001 DUP1 PUSH2 0x1692 JUMPI PUSH2 0x1691 PUSH2 0x4074 JUMP JUMPDEST JUMPDEST DUP10 DUP14 MULMOD ADDMOD SWAP1 POP PUSH1 0x0 PUSH32 0x30644E72E131A029B85045B68181585D2833E84879B9709143E1F593F0000001 DUP1 PUSH2 0x16C9 JUMPI PUSH2 0x16C8 PUSH2 0x4074 JUMP JUMPDEST JUMPDEST PUSH32 0x30644E72E131A029B85045B68181585D2833E84879B9709143E1F593F0000001 DUP1 PUSH2 0x16F8 JUMPI PUSH2 0x16F7 PUSH2 0x4074 JUMP JUMPDEST JUMPDEST DUP7 PUSH3 0x292FC MULMOD PUSH32 0x30644E72E131A029B85045B68181585D2833E84879B9709143E1F593F0000001 PUSH2 0x1729 SWAP2 SWAP1 PUSH2 0x40A3 JUMP JUMPDEST DUP6 ADDMOD SWAP1 POP PUSH1 0x0 PUSH2 0x178B PUSH32 0x30644E72E131A029B85045B68181585D2833E84879B9709143E1F593F0000001 DUP1 PUSH2 0x1761 JUMPI PUSH2 0x1760 PUSH2 0x4074 JUMP JUMPDEST JUMPDEST DUP6 PUSH1 0x1 ADDMOD PUSH32 0x30644E72E131A029B85045B68181585D2833E84879B9709143E1F593F0000001 PUSH2 0x1CCE JUMP JUMPDEST SWAP1 POP PUSH1 0x0 PUSH2 0x1816 PUSH32 0x30644E72E131A029B85045B68181585D2833E84879B9709143E1F593F0000001 DUP1 PUSH2 0x17C1 JUMPI PUSH2 0x17C0 PUSH2 0x4074 JUMP JUMPDEST JUMPDEST DUP7 PUSH32 0x30644E72E131A029B85045B68181585D2833E84879B9709143E1F593F0000001 PUSH2 0x17ED SWAP2 SWAP1 PUSH2 0x40A3 JUMP JUMPDEST PUSH1 0x1 ADDMOD PUSH32 0x30644E72E131A029B85045B68181585D2833E84879B9709143E1F593F0000001 PUSH2 0x1CCE JUMP JUMPDEST SWAP1 POP PUSH32 0x30644E72E131A029B85045B68181585D2833E84879B9709143E1F593F0000001 DUP1 PUSH2 0x1847 JUMPI PUSH2 0x1846 PUSH2 0x4074 JUMP JUMPDEST JUMPDEST DUP3 DUP6 MULMOD SWAP9 POP PUSH32 0x30644E72E131A029B85045B68181585D2833E84879B9709143E1F593F0000001 DUP1 PUSH2 0x187B JUMPI PUSH2 0x187A PUSH2 0x4074 JUMP JUMPDEST JUMPDEST DUP2 DUP5 MULMOD SWAP8 POP POP POP POP POP POP POP POP SWAP5 POP SWAP5 SWAP3 POP POP POP JUMP JUMPDEST PUSH1 0xB DUP2 DUP2 SLOAD DUP2 LT PUSH2 0x18A0 JUMPI PUSH1 0x0 DUP1 REVERT JUMPDEST SWAP1 PUSH1 0x0 MSTORE PUSH1 0x20 PUSH1 0x0 KECCAK256 ADD PUSH1 0x0 SWAP2 POP SWAP1 POP SLOAD DUP2 JUMP JUMPDEST PUSH1 0x2 SLOAD DUP2 JUMP JUMPDEST DUP2 DUP1 PUSH1 0x20 ADD SWAP1 MLOAD DUP2 ADD SWAP1 PUSH2 0x18CE SWAP2 SWAP1 PUSH2 0x41AF JUMP JUMPDEST PUSH1 0xB SWAP1 DUP1 MLOAD SWAP1 PUSH1 0x20 ADD SWAP1 PUSH2 0x18E3 SWAP3 SWAP2 SWAP1 PUSH2 0x2ADA JUMP JUMPDEST POP POP POP POP JUMP JUMPDEST PUSH2 0x18F1 PUSH2 0x2B27 JUMP JUMPDEST PUSH2 0x198E PUSH1 0xA DUP1 SLOAD PUSH2 0x1901 SWAP1 PUSH2 0x398C JUMP JUMPDEST DUP1 PUSH1 0x1F ADD PUSH1 0x20 DUP1 SWAP2 DIV MUL PUSH1 0x20 ADD PUSH1 0x40 MLOAD SWAP1 DUP2 ADD PUSH1 0x40 MSTORE DUP1 SWAP3 SWAP2 SWAP1 DUP2 DUP2 MSTORE PUSH1 0x20 ADD DUP3 DUP1 SLOAD PUSH2 0x192D SWAP1 PUSH2 0x398C JUMP JUMPDEST DUP1 ISZERO PUSH2 0x197A JUMPI DUP1 PUSH1 0x1F LT PUSH2 0x194F JUMPI PUSH2 0x100 DUP1 DUP4 SLOAD DIV MUL DUP4 MSTORE SWAP2 PUSH1 0x20 ADD SWAP2 PUSH2 0x197A JUMP JUMPDEST DUP3 ADD SWAP2 SWAP1 PUSH1 0x0 MSTORE PUSH1 0x20 PUSH1 0x0 KECCAK256 SWAP1 JUMPDEST DUP2 SLOAD DUP2 MSTORE SWAP1 PUSH1 0x1 ADD SWAP1 PUSH1 0x20 ADD DUP1 DUP4 GT PUSH2 0x195D JUMPI DUP3 SWAP1 SUB PUSH1 0x1F AND DUP3 ADD SWAP2 JUMPDEST POP POP POP POP POP DUP3 PUSH2 0x1CEF SWAP1 SWAP2 SWAP1 PUSH4 0xFFFFFFFF AND JUMP JUMPDEST PUSH1 0x0 PUSH1 0x24 PUSH8 0xFFFFFFFFFFFFFFFF DUP2 GT ISZERO PUSH2 0x19AB JUMPI PUSH2 0x19AA PUSH2 0x3055 JUMP JUMPDEST JUMPDEST PUSH1 0x40 MLOAD SWAP1 DUP1 DUP3 MSTORE DUP1 PUSH1 0x20 MUL PUSH1 0x20 ADD DUP3 ADD PUSH1 0x40 MSTORE DUP1 ISZERO PUSH2 0x19DE JUMPI DUP2 PUSH1 0x20 ADD JUMPDEST PUSH1 0x60 DUP2 MSTORE PUSH1 0x20 ADD SWAP1 PUSH1 0x1 SWAP1 SUB SWAP1 DUP2 PUSH2 0x19C9 JUMPI SWAP1 POP JUMPDEST POP SWAP1 POP PUSH1 0x0 JUMPDEST PUSH1 0x1 DUP1 SLOAD SWAP1 POP DUP2 LT ISZERO PUSH2 0x1B16 JUMPI PUSH2 0x1A4A PUSH1 0x1 DUP3 DUP2 SLOAD DUP2 LT PUSH2 0x1A08 JUMPI PUSH2 0x1A07 PUSH2 0x3A8C JUMP JUMPDEST JUMPDEST SWAP1 PUSH1 0x0 MSTORE PUSH1 0x20 PUSH1 0x0 KECCAK256 SWAP1 PUSH1 0x6 MUL ADD PUSH1 0x2 ADD PUSH1 0x1 PUSH1 0x2 DUP2 LT PUSH2 0x1A2C JUMPI PUSH2 0x1A2B PUSH2 0x3A8C JUMP JUMPDEST JUMPDEST PUSH1 0x2 MUL ADD PUSH1 0x0 PUSH1 0x2 DUP2 LT PUSH2 0x1A43 JUMPI PUSH2 0x1A42 PUSH2 0x3A8C JUMP JUMPDEST JUMPDEST ADD SLOAD PUSH2 0x1D00 JUMP JUMPDEST DUP3 PUSH1 0x2 DUP4 PUSH2 0x1A58 SWAP2 SWAP1 PUSH2 0x3E5D JUMP JUMPDEST DUP2 MLOAD DUP2 LT PUSH2 0x1A69 JUMPI PUSH2 0x1A68 PUSH2 0x3A8C JUMP JUMPDEST JUMPDEST PUSH1 0x20 MUL PUSH1 0x20 ADD ADD DUP2 SWAP1 MSTORE POP PUSH2 0x1ACD PUSH1 0x1 DUP3 DUP2 SLOAD DUP2 LT PUSH2 0x1A8B JUMPI PUSH2 0x1A8A PUSH2 0x3A8C JUMP JUMPDEST JUMPDEST SWAP1 PUSH1 0x0 MSTORE PUSH1 0x20 PUSH1 0x0 KECCAK256 SWAP1 PUSH1 0x6 MUL ADD PUSH1 0x2 ADD PUSH1 0x1 PUSH1 0x2 DUP2 LT PUSH2 0x1AAF JUMPI PUSH2 0x1AAE PUSH2 0x3A8C JUMP JUMPDEST JUMPDEST PUSH1 0x2 MUL ADD PUSH1 0x1 PUSH1 0x2 DUP2 LT PUSH2 0x1AC6 JUMPI PUSH2 0x1AC5 PUSH2 0x3A8C JUMP JUMPDEST JUMPDEST ADD SLOAD PUSH2 0x1D00 JUMP JUMPDEST DUP3 PUSH1 0x1 PUSH1 0x2 DUP5 PUSH2 0x1ADD SWAP2 SWAP1 PUSH2 0x3E5D JUMP JUMPDEST PUSH2 0x1AE7 SWAP2 SWAP1 PUSH2 0x3A58 JUMP JUMPDEST DUP2 MLOAD DUP2 LT PUSH2 0x1AF8 JUMPI PUSH2 0x1AF7 PUSH2 0x3A8C JUMP JUMPDEST JUMPDEST PUSH1 0x20 MUL PUSH1 0x20 ADD ADD DUP2 SWAP1 MSTORE POP DUP1 DUP1 PUSH2 0x1B0E SWAP1 PUSH2 0x3E9F JUMP JUMPDEST SWAP2 POP POP PUSH2 0x19E4 JUMP JUMPDEST POP PUSH1 0x0 JUMPDEST PUSH1 0x5 DUP2 LT ISZERO PUSH2 0x1C9A JUMPI PUSH1 0x0 JUMPDEST PUSH1 0x3 DUP2 LT ISZERO PUSH2 0x1C86 JUMPI PUSH2 0x1B84 PUSH1 0xF PUSH1 0x0 PUSH1 0x1 DUP6 PUSH2 0x1B43 SWAP2 SWAP1 PUSH2 0x3A58 JUMP JUMPDEST DUP2 MSTORE PUSH1 0x20 ADD SWAP1 DUP2 MSTORE PUSH1 0x20 ADD PUSH1 0x0 KECCAK256 PUSH1 0x0 ADD DUP3 PUSH1 0x3 DUP2 LT PUSH2 0x1B66 JUMPI PUSH2 0x1B65 PUSH2 0x3A8C JUMP JUMPDEST JUMPDEST PUSH1 0x2 MUL ADD PUSH1 0x0 PUSH1 0x2 DUP2 LT PUSH2 0x1B7D JUMPI PUSH2 0x1B7C PUSH2 0x3A8C JUMP JUMPDEST JUMPDEST ADD SLOAD PUSH2 0x1D00 JUMP JUMPDEST DUP4 PUSH1 0x6 DUP4 PUSH1 0x2 PUSH2 0x1B94 SWAP2 SWAP1 PUSH2 0x3E5D JUMP JUMPDEST DUP6 PUSH1 0x6 PUSH2 0x1BA1 SWAP2 SWAP1 PUSH2 0x3E5D JUMP JUMPDEST PUSH2 0x1BAB SWAP2 SWAP1 PUSH2 0x3A58 JUMP JUMPDEST PUSH2 0x1BB5 SWAP2 SWAP1 PUSH2 0x3A58 JUMP JUMPDEST DUP2 MLOAD DUP2 LT PUSH2 0x1BC6 JUMPI PUSH2 0x1BC5 PUSH2 0x3A8C JUMP JUMPDEST JUMPDEST PUSH1 0x20 MUL PUSH1 0x20 ADD ADD DUP2 SWAP1 MSTORE POP PUSH2 0x1C26 PUSH1 0xF PUSH1 0x0 PUSH1 0x1 DUP6 PUSH2 0x1BE5 SWAP2 SWAP1 PUSH2 0x3A58 JUMP JUMPDEST DUP2 MSTORE PUSH1 0x20 ADD SWAP1 DUP2 MSTORE PUSH1 0x20 ADD PUSH1 0x0 KECCAK256 PUSH1 0x0 ADD DUP3 PUSH1 0x3 DUP2 LT PUSH2 0x1C08 JUMPI PUSH2 0x1C07 PUSH2 0x3A8C JUMP JUMPDEST JUMPDEST PUSH1 0x2 MUL ADD PUSH1 0x1 PUSH1 0x2 DUP2 LT PUSH2 0x1C1F JUMPI PUSH2 0x1C1E PUSH2 0x3A8C JUMP JUMPDEST JUMPDEST ADD SLOAD PUSH2 0x1D00 JUMP JUMPDEST DUP4 PUSH1 0x7 DUP4 PUSH1 0x2 PUSH2 0x1C36 SWAP2 SWAP1 PUSH2 0x3E5D JUMP JUMPDEST DUP6 PUSH1 0x6 PUSH2 0x1C43 SWAP2 SWAP1 PUSH2 0x3E5D JUMP JUMPDEST PUSH2 0x1C4D SWAP2 SWAP1 PUSH2 0x3A58 JUMP JUMPDEST PUSH2 0x1C57 SWAP2 SWAP1 PUSH2 0x3A58 JUMP JUMPDEST DUP2 MLOAD DUP2 LT PUSH2 0x1C68 JUMPI PUSH2 0x1C67 PUSH2 0x3A8C JUMP JUMPDEST JUMPDEST PUSH1 0x20 MUL PUSH1 0x20 ADD ADD DUP2 SWAP1 MSTORE POP DUP1 DUP1 PUSH2 0x1C7E SWAP1 PUSH2 0x3E9F JUMP JUMPDEST SWAP2 POP POP PUSH2 0x1B26 JUMP JUMPDEST POP DUP1 DUP1 PUSH2 0x1C92 SWAP1 PUSH2 0x3E9F JUMP JUMPDEST SWAP2 POP POP PUSH2 0x1B1A JUMP JUMPDEST POP PUSH2 0x1CAE DUP2 DUP4 PUSH2 0x1E60 SWAP1 SWAP2 SWAP1 PUSH4 0xFFFFFFFF AND JUMP JUMPDEST PUSH2 0x1CC9 PUSH2 0x1CBA DUP4 PUSH2 0x1EA8 JUMP JUMPDEST PUSH1 0x9 SLOAD PUSH3 0x493E0 PUSH1 0xD SLOAD PUSH2 0x22C4 JUMP JUMPDEST POP POP POP JUMP JUMPDEST PUSH1 0x0 PUSH2 0x1CE7 DUP4 PUSH1 0x2 DUP5 PUSH2 0x1CE1 SWAP2 SWAP1 PUSH2 0x40A3 JUMP JUMPDEST DUP5 PUSH2 0x23A7 JUMP JUMPDEST SWAP1 POP SWAP3 SWAP2 POP POP JUMP JUMPDEST PUSH2 0x1CFC DUP3 PUSH1 0x0 DUP1 DUP5 PUSH2 0x2415 JUMP JUMPDEST POP POP JUMP JUMPDEST PUSH1 0x60 PUSH1 0x0 DUP3 SUB PUSH2 0x1D47 JUMPI PUSH1 0x40 MLOAD DUP1 PUSH1 0x40 ADD PUSH1 0x40 MSTORE DUP1 PUSH1 0x1 DUP2 MSTORE PUSH1 0x20 ADD PUSH32 0x3000000000000000000000000000000000000000000000000000000000000000 DUP2 MSTORE POP SWAP1 POP PUSH2 0x1E5B JUMP JUMPDEST PUSH1 0x0 DUP3 SWAP1 POP PUSH1 0x0 JUMPDEST PUSH1 0x0 DUP3 EQ PUSH2 0x1D79 JUMPI DUP1 DUP1 PUSH2 0x1D62 SWAP1 PUSH2 0x3E9F JUMP JUMPDEST SWAP2 POP POP PUSH1 0xA DUP3 PUSH2 0x1D72 SWAP2 SWAP1 PUSH2 0x41F8 JUMP JUMPDEST SWAP2 POP PUSH2 0x1D4F JUMP JUMPDEST PUSH1 0x0 DUP2 PUSH8 0xFFFFFFFFFFFFFFFF DUP2 GT ISZERO PUSH2 0x1D95 JUMPI PUSH2 0x1D94 PUSH2 0x3055 JUMP JUMPDEST JUMPDEST PUSH1 0x40 MLOAD SWAP1 DUP1 DUP3 MSTORE DUP1 PUSH1 0x1F ADD PUSH1 0x1F NOT AND PUSH1 0x20 ADD DUP3 ADD PUSH1 0x40 MSTORE DUP1 ISZERO PUSH2 0x1DC7 JUMPI DUP2 PUSH1 0x20 ADD PUSH1 0x1 DUP3 MUL DUP1 CALLDATASIZE DUP4 CALLDATACOPY DUP1 DUP3 ADD SWAP2 POP POP SWAP1 POP JUMPDEST POP SWAP1 POP JUMPDEST PUSH1 0x0 DUP6 EQ PUSH2 0x1E54 JUMPI PUSH1 0x1 DUP3 PUSH2 0x1DE0 SWAP2 SWAP1 PUSH2 0x40A3 JUMP JUMPDEST SWAP2 POP PUSH1 0xA DUP6 PUSH2 0x1DEF SWAP2 SWAP1 PUSH2 0x4229 JUMP JUMPDEST PUSH1 0x30 PUSH2 0x1DFB SWAP2 SWAP1 PUSH2 0x3A58 JUMP JUMPDEST PUSH1 0xF8 SHL DUP2 DUP4 DUP2 MLOAD DUP2 LT PUSH2 0x1E11 JUMPI PUSH2 0x1E10 PUSH2 0x3A8C JUMP JUMPDEST JUMPDEST PUSH1 0x20 ADD ADD SWAP1 PUSH31 0xFFFFFFFFFFFFFFFFFFFFFFFFFFFFFFFFFFFFFFFFFFFFFFFFFFFFFFFFFFFFFF NOT AND SWAP1 DUP2 PUSH1 0x0 BYTE SWAP1 MSTORE8 POP PUSH1 0xA DUP6 PUSH2 0x1E4D SWAP2 SWAP1 PUSH2 0x41F8 JUMP JUMPDEST SWAP5 POP PUSH2 0x1DCB JUMP JUMPDEST DUP1 SWAP4 POP POP POP POP JUMPDEST SWAP2 SWAP1 POP JUMP JUMPDEST PUSH1 0x0 DUP2 MLOAD SUB PUSH2 0x1E9B JUMPI PUSH1 0x40 MLOAD PUSH32 0xFE936CB700000000000000000000000000000000000000000000000000000000 DUP2 MSTORE PUSH1 0x4 ADD PUSH1 0x40 MLOAD DUP1 SWAP2 SUB SWAP1 REVERT JUMPDEST DUP1 DUP3 PUSH1 0xA0 ADD DUP2 SWAP1 MSTORE POP POP POP JUMP JUMPDEST PUSH1 0x60 PUSH1 0x0 PUSH2 0x1EB7 PUSH2 0x100 PUSH2 0x24BF JUMP JUMPDEST SWAP1 POP PUSH2 0x1F01 PUSH1 0x40 MLOAD DUP1 PUSH1 0x40 ADD PUSH1 0x40 MSTORE DUP1 PUSH1 0xC DUP2 MSTORE PUSH1 0x20 ADD PUSH32 0x636F64654C6F636174696F6E0000000000000000000000000000000000000000 DUP2 MSTORE POP DUP3 PUSH2 0x24E6 SWAP1 SWAP2 SWAP1 PUSH4 0xFFFFFFFF AND JUMP JUMPDEST PUSH2 0x1F2A DUP4 PUSH1 0x0 ADD MLOAD PUSH1 0x2 DUP2 GT ISZERO PUSH2 0x1F1B JUMPI PUSH2 0x1F1A PUSH2 0x425A JUMP JUMPDEST JUMPDEST DUP3 PUSH2 0x250F SWAP1 SWAP2 SWAP1 PUSH4 0xFFFFFFFF AND JUMP JUMPDEST PUSH2 0x1F72 PUSH1 0x40 MLOAD DUP1 PUSH1 0x40 ADD PUSH1 0x40 MSTORE DUP1 PUSH1 0x8 DUP2 MSTORE PUSH1 0x20 ADD PUSH32 0x6C616E6775616765000000000000000000000000000000000000000000000000 DUP2 MSTORE POP DUP3 PUSH2 0x24E6 SWAP1 SWAP2 SWAP1 PUSH4 0xFFFFFFFF AND JUMP JUMPDEST PUSH2 0x1F9B DUP4 PUSH1 0x40 ADD MLOAD PUSH1 0x0 DUP2 GT ISZERO PUSH2 0x1F8C JUMPI PUSH2 0x1F8B PUSH2 0x425A JUMP JUMPDEST JUMPDEST DUP3 PUSH2 0x250F SWAP1 SWAP2 SWAP1 PUSH4 0xFFFFFFFF AND JUMP JUMPDEST PUSH2 0x1FE3 PUSH1 0x40 MLOAD DUP1 PUSH1 0x40 ADD PUSH1 0x40 MSTORE DUP1 PUSH1 0x6 DUP2 MSTORE PUSH1 0x20 ADD PUSH32 0x736F757263650000000000000000000000000000000000000000000000000000 DUP2 MSTORE POP DUP3 PUSH2 0x24E6 SWAP1 SWAP2 SWAP1 PUSH4 0xFFFFFFFF AND JUMP JUMPDEST PUSH2 0x1FFA DUP4 PUSH1 0x60 ADD MLOAD DUP3 PUSH2 0x24E6 SWAP1 SWAP2 SWAP1 PUSH4 0xFFFFFFFF AND JUMP JUMPDEST PUSH1 0x0 DUP4 PUSH1 0xA0 ADD MLOAD MLOAD GT ISZERO PUSH2 0x20B6 JUMPI PUSH2 0x2050 PUSH1 0x40 MLOAD DUP1 PUSH1 0x40 ADD PUSH1 0x40 MSTORE DUP1 PUSH1 0x4 DUP2 MSTORE PUSH1 0x20 ADD PUSH32 0x6172677300000000000000000000000000000000000000000000000000000000 DUP2 MSTORE POP DUP3 PUSH2 0x24E6 SWAP1 SWAP2 SWAP1 PUSH4 0xFFFFFFFF AND JUMP JUMPDEST PUSH2 0x2059 DUP2 PUSH2 0x255F JUMP JUMPDEST PUSH1 0x0 JUMPDEST DUP4 PUSH1 0xA0 ADD MLOAD MLOAD DUP2 LT ISZERO PUSH2 0x20AB JUMPI PUSH2 0x209A DUP5 PUSH1 0xA0 ADD MLOAD DUP3 DUP2 MLOAD DUP2 LT PUSH2 0x2083 JUMPI PUSH2 0x2082 PUSH2 0x3A8C JUMP JUMPDEST JUMPDEST PUSH1 0x20 MUL PUSH1 0x20 ADD ADD MLOAD DUP4 PUSH2 0x24E6 SWAP1 SWAP2 SWAP1 PUSH4 0xFFFFFFFF AND JUMP JUMPDEST DUP1 PUSH2 0x20A4 SWAP1 PUSH2 0x3E9F JUMP JUMPDEST SWAP1 POP PUSH2 0x205C JUMP JUMPDEST POP PUSH2 0x20B5 DUP2 PUSH2 0x2587 JUMP JUMPDEST JUMPDEST PUSH1 0x0 DUP4 PUSH1 0x80 ADD MLOAD MLOAD GT ISZERO PUSH2 0x21F7 JUMPI PUSH1 0x0 PUSH1 0x2 DUP2 GT ISZERO PUSH2 0x20D8 JUMPI PUSH2 0x20D7 PUSH2 0x425A JUMP JUMPDEST JUMPDEST DUP4 PUSH1 0x20 ADD MLOAD PUSH1 0x2 DUP2 GT ISZERO PUSH2 0x20EF JUMPI PUSH2 0x20EE PUSH2 0x425A JUMP JUMPDEST JUMPDEST SUB PUSH2 0x2126 JUMPI PUSH1 0x40 MLOAD PUSH32 0xA80D31F700000000000000000000000000000000000000000000000000000000 DUP2 MSTORE PUSH1 0x4 ADD PUSH1 0x40 MLOAD DUP1 SWAP2 SUB SWAP1 REVERT JUMPDEST PUSH2 0x216E PUSH1 0x40 MLOAD DUP1 PUSH1 0x40 ADD PUSH1 0x40 MSTORE DUP1 PUSH1 0xF DUP2 MSTORE PUSH1 0x20 ADD PUSH32 0x736563726574734C6F636174696F6E0000000000000000000000000000000000 DUP2 MSTORE POP DUP3 PUSH2 0x24E6 SWAP1 SWAP2 SWAP1 PUSH4 0xFFFFFFFF AND JUMP JUMPDEST PUSH2 0x2197 DUP4 PUSH1 0x20 ADD MLOAD PUSH1 0x2 DUP2 GT ISZERO PUSH2 0x2188 JUMPI PUSH2 0x2187 PUSH2 0x425A JUMP JUMPDEST JUMPDEST DUP3 PUSH2 0x250F SWAP1 SWAP2 SWAP1 PUSH4 0xFFFFFFFF AND JUMP JUMPDEST PUSH2 0x21DF PUSH1 0x40 MLOAD DUP1 PUSH1 0x40 ADD PUSH1 0x40 MSTORE DUP1 PUSH1 0x7 DUP2 MSTORE PUSH1 0x20 ADD PUSH32 0x7365637265747300000000000000000000000000000000000000000000000000 DUP2 MSTORE POP DUP3 PUSH2 0x24E6 SWAP1 SWAP2 SWAP1 PUSH4 0xFFFFFFFF AND JUMP JUMPDEST PUSH2 0x21F6 DUP4 PUSH1 0x80 ADD MLOAD DUP3 PUSH2 0x25AF SWAP1 SWAP2 SWAP1 PUSH4 0xFFFFFFFF AND JUMP JUMPDEST JUMPDEST PUSH1 0x0 DUP4 PUSH1 0xC0 ADD MLOAD MLOAD GT ISZERO PUSH2 0x22B3 JUMPI PUSH2 0x224D PUSH1 0x40 MLOAD DUP1 PUSH1 0x40 ADD PUSH1 0x40 MSTORE DUP1 PUSH1 0x9 DUP2 MSTORE PUSH1 0x20 ADD PUSH32 0x6279746573417267730000000000000000000000000000000000000000000000 DUP2 MSTORE POP DUP3 PUSH2 0x24E6 SWAP1 SWAP2 SWAP1 PUSH4 0xFFFFFFFF AND JUMP JUMPDEST PUSH2 0x2256 DUP2 PUSH2 0x255F JUMP JUMPDEST PUSH1 0x0 JUMPDEST DUP4 PUSH1 0xC0 ADD MLOAD MLOAD DUP2 LT ISZERO PUSH2 0x22A8 JUMPI PUSH2 0x2297 DUP5 PUSH1 0xC0 ADD MLOAD DUP3 DUP2 MLOAD DUP2 LT PUSH2 0x2280 JUMPI PUSH2 0x227F PUSH2 0x3A8C JUMP JUMPDEST JUMPDEST PUSH1 0x20 MUL PUSH1 0x20 ADD ADD MLOAD DUP4 PUSH2 0x25AF SWAP1 SWAP2 SWAP1 PUSH4 0xFFFFFFFF AND JUMP JUMPDEST DUP1 PUSH2 0x22A1 SWAP1 PUSH2 0x3E9F JUMP JUMPDEST SWAP1 POP PUSH2 0x2259 JUMP JUMPDEST POP PUSH2 0x22B2 DUP2 PUSH2 0x2587 JUMP JUMPDEST JUMPDEST DUP1 PUSH1 0x0 ADD MLOAD PUSH1 0x0 ADD MLOAD SWAP2 POP POP SWAP2 SWAP1 POP JUMP JUMPDEST PUSH1 0x0 DUP1 PUSH32 0x0 PUSH20 0xFFFFFFFFFFFFFFFFFFFFFFFFFFFFFFFFFFFFFFFF AND PUSH4 0x461D2762 DUP7 DUP9 PUSH1 0x1 DUP9 DUP9 PUSH1 0x40 MLOAD DUP7 PUSH4 0xFFFFFFFF AND PUSH1 0xE0 SHL DUP2 MSTORE PUSH1 0x4 ADD PUSH2 0x2329 SWAP6 SWAP5 SWAP4 SWAP3 SWAP2 SWAP1 PUSH2 0x434C JUMP JUMPDEST PUSH1 0x20 PUSH1 0x40 MLOAD DUP1 DUP4 SUB DUP2 PUSH1 0x0 DUP8 GAS CALL ISZERO DUP1 ISZERO PUSH2 0x2348 JUMPI RETURNDATASIZE PUSH1 0x0 DUP1 RETURNDATACOPY RETURNDATASIZE PUSH1 0x0 REVERT JUMPDEST POP POP POP POP PUSH1 0x40 MLOAD RETURNDATASIZE PUSH1 0x1F NOT PUSH1 0x1F DUP3 ADD AND DUP3 ADD DUP1 PUSH1 0x40 MSTORE POP DUP2 ADD SWAP1 PUSH2 0x236C SWAP2 SWAP1 PUSH2 0x43BB JUMP JUMPDEST SWAP1 POP DUP1 PUSH32 0x1131472297A800FEE664D1D89CFA8F7676FF07189ECC53F80BBB5F4969099DB8 PUSH1 0x40 MLOAD PUSH1 0x40 MLOAD DUP1 SWAP2 SUB SWAP1 LOG2 DUP1 SWAP2 POP POP SWAP5 SWAP4 POP POP POP POP JUMP JUMPDEST PUSH1 0x0 PUSH1 0x1 SWAP1 POP DUP2 DUP5 PUSH2 0x23B9 SWAP2 SWAP1 PUSH2 0x4229 JUMP JUMPDEST SWAP4 POP JUMPDEST PUSH1 0x0 DUP4 GT ISZERO PUSH2 0x240E JUMPI PUSH1 0x1 PUSH1 0x2 DUP5 PUSH2 0x23D4 SWAP2 SWAP1 PUSH2 0x4229 JUMP JUMPDEST SUB PUSH2 0x23EE JUMPI DUP2 DUP1 PUSH2 0x23E8 JUMPI PUSH2 0x23E7 PUSH2 0x4074 JUMP JUMPDEST JUMPDEST DUP5 DUP3 MULMOD SWAP1 POP JUMPDEST DUP2 DUP1 PUSH2 0x23FD JUMPI PUSH2 0x23FC PUSH2 0x4074 JUMP JUMPDEST JUMPDEST DUP5 DUP6 MULMOD SWAP4 POP PUSH1 0x1 DUP4 SWAP1 SHR SWAP3 POP PUSH2 0x23BC JUMP JUMPDEST SWAP4 SWAP3 POP POP POP JUMP JUMPDEST PUSH1 0x0 DUP2 MLOAD SUB PUSH2 0x2450 JUMPI PUSH1 0x40 MLOAD PUSH32 0x22CE3EDD00000000000000000000000000000000000000000000000000000000 DUP2 MSTORE PUSH1 0x4 ADD PUSH1 0x40 MLOAD DUP1 SWAP2 SUB SWAP1 REVERT JUMPDEST DUP3 DUP5 PUSH1 0x0 ADD SWAP1 PUSH1 0x2 DUP2 GT ISZERO PUSH2 0x2468 JUMPI PUSH2 0x2467 PUSH2 0x425A JUMP JUMPDEST JUMPDEST SWAP1 DUP2 PUSH1 0x2 DUP2 GT ISZERO PUSH2 0x247C JUMPI PUSH2 0x247B PUSH2 0x425A JUMP JUMPDEST JUMPDEST DUP2 MSTORE POP POP DUP2 DUP5 PUSH1 0x40 ADD SWAP1 PUSH1 0x0 DUP2 GT ISZERO PUSH2 0x2498 JUMPI PUSH2 0x2497 PUSH2 0x425A JUMP JUMPDEST JUMPDEST SWAP1 DUP2 PUSH1 0x0 DUP2 GT ISZERO PUSH2 0x24AC JUMPI PUSH2 0x24AB PUSH2 0x425A JUMP JUMPDEST JUMPDEST DUP2 MSTORE POP POP DUP1 DUP5 PUSH1 0x60 ADD DUP2 SWAP1 MSTORE POP POP POP POP POP JUMP JUMPDEST PUSH2 0x24C7 PUSH2 0x2B99 JUMP JUMPDEST PUSH2 0x24D5 DUP2 PUSH1 0x0 ADD MLOAD DUP4 PUSH2 0x25D8 JUMP JUMPDEST POP PUSH1 0x0 DUP2 PUSH1 0x20 ADD DUP2 DUP2 MSTORE POP POP SWAP2 SWAP1 POP JUMP JUMPDEST PUSH2 0x24F3 DUP3 PUSH1 0x3 DUP4 MLOAD PUSH2 0x2651 JUMP JUMPDEST PUSH2 0x250A DUP2 DUP4 PUSH1 0x0 ADD MLOAD PUSH2 0x27FA SWAP1 SWAP2 SWAP1 PUSH4 0xFFFFFFFF AND JUMP JUMPDEST POP POP POP JUMP JUMPDEST PUSH2 0x2531 PUSH1 0x2 PUSH1 0x5 PUSH1 0x6 PUSH1 0xFF AND SWAP1 SHL OR DUP4 PUSH1 0x0 ADD MLOAD PUSH2 0x2816 SWAP1 SWAP2 SWAP1 PUSH4 0xFFFFFFFF AND JUMP JUMPDEST POP PUSH2 0x255B DUP3 DUP3 PUSH1 0x40 MLOAD PUSH1 0x20 ADD PUSH2 0x2547 SWAP2 SWAP1 PUSH2 0x2C7B JUMP JUMPDEST PUSH1 0x40 MLOAD PUSH1 0x20 DUP2 DUP4 SUB SUB DUP2 MSTORE SWAP1 PUSH1 0x40 MSTORE PUSH2 0x25AF JUMP JUMPDEST POP POP JUMP JUMPDEST PUSH2 0x256A DUP2 PUSH1 0x4 PUSH2 0x2880 JUMP JUMPDEST PUSH1 0x1 DUP2 PUSH1 0x20 ADD DUP2 DUP2 MLOAD PUSH2 0x257D SWAP2 SWAP1 PUSH2 0x3A58 JUMP JUMPDEST SWAP2 POP DUP2 DUP2 MSTORE POP POP POP JUMP JUMPDEST PUSH2 0x2592 DUP2 PUSH1 0x7 PUSH2 0x2880 JUMP JUMPDEST PUSH1 0x1 DUP2 PUSH1 0x20 ADD DUP2 DUP2 MLOAD PUSH2 0x25A5 SWAP2 SWAP1 PUSH2 0x40A3 JUMP JUMPDEST SWAP2 POP DUP2 DUP2 MSTORE POP POP POP JUMP JUMPDEST PUSH2 0x25BC DUP3 PUSH1 0x2 DUP4 MLOAD PUSH2 0x2651 JUMP JUMPDEST PUSH2 0x25D3 DUP2 DUP4 PUSH1 0x0 ADD MLOAD PUSH2 0x27FA SWAP1 SWAP2 SWAP1 PUSH4 0xFFFFFFFF AND JUMP JUMPDEST POP POP POP JUMP JUMPDEST PUSH2 0x25E0 PUSH2 0x2BB9 JUMP JUMPDEST PUSH1 0x0 PUSH1 0x20 DUP4 PUSH2 0x25EF SWAP2 SWAP1 PUSH2 0x4229 JUMP JUMPDEST EQ PUSH2 0x261B JUMPI PUSH1 0x20 DUP3 PUSH2 0x2601 SWAP2 SWAP1 PUSH2 0x4229 JUMP JUMPDEST PUSH1 0x20 PUSH2 0x260D SWAP2 SWAP1 PUSH2 0x40A3 JUMP JUMPDEST DUP3 PUSH2 0x2618 SWAP2 SWAP1 PUSH2 0x3A58 JUMP JUMPDEST SWAP2 POP JUMPDEST DUP2 DUP4 PUSH1 0x20 ADD DUP2 DUP2 MSTORE POP POP PUSH1 0x40 MLOAD DUP1 DUP5 MSTORE PUSH1 0x0 DUP2 MSTORE DUP3 DUP2 ADD PUSH1 0x20 ADD DUP2 DUP2 LT ISZERO PUSH2 0x2642 JUMPI PUSH1 0x0 DUP1 REVERT JUMPDEST DUP1 PUSH1 0x40 MSTORE POP POP DUP3 SWAP1 POP SWAP3 SWAP2 POP POP JUMP JUMPDEST PUSH1 0x17 DUP2 PUSH8 0xFFFFFFFFFFFFFFFF AND GT PUSH2 0x268C JUMPI PUSH2 0x2686 DUP2 PUSH1 0x5 DUP5 PUSH1 0xFF AND SWAP1 SHL PUSH1 0xFF AND OR DUP5 PUSH1 0x0 ADD MLOAD PUSH2 0x2816 SWAP1 SWAP2 SWAP1 PUSH4 0xFFFFFFFF AND JUMP JUMPDEST POP PUSH2 0x27F5 JUMP JUMPDEST PUSH1 0xFF DUP2 PUSH8 0xFFFFFFFFFFFFFFFF AND GT PUSH2 0x26EA JUMPI PUSH2 0x26BF PUSH1 0x18 PUSH1 0x5 DUP5 PUSH1 0xFF AND SWAP1 SHL OR DUP5 PUSH1 0x0 ADD MLOAD PUSH2 0x2816 SWAP1 SWAP2 SWAP1 PUSH4 0xFFFFFFFF AND JUMP JUMPDEST POP PUSH2 0x26E4 DUP2 PUSH8 0xFFFFFFFFFFFFFFFF AND PUSH1 0x1 DUP6 PUSH1 0x0 ADD MLOAD PUSH2 0x28A6 SWAP1 SWAP3 SWAP2 SWAP1 PUSH4 0xFFFFFFFF AND JUMP JUMPDEST POP PUSH2 0x27F4 JUMP JUMPDEST PUSH2 0xFFFF DUP2 PUSH8 0xFFFFFFFFFFFFFFFF AND GT PUSH2 0x2749 JUMPI PUSH2 0x271E PUSH1 0x19 PUSH1 0x5 DUP5 PUSH1 0xFF AND SWAP1 SHL OR DUP5 PUSH1 0x0 ADD MLOAD PUSH2 0x2816 SWAP1 SWAP2 SWAP1 PUSH4 0xFFFFFFFF AND JUMP JUMPDEST POP PUSH2 0x2743 DUP2 PUSH8 0xFFFFFFFFFFFFFFFF AND PUSH1 0x2 DUP6 PUSH1 0x0 ADD MLOAD PUSH2 0x28A6 SWAP1 SWAP3 SWAP2 SWAP1 PUSH4 0xFFFFFFFF AND JUMP JUMPDEST POP PUSH2 0x27F3 JUMP JUMPDEST PUSH4 0xFFFFFFFF DUP2 PUSH8 0xFFFFFFFFFFFFFFFF AND GT PUSH2 0x27AA JUMPI PUSH2 0x277F PUSH1 0x1A PUSH1 0x5 DUP5 PUSH1 0xFF AND SWAP1 SHL OR DUP5 PUSH1 0x0 ADD MLOAD PUSH2 0x2816 SWAP1 SWAP2 SWAP1 PUSH4 0xFFFFFFFF AND JUMP JUMPDEST POP PUSH2 0x27A4 DUP2 PUSH8 0xFFFFFFFFFFFFFFFF AND PUSH1 0x4 DUP6 PUSH1 0x0 ADD MLOAD PUSH2 0x28A6 SWAP1 SWAP3 SWAP2 SWAP1 PUSH4 0xFFFFFFFF AND JUMP JUMPDEST POP PUSH2 0x27F2 JUMP JUMPDEST PUSH2 0x27CB PUSH1 0x1B PUSH1 0x5 DUP5 PUSH1 0xFF AND SWAP1 SHL OR DUP5 PUSH1 0x0 ADD MLOAD PUSH2 0x2816 SWAP1 SWAP2 SWAP1 PUSH4 0xFFFFFFFF AND JUMP JUMPDEST POP PUSH2 0x27F0 DUP2 PUSH8 0xFFFFFFFFFFFFFFFF AND PUSH1 0x8 DUP6 PUSH1 0x0 ADD MLOAD PUSH2 0x28A6 SWAP1 SWAP3 SWAP2 SWAP1 PUSH4 0xFFFFFFFF AND JUMP JUMPDEST POP JUMPDEST JUMPDEST JUMPDEST JUMPDEST POP POP POP JUMP JUMPDEST PUSH2 0x2802 PUSH2 0x2BB9 JUMP JUMPDEST PUSH2 0x280E DUP4 DUP4 DUP5 MLOAD PUSH2 0x2933 JUMP JUMPDEST SWAP1 POP SWAP3 SWAP2 POP POP JUMP JUMPDEST PUSH2 0x281E PUSH2 0x2BB9 JUMP JUMPDEST PUSH1 0x0 DUP4 PUSH1 0x0 ADD MLOAD MLOAD SWAP1 POP PUSH1 0x0 PUSH1 0x1 DUP3 PUSH2 0x2837 SWAP2 SWAP1 PUSH2 0x3A58 JUMP JUMPDEST SWAP1 POP DUP5 PUSH1 0x20 ADD MLOAD DUP3 LT PUSH2 0x285B JUMPI PUSH2 0x285A DUP6 PUSH1 0x2 DUP4 PUSH2 0x2855 SWAP2 SWAP1 PUSH2 0x3E5D JUMP JUMPDEST PUSH2 0x2A16 JUMP JUMPDEST JUMPDEST DUP5 MLOAD PUSH1 0x20 DUP4 DUP3 ADD ADD DUP6 DUP2 MSTORE8 DUP2 MLOAD DUP4 GT ISZERO PUSH2 0x2873 JUMPI DUP3 DUP3 MSTORE JUMPDEST POP POP DUP5 SWAP3 POP POP POP SWAP3 SWAP2 POP POP JUMP JUMPDEST PUSH2 0x28A1 PUSH1 0x1F PUSH1 0x5 DUP4 PUSH1 0xFF AND SWAP1 SHL OR DUP4 PUSH1 0x0 ADD MLOAD PUSH2 0x2816 SWAP1 SWAP2 SWAP1 PUSH4 0xFFFFFFFF AND JUMP JUMPDEST POP POP POP JUMP JUMPDEST PUSH2 0x28AE PUSH2 0x2BB9 JUMP JUMPDEST PUSH1 0x0 DUP5 PUSH1 0x0 ADD MLOAD MLOAD SWAP1 POP PUSH1 0x0 DUP2 DUP5 PUSH2 0x28C6 SWAP2 SWAP1 PUSH2 0x3A58 JUMP JUMPDEST SWAP1 POP DUP6 PUSH1 0x20 ADD MLOAD DUP2 GT ISZERO PUSH2 0x28EB JUMPI PUSH2 0x28EA DUP7 PUSH1 0x2 DUP4 PUSH2 0x28E5 SWAP2 SWAP1 PUSH2 0x3E5D JUMP JUMPDEST PUSH2 0x2A16 JUMP JUMPDEST JUMPDEST PUSH1 0x0 PUSH1 0x1 DUP6 PUSH2 0x100 PUSH2 0x28FD SWAP2 SWAP1 PUSH2 0x451B JUMP JUMPDEST PUSH2 0x2907 SWAP2 SWAP1 PUSH2 0x40A3 JUMP JUMPDEST SWAP1 POP DUP7 MLOAD DUP3 DUP2 ADD DUP8 DUP4 NOT DUP3 MLOAD AND OR DUP2 MSTORE DUP2 MLOAD DUP5 GT ISZERO PUSH2 0x2924 JUMPI DUP4 DUP3 MSTORE JUMPDEST POP POP DUP7 SWAP4 POP POP POP POP SWAP4 SWAP3 POP POP POP JUMP JUMPDEST PUSH2 0x293B PUSH2 0x2BB9 JUMP JUMPDEST DUP3 MLOAD DUP3 GT ISZERO PUSH2 0x2949 JUMPI PUSH1 0x0 DUP1 REVERT JUMPDEST PUSH1 0x0 DUP5 PUSH1 0x0 ADD MLOAD MLOAD SWAP1 POP PUSH1 0x0 DUP4 DUP3 PUSH2 0x2961 SWAP2 SWAP1 PUSH2 0x3A58 JUMP JUMPDEST SWAP1 POP DUP6 PUSH1 0x20 ADD MLOAD DUP2 GT ISZERO PUSH2 0x2986 JUMPI PUSH2 0x2985 DUP7 PUSH1 0x2 DUP4 PUSH2 0x2980 SWAP2 SWAP1 PUSH2 0x3E5D JUMP JUMPDEST PUSH2 0x2A16 JUMP JUMPDEST JUMPDEST PUSH1 0x0 DUP1 DUP8 MLOAD DUP1 MLOAD DUP6 PUSH1 0x20 DUP4 ADD ADD SWAP4 POP DUP1 DUP6 GT ISZERO PUSH2 0x29A1 JUMPI DUP5 DUP3 MSTORE JUMPDEST PUSH1 0x20 DUP10 ADD SWAP3 POP POP POP JUMPDEST PUSH1 0x20 DUP7 LT PUSH2 0x29E8 JUMPI DUP1 MLOAD DUP3 MSTORE PUSH1 0x20 DUP3 PUSH2 0x29C3 SWAP2 SWAP1 PUSH2 0x3A58 JUMP JUMPDEST SWAP2 POP PUSH1 0x20 DUP2 PUSH2 0x29D2 SWAP2 SWAP1 PUSH2 0x3A58 JUMP JUMPDEST SWAP1 POP PUSH1 0x20 DUP7 PUSH2 0x29E1 SWAP2 SWAP1 PUSH2 0x40A3 JUMP JUMPDEST SWAP6 POP PUSH2 0x29AA JUMP JUMPDEST PUSH1 0x0 PUSH1 0x1 DUP8 PUSH1 0x20 SUB PUSH2 0x100 EXP SUB SWAP1 POP DUP1 NOT DUP3 MLOAD AND DUP2 DUP5 MLOAD AND DUP2 DUP2 OR DUP6 MSTORE POP POP POP DUP8 SWAP5 POP POP POP POP POP SWAP4 SWAP3 POP POP POP JUMP JUMPDEST PUSH1 0x0 DUP3 PUSH1 0x0 ADD MLOAD SWAP1 POP PUSH2 0x2A29 DUP4 DUP4 PUSH2 0x25D8 JUMP JUMPDEST POP PUSH2 0x2A34 DUP4 DUP3 PUSH2 0x27FA JUMP JUMPDEST POP POP POP POP JUMP JUMPDEST DUP3 PUSH1 0x3 PUSH1 0x2 MUL DUP2 ADD SWAP3 DUP3 ISZERO PUSH2 0x2A7A JUMPI SWAP2 PUSH1 0x20 MUL DUP3 ADD JUMPDEST DUP3 DUP2 GT ISZERO PUSH2 0x2A79 JUMPI DUP3 MLOAD DUP3 SWAP1 PUSH1 0x2 PUSH2 0x2A69 SWAP3 SWAP2 SWAP1 PUSH2 0x2BD3 JUMP JUMPDEST POP SWAP2 PUSH1 0x20 ADD SWAP2 SWAP1 PUSH1 0x2 ADD SWAP1 PUSH2 0x2A50 JUMP JUMPDEST JUMPDEST POP SWAP1 POP PUSH2 0x2A87 SWAP2 SWAP1 PUSH2 0x2C13 JUMP JUMPDEST POP SWAP1 JUMP JUMPDEST PUSH1 0x40 MLOAD DUP1 PUSH1 0x60 ADD PUSH1 0x40 MSTORE DUP1 PUSH1 0x3 SWAP1 JUMPDEST PUSH2 0x2AA2 PUSH2 0x2AB8 JUMP JUMPDEST DUP2 MSTORE PUSH1 0x20 ADD SWAP1 PUSH1 0x1 SWAP1 SUB SWAP1 DUP2 PUSH2 0x2A9A JUMPI SWAP1 POP POP SWAP1 JUMP JUMPDEST PUSH1 0x40 MLOAD DUP1 PUSH1 0x40 ADD PUSH1 0x40 MSTORE DUP1 PUSH1 0x2 SWAP1 PUSH1 0x20 DUP3 MUL DUP1 CALLDATASIZE DUP4 CALLDATACOPY DUP1 DUP3 ADD SWAP2 POP POP SWAP1 POP POP SWAP1 JUMP JUMPDEST DUP3 DUP1 SLOAD DUP3 DUP3 SSTORE SWAP1 PUSH1 0x0 MSTORE PUSH1 0x20 PUSH1 0x0 KECCAK256 SWAP1 DUP2 ADD SWAP3 DUP3 ISZERO PUSH2 0x2B16 JUMPI SWAP2 PUSH1 0x20 MUL DUP3 ADD JUMPDEST DUP3 DUP2 GT ISZERO PUSH2 0x2B15 JUMPI DUP3 MLOAD DUP3 SSTORE SWAP2 PUSH1 0x20 ADD SWAP2 SWAP1 PUSH1 0x1 ADD SWAP1 PUSH2 0x2AFA JUMP JUMPDEST JUMPDEST POP SWAP1 POP PUSH2 0x2B23 SWAP2 SWAP1 PUSH2 0x2C37 JUMP JUMPDEST POP SWAP1 JUMP JUMPDEST PUSH1 0x40 MLOAD DUP1 PUSH1 0xE0 ADD PUSH1 0x40 MSTORE DUP1 PUSH1 0x0 PUSH1 0x2 DUP2 GT ISZERO PUSH2 0x2B46 JUMPI PUSH2 0x2B45 PUSH2 0x425A JUMP JUMPDEST JUMPDEST DUP2 MSTORE PUSH1 0x20 ADD PUSH1 0x0 PUSH1 0x2 DUP2 GT ISZERO PUSH2 0x2B5F JUMPI PUSH2 0x2B5E PUSH2 0x425A JUMP JUMPDEST JUMPDEST DUP2 MSTORE PUSH1 0x20 ADD PUSH1 0x0 DUP1 DUP2 GT ISZERO PUSH2 0x2B77 JUMPI PUSH2 0x2B76 PUSH2 0x425A JUMP JUMPDEST JUMPDEST DUP2 MSTORE PUSH1 0x20 ADD PUSH1 0x60 DUP2 MSTORE PUSH1 0x20 ADD PUSH1 0x60 DUP2 MSTORE PUSH1 0x20 ADD PUSH1 0x60 DUP2 MSTORE PUSH1 0x20 ADD PUSH1 0x60 DUP2 MSTORE POP SWAP1 JUMP JUMPDEST PUSH1 0x40 MLOAD DUP1 PUSH1 0x40 ADD PUSH1 0x40 MSTORE DUP1 PUSH2 0x2BAC PUSH2 0x2BB9 JUMP JUMPDEST DUP2 MSTORE PUSH1 0x20 ADD PUSH1 0x0 DUP2 MSTORE POP SWAP1 JUMP JUMPDEST PUSH1 0x40 MLOAD DUP1 PUSH1 0x40 ADD PUSH1 0x40 MSTORE DUP1 PUSH1 0x60 DUP2 MSTORE PUSH1 0x20 ADD PUSH1 0x0 DUP2 MSTORE POP SWAP1 JUMP JUMPDEST DUP3 PUSH1 0x2 DUP2 ADD SWAP3 DUP3 ISZERO PUSH2 0x2C02 JUMPI SWAP2 PUSH1 0x20 MUL DUP3 ADD JUMPDEST DUP3 DUP2 GT ISZERO PUSH2 0x2C01 JUMPI DUP3 MLOAD DUP3 SSTORE SWAP2 PUSH1 0x20 ADD SWAP2 SWAP1 PUSH1 0x1 ADD SWAP1 PUSH2 0x2BE6 JUMP JUMPDEST JUMPDEST POP SWAP1 POP PUSH2 0x2C0F SWAP2 SWAP1 PUSH2 0x2C37 JUMP JUMPDEST POP SWAP1 JUMP JUMPDEST JUMPDEST DUP1 DUP3 GT ISZERO PUSH2 0x2C33 JUMPI PUSH1 0x0 DUP2 DUP2 PUSH2 0x2C2A SWAP2 SWAP1 PUSH2 0x2C54 JUMP JUMPDEST POP PUSH1 0x2 ADD PUSH2 0x2C14 JUMP JUMPDEST POP SWAP1 JUMP JUMPDEST JUMPDEST DUP1 DUP3 GT ISZERO PUSH2 0x2C50 JUMPI PUSH1 0x0 DUP2 PUSH1 0x0 SWAP1 SSTORE POP PUSH1 0x1 ADD PUSH2 0x2C38 JUMP JUMPDEST POP SWAP1 JUMP JUMPDEST POP PUSH1 0x0 DUP2 SSTORE PUSH1 0x1 ADD PUSH1 0x0 SWAP1 SSTORE JUMP JUMPDEST PUSH1 0x0 DUP2 SWAP1 POP SWAP2 SWAP1 POP JUMP JUMPDEST PUSH2 0x2C75 DUP2 PUSH2 0x2C62 JUMP JUMPDEST DUP3 MSTORE POP POP JUMP JUMPDEST PUSH1 0x0 PUSH1 0x20 DUP3 ADD SWAP1 POP PUSH2 0x2C90 PUSH1 0x0 DUP4 ADD DUP5 PUSH2 0x2C6C JUMP JUMPDEST SWAP3 SWAP2 POP POP JUMP JUMPDEST PUSH1 0x0 PUSH1 0x40 MLOAD SWAP1 POP SWAP1 JUMP JUMPDEST PUSH1 0x0 DUP1 REVERT JUMPDEST PUSH1 0x0 DUP1 REVERT JUMPDEST PUSH2 0x2CB3 DUP2 PUSH2 0x2C62 JUMP JUMPDEST DUP2 EQ PUSH2 0x2CBE JUMPI PUSH1 0x0 DUP1 REVERT JUMPDEST POP JUMP JUMPDEST PUSH1 0x0 DUP2 CALLDATALOAD SWAP1 POP PUSH2 0x2CD0 DUP2 PUSH2 0x2CAA JUMP JUMPDEST SWAP3 SWAP2 POP POP JUMP JUMPDEST PUSH1 0x0 PUSH1 0x20 DUP3 DUP5 SUB SLT ISZERO PUSH2 0x2CEC JUMPI PUSH2 0x2CEB PUSH2 0x2CA0 JUMP JUMPDEST JUMPDEST PUSH1 0x0 PUSH2 0x2CFA DUP5 DUP3 DUP6 ADD PUSH2 0x2CC1 JUMP JUMPDEST SWAP2 POP POP SWAP3 SWAP2 POP POP JUMP JUMPDEST PUSH1 0x0 DUP2 MLOAD SWAP1 POP SWAP2 SWAP1 POP JUMP JUMPDEST PUSH1 0x0 DUP3 DUP3 MSTORE PUSH1 0x20 DUP3 ADD SWAP1 POP SWAP3 SWAP2 POP POP JUMP JUMPDEST PUSH1 0x0 DUP2 SWAP1 POP PUSH1 0x20 DUP3 ADD SWAP1 POP SWAP2 SWAP1 POP JUMP JUMPDEST PUSH1 0x0 DUP2 MLOAD SWAP1 POP SWAP2 SWAP1 POP JUMP JUMPDEST PUSH1 0x0 DUP3 DUP3 MSTORE PUSH1 0x20 DUP3 ADD SWAP1 POP SWAP3 SWAP2 POP POP JUMP JUMPDEST PUSH1 0x0 JUMPDEST DUP4 DUP2 LT ISZERO PUSH2 0x2D69 JUMPI DUP1 DUP3 ADD MLOAD DUP2 DUP5 ADD MSTORE PUSH1 0x20 DUP2 ADD SWAP1 POP PUSH2 0x2D4E JUMP JUMPDEST PUSH1 0x0 DUP5 DUP5 ADD MSTORE POP POP POP POP JUMP JUMPDEST PUSH1 0x0 PUSH1 0x1F NOT PUSH1 0x1F DUP4 ADD AND SWAP1 POP SWAP2 SWAP1 POP JUMP JUMPDEST PUSH1 0x0 PUSH2 0x2D91 DUP3 PUSH2 0x2D2F JUMP JUMPDEST PUSH2 0x2D9B DUP2 DUP6 PUSH2 0x2D3A JUMP JUMPDEST SWAP4 POP PUSH2 0x2DAB DUP2 DUP6 PUSH1 0x20 DUP7 ADD PUSH2 0x2D4B JUMP JUMPDEST PUSH2 0x2DB4 DUP2 PUSH2 0x2D75 JUMP JUMPDEST DUP5 ADD SWAP2 POP POP SWAP3 SWAP2 POP POP JUMP JUMPDEST PUSH1 0x0 PUSH1 0x2 SWAP1 POP SWAP2 SWAP1 POP JUMP JUMPDEST PUSH1 0x0 DUP2 SWAP1 POP SWAP3 SWAP2 POP POP JUMP JUMPDEST PUSH1 0x0 DUP2 SWAP1 POP SWAP2 SWAP1 POP JUMP JUMPDEST PUSH1 0x0 PUSH1 0x2 SWAP1 POP SWAP2 SWAP1 POP JUMP JUMPDEST PUSH1 0x0 DUP2 SWAP1 POP SWAP3 SWAP2 POP POP JUMP JUMPDEST PUSH1 0x0 DUP2 SWAP1 POP SWAP2 SWAP1 POP JUMP JUMPDEST PUSH2 0x2E08 DUP2 PUSH2 0x2C62 JUMP JUMPDEST DUP3 MSTORE POP POP JUMP JUMPDEST PUSH1 0x0 PUSH2 0x2E1A DUP4 DUP4 PUSH2 0x2DFF JUMP JUMPDEST PUSH1 0x20 DUP4 ADD SWAP1 POP SWAP3 SWAP2 POP POP JUMP JUMPDEST PUSH1 0x0 PUSH1 0x20 DUP3 ADD SWAP1 POP SWAP2 SWAP1 POP JUMP JUMPDEST PUSH2 0x2E3C DUP2 PUSH2 0x2DDF JUMP JUMPDEST PUSH2 0x2E46 DUP2 DUP5 PUSH2 0x2DEA JUMP JUMPDEST SWAP3 POP PUSH2 0x2E51 DUP3 PUSH2 0x2DF5 JUMP JUMPDEST DUP1 PUSH1 0x0 JUMPDEST DUP4 DUP2 LT ISZERO PUSH2 0x2E82 JUMPI DUP2 MLOAD PUSH2 0x2E69 DUP8 DUP3 PUSH2 0x2E0E JUMP JUMPDEST SWAP7 POP PUSH2 0x2E74 DUP4 PUSH2 0x2E26 JUMP JUMPDEST SWAP3 POP POP PUSH1 0x1 DUP2 ADD SWAP1 POP PUSH2 0x2E55 JUMP JUMPDEST POP POP POP POP POP POP JUMP JUMPDEST PUSH1 0x0 PUSH2 0x2E96 DUP4 DUP4 PUSH2 0x2E33 JUMP JUMPDEST PUSH1 0x40 DUP4 ADD SWAP1 POP SWAP3 SWAP2 POP POP JUMP JUMPDEST PUSH1 0x0 PUSH1 0x20 DUP3 ADD SWAP1 POP SWAP2 SWAP1 POP JUMP JUMPDEST PUSH2 0x2EB8 DUP2 PUSH2 0x2DBF JUMP JUMPDEST PUSH2 0x2EC2 DUP2 DUP5 PUSH2 0x2DCA JUMP JUMPDEST SWAP3 POP PUSH2 0x2ECD DUP3 PUSH2 0x2DD5 JUMP JUMPDEST DUP1 PUSH1 0x0 JUMPDEST DUP4 DUP2 LT ISZERO PUSH2 0x2EFE JUMPI DUP2 MLOAD PUSH2 0x2EE5 DUP8 DUP3 PUSH2 0x2E8A JUMP JUMPDEST SWAP7 POP PUSH2 0x2EF0 DUP4 PUSH2 0x2EA2 JUMP JUMPDEST SWAP3 POP POP PUSH1 0x1 DUP2 ADD SWAP1 POP PUSH2 0x2ED1 JUMP JUMPDEST POP POP POP POP POP POP JUMP JUMPDEST PUSH1 0x0 PUSH1 0xC0 DUP4 ADD PUSH1 0x0 DUP4 ADD MLOAD DUP5 DUP3 SUB PUSH1 0x0 DUP7 ADD MSTORE PUSH2 0x2F23 DUP3 DUP3 PUSH2 0x2D86 JUMP JUMPDEST SWAP2 POP POP PUSH1 0x20 DUP4 ADD MLOAD DUP5 DUP3 SUB PUSH1 0x20 DUP7 ADD MSTORE PUSH2 0x2F3D DUP3 DUP3 PUSH2 0x2D86 JUMP JUMPDEST SWAP2 POP POP PUSH1 0x40 DUP4 ADD MLOAD PUSH2 0x2F52 PUSH1 0x40 DUP7 ADD DUP3 PUSH2 0x2EAF JUMP JUMPDEST POP DUP1 SWAP2 POP POP SWAP3 SWAP2 POP POP JUMP JUMPDEST PUSH1 0x0 PUSH2 0x2F69 DUP4 DUP4 PUSH2 0x2F06 JUMP JUMPDEST SWAP1 POP SWAP3 SWAP2 POP POP JUMP JUMPDEST PUSH1 0x0 PUSH1 0x20 DUP3 ADD SWAP1 POP SWAP2 SWAP1 POP JUMP JUMPDEST PUSH1 0x0 PUSH2 0x2F89 DUP3 PUSH2 0x2D03 JUMP JUMPDEST PUSH2 0x2F93 DUP2 DUP6 PUSH2 0x2D0E JUMP JUMPDEST SWAP4 POP DUP4 PUSH1 0x20 DUP3 MUL DUP6 ADD PUSH2 0x2FA5 DUP6 PUSH2 0x2D1F JUMP JUMPDEST DUP1 PUSH1 0x0 JUMPDEST DUP6 DUP2 LT ISZERO PUSH2 0x2FE1 JUMPI DUP5 DUP5 SUB DUP10 MSTORE DUP2 MLOAD PUSH2 0x2FC2 DUP6 DUP3 PUSH2 0x2F5D JUMP JUMPDEST SWAP5 POP PUSH2 0x2FCD DUP4 PUSH2 0x2F71 JUMP JUMPDEST SWAP3 POP PUSH1 0x20 DUP11 ADD SWAP10 POP POP PUSH1 0x1 DUP2 ADD SWAP1 POP PUSH2 0x2FA9 JUMP JUMPDEST POP DUP3 SWAP8 POP DUP8 SWAP6 POP POP POP POP POP POP SWAP3 SWAP2 POP POP JUMP JUMPDEST PUSH1 0x0 PUSH1 0x20 DUP3 ADD SWAP1 POP DUP2 DUP2 SUB PUSH1 0x0 DUP4 ADD MSTORE PUSH2 0x300D DUP2 DUP5 PUSH2 0x2F7E JUMP JUMPDEST SWAP1 POP SWAP3 SWAP2 POP POP JUMP JUMPDEST PUSH1 0x0 DUP2 SWAP1 POP SWAP2 SWAP1 POP JUMP JUMPDEST PUSH2 0x3028 DUP2 PUSH2 0x3015 JUMP JUMPDEST DUP2 EQ PUSH2 0x3033 JUMPI PUSH1 0x0 DUP1 REVERT JUMPDEST POP JUMP JUMPDEST PUSH1 0x0 DUP2 CALLDATALOAD SWAP1 POP PUSH2 0x3045 DUP2 PUSH2 0x301F JUMP JUMPDEST SWAP3 SWAP2 POP POP JUMP JUMPDEST PUSH1 0x0 DUP1 REVERT JUMPDEST PUSH1 0x0 DUP1 REVERT JUMPDEST PUSH32 0x4E487B7100000000000000000000000000000000000000000000000000000000 PUSH1 0x0 MSTORE PUSH1 0x41 PUSH1 0x4 MSTORE PUSH1 0x24 PUSH1 0x0 REVERT JUMPDEST PUSH2 0x308D DUP3 PUSH2 0x2D75 JUMP JUMPDEST DUP2 ADD DUP2 DUP2 LT PUSH8 0xFFFFFFFFFFFFFFFF DUP3 GT OR ISZERO PUSH2 0x30AC JUMPI PUSH2 0x30AB PUSH2 0x3055 JUMP JUMPDEST JUMPDEST DUP1 PUSH1 0x40 MSTORE POP POP POP JUMP JUMPDEST PUSH1 0x0 PUSH2 0x30BF PUSH2 0x2C96 JUMP JUMPDEST SWAP1 POP PUSH2 0x30CB DUP3 DUP3 PUSH2 0x3084 JUMP JUMPDEST SWAP2 SWAP1 POP JUMP JUMPDEST PUSH1 0x0 PUSH8 0xFFFFFFFFFFFFFFFF DUP3 GT ISZERO PUSH2 0x30EB JUMPI PUSH2 0x30EA PUSH2 0x3055 JUMP JUMPDEST JUMPDEST PUSH2 0x30F4 DUP3 PUSH2 0x2D75 JUMP JUMPDEST SWAP1 POP PUSH1 0x20 DUP2 ADD SWAP1 POP SWAP2 SWAP1 POP JUMP JUMPDEST DUP3 DUP2 DUP4 CALLDATACOPY PUSH1 0x0 DUP4 DUP4 ADD MSTORE POP POP POP JUMP JUMPDEST PUSH1 0x0 PUSH2 0x3123 PUSH2 0x311E DUP5 PUSH2 0x30D0 JUMP JUMPDEST PUSH2 0x30B5 JUMP JUMPDEST SWAP1 POP DUP3 DUP2 MSTORE PUSH1 0x20 DUP2 ADD DUP5 DUP5 DUP5 ADD GT ISZERO PUSH2 0x313F JUMPI PUSH2 0x313E PUSH2 0x3050 JUMP JUMPDEST JUMPDEST PUSH2 0x314A DUP5 DUP3 DUP6 PUSH2 0x3101 JUMP JUMPDEST POP SWAP4 SWAP3 POP POP POP JUMP JUMPDEST PUSH1 0x0 DUP3 PUSH1 0x1F DUP4 ADD SLT PUSH2 0x3167 JUMPI PUSH2 0x3166 PUSH2 0x304B JUMP JUMPDEST JUMPDEST DUP2 CALLDATALOAD PUSH2 0x3177 DUP5 DUP3 PUSH1 0x20 DUP7 ADD PUSH2 0x3110 JUMP JUMPDEST SWAP2 POP POP SWAP3 SWAP2 POP POP JUMP JUMPDEST PUSH1 0x0 DUP1 PUSH1 0x0 PUSH1 0x60 DUP5 DUP7 SUB SLT ISZERO PUSH2 0x3199 JUMPI PUSH2 0x3198 PUSH2 0x2CA0 JUMP JUMPDEST JUMPDEST PUSH1 0x0 PUSH2 0x31A7 DUP7 DUP3 DUP8 ADD PUSH2 0x3036 JUMP JUMPDEST SWAP4 POP POP PUSH1 0x20 DUP5 ADD CALLDATALOAD PUSH8 0xFFFFFFFFFFFFFFFF DUP2 GT ISZERO PUSH2 0x31C8 JUMPI PUSH2 0x31C7 PUSH2 0x2CA5 JUMP JUMPDEST JUMPDEST PUSH2 0x31D4 DUP7 DUP3 DUP8 ADD PUSH2 0x3152 JUMP JUMPDEST SWAP3 POP POP PUSH1 0x40 DUP5 ADD CALLDATALOAD PUSH8 0xFFFFFFFFFFFFFFFF DUP2 GT ISZERO PUSH2 0x31F5 JUMPI PUSH2 0x31F4 PUSH2 0x2CA5 JUMP JUMPDEST JUMPDEST PUSH2 0x3201 DUP7 DUP3 DUP8 ADD PUSH2 0x3152 JUMP JUMPDEST SWAP2 POP POP SWAP3 POP SWAP3 POP SWAP3 JUMP JUMPDEST PUSH1 0x0 PUSH8 0xFFFFFFFFFFFFFFFF DUP3 GT ISZERO PUSH2 0x3226 JUMPI PUSH2 0x3225 PUSH2 0x3055 JUMP JUMPDEST JUMPDEST PUSH1 0x20 DUP3 MUL SWAP1 POP SWAP2 SWAP1 POP JUMP JUMPDEST PUSH1 0x0 DUP1 REVERT JUMPDEST PUSH1 0x0 PUSH8 0xFFFFFFFFFFFFFFFF DUP3 GT ISZERO PUSH2 0x3251 JUMPI PUSH2 0x3250 PUSH2 0x3055 JUMP JUMPDEST JUMPDEST PUSH1 0x20 DUP3 MUL SWAP1 POP SWAP2 SWAP1 POP JUMP JUMPDEST PUSH1 0x0 PUSH2 0x326F PUSH2 0x326A DUP5 PUSH2 0x3236 JUMP JUMPDEST PUSH2 0x30B5 JUMP JUMPDEST SWAP1 POP DUP1 PUSH1 0x20 DUP5 MUL DUP4 ADD DUP6 DUP2 GT ISZERO PUSH2 0x3289 JUMPI PUSH2 0x3288 PUSH2 0x3231 JUMP JUMPDEST JUMPDEST DUP4 JUMPDEST DUP2 DUP2 LT ISZERO PUSH2 0x32B2 JUMPI DUP1 PUSH2 0x329E DUP9 DUP3 PUSH2 0x2CC1 JUMP JUMPDEST DUP5 MSTORE PUSH1 0x20 DUP5 ADD SWAP4 POP POP PUSH1 0x20 DUP2 ADD SWAP1 POP PUSH2 0x328B JUMP JUMPDEST POP POP POP SWAP4 SWAP3 POP POP POP JUMP JUMPDEST PUSH1 0x0 DUP3 PUSH1 0x1F DUP4 ADD SLT PUSH2 0x32D1 JUMPI PUSH2 0x32D0 PUSH2 0x304B JUMP JUMPDEST JUMPDEST PUSH1 0x2 PUSH2 0x32DE DUP5 DUP3 DUP6 PUSH2 0x325C JUMP JUMPDEST SWAP2 POP POP SWAP3 SWAP2 POP POP JUMP JUMPDEST PUSH1 0x0 PUSH2 0x32FA PUSH2 0x32F5 DUP5 PUSH2 0x320B JUMP JUMPDEST PUSH2 0x30B5 JUMP JUMPDEST SWAP1 POP DUP1 PUSH1 0x40 DUP5 MUL DUP4 ADD DUP6 DUP2 GT ISZERO PUSH2 0x3314 JUMPI PUSH2 0x3313 PUSH2 0x3231 JUMP JUMPDEST JUMPDEST DUP4 JUMPDEST DUP2 DUP2 LT ISZERO PUSH2 0x333D JUMPI DUP1 PUSH2 0x3329 DUP9 DUP3 PUSH2 0x32BC JUMP JUMPDEST DUP5 MSTORE PUSH1 0x20 DUP5 ADD SWAP4 POP POP PUSH1 0x40 DUP2 ADD SWAP1 POP PUSH2 0x3316 JUMP JUMPDEST POP POP POP SWAP4 SWAP3 POP POP POP JUMP JUMPDEST PUSH1 0x0 DUP3 PUSH1 0x1F DUP4 ADD SLT PUSH2 0x335C JUMPI PUSH2 0x335B PUSH2 0x304B JUMP JUMPDEST JUMPDEST PUSH1 0x3 PUSH2 0x3369 DUP5 DUP3 DUP6 PUSH2 0x32E7 JUMP JUMPDEST SWAP2 POP POP SWAP3 SWAP2 POP POP JUMP JUMPDEST PUSH1 0x0 PUSH1 0xC0 DUP3 DUP5 SUB SLT ISZERO PUSH2 0x3388 JUMPI PUSH2 0x3387 PUSH2 0x2CA0 JUMP JUMPDEST JUMPDEST PUSH1 0x0 PUSH2 0x3396 DUP5 DUP3 DUP6 ADD PUSH2 0x3347 JUMP JUMPDEST SWAP2 POP POP SWAP3 SWAP2 POP POP JUMP JUMPDEST PUSH1 0x0 DUP2 ISZERO ISZERO SWAP1 POP SWAP2 SWAP1 POP JUMP JUMPDEST PUSH2 0x33B4 DUP2 PUSH2 0x339F JUMP JUMPDEST DUP3 MSTORE POP POP JUMP JUMPDEST PUSH1 0x0 PUSH1 0x20 DUP3 ADD SWAP1 POP PUSH2 0x33CF PUSH1 0x0 DUP4 ADD DUP5 PUSH2 0x33AB JUMP JUMPDEST SWAP3 SWAP2 POP POP JUMP JUMPDEST PUSH1 0x0 PUSH20 0xFFFFFFFFFFFFFFFFFFFFFFFFFFFFFFFFFFFFFFFF DUP3 AND SWAP1 POP SWAP2 SWAP1 POP JUMP JUMPDEST PUSH1 0x0 DUP2 SWAP1 POP SWAP2 SWAP1 POP JUMP JUMPDEST PUSH1 0x0 PUSH2 0x341A PUSH2 0x3415 PUSH2 0x3410 DUP5 PUSH2 0x33D5 JUMP JUMPDEST PUSH2 0x33F5 JUMP JUMPDEST PUSH2 0x33D5 JUMP JUMPDEST SWAP1 POP SWAP2 SWAP1 POP JUMP JUMPDEST PUSH1 0x0 PUSH2 0x342C DUP3 PUSH2 0x33FF JUMP JUMPDEST SWAP1 POP SWAP2 SWAP1 POP JUMP JUMPDEST PUSH1 0x0 PUSH2 0x343E DUP3 PUSH2 0x3421 JUMP JUMPDEST SWAP1 POP SWAP2 SWAP1 POP JUMP JUMPDEST PUSH2 0x344E DUP2 PUSH2 0x3433 JUMP JUMPDEST DUP3 MSTORE POP POP JUMP JUMPDEST PUSH1 0x0 PUSH1 0x20 DUP3 ADD SWAP1 POP PUSH2 0x3469 PUSH1 0x0 DUP4 ADD DUP5 PUSH2 0x3445 JUMP JUMPDEST SWAP3 SWAP2 POP POP JUMP JUMPDEST PUSH1 0x0 DUP3 DUP3 MSTORE PUSH1 0x20 DUP3 ADD SWAP1 POP SWAP3 SWAP2 POP POP JUMP JUMPDEST PUSH1 0x0 PUSH2 0x348B DUP3 PUSH2 0x2D2F JUMP JUMPDEST PUSH2 0x3495 DUP2 DUP6 PUSH2 0x346F JUMP JUMPDEST SWAP4 POP PUSH2 0x34A5 DUP2 DUP6 PUSH1 0x20 DUP7 ADD PUSH2 0x2D4B JUMP JUMPDEST PUSH2 0x34AE DUP2 PUSH2 0x2D75 JUMP JUMPDEST DUP5 ADD SWAP2 POP POP SWAP3 SWAP2 POP POP JUMP JUMPDEST PUSH1 0x0 PUSH1 0x20 DUP3 ADD SWAP1 POP DUP2 DUP2 SUB PUSH1 0x0 DUP4 ADD MSTORE PUSH2 0x34D3 DUP2 DUP5 PUSH2 0x3480 JUMP JUMPDEST SWAP1 POP SWAP3 SWAP2 POP POP JUMP JUMPDEST PUSH1 0x0 PUSH1 0x40 DUP3 ADD SWAP1 POP DUP2 DUP2 SUB PUSH1 0x0 DUP4 ADD MSTORE PUSH2 0x34F5 DUP2 DUP6 PUSH2 0x3480 JUMP JUMPDEST SWAP1 POP DUP2 DUP2 SUB PUSH1 0x20 DUP4 ADD MSTORE PUSH2 0x3509 DUP2 DUP5 PUSH2 0x3480 JUMP JUMPDEST SWAP1 POP SWAP4 SWAP3 POP POP POP JUMP JUMPDEST PUSH1 0x0 PUSH2 0x351D DUP3 PUSH2 0x33D5 JUMP JUMPDEST SWAP1 POP SWAP2 SWAP1 POP JUMP JUMPDEST PUSH2 0x352D DUP2 PUSH2 0x3512 JUMP JUMPDEST DUP2 EQ PUSH2 0x3538 JUMPI PUSH1 0x0 DUP1 REVERT JUMPDEST POP JUMP JUMPDEST PUSH1 0x0 DUP2 CALLDATALOAD SWAP1 POP PUSH2 0x354A DUP2 PUSH2 0x3524 JUMP JUMPDEST SWAP3 SWAP2 POP POP JUMP JUMPDEST PUSH1 0x0 PUSH1 0x20 DUP3 DUP5 SUB SLT ISZERO PUSH2 0x3566 JUMPI PUSH2 0x3565 PUSH2 0x2CA0 JUMP JUMPDEST JUMPDEST PUSH1 0x0 PUSH2 0x3574 DUP5 DUP3 DUP6 ADD PUSH2 0x353B JUMP JUMPDEST SWAP2 POP POP SWAP3 SWAP2 POP POP JUMP JUMPDEST PUSH1 0x0 PUSH1 0x40 DUP3 ADD SWAP1 POP PUSH2 0x3592 PUSH1 0x0 DUP4 ADD DUP6 PUSH2 0x2C6C JUMP JUMPDEST PUSH2 0x359F PUSH1 0x20 DUP4 ADD DUP5 PUSH2 0x33AB JUMP JUMPDEST SWAP4 SWAP3 POP POP POP JUMP JUMPDEST PUSH1 0x0 PUSH1 0x3 SWAP1 POP SWAP2 SWAP1 POP JUMP JUMPDEST PUSH1 0x0 DUP2 SWAP1 POP SWAP3 SWAP2 POP POP JUMP JUMPDEST PUSH1 0x0 DUP2 SWAP1 POP SWAP2 SWAP1 POP JUMP JUMPDEST PUSH1 0x0 PUSH1 0x20 DUP3 ADD SWAP1 POP SWAP2 SWAP1 POP JUMP JUMPDEST PUSH2 0x35DC DUP2 PUSH2 0x35A6 JUMP JUMPDEST PUSH2 0x35E6 DUP2 DUP5 PUSH2 0x35B1 JUMP JUMPDEST SWAP3 POP PUSH2 0x35F1 DUP3 PUSH2 0x35BC JUMP JUMPDEST DUP1 PUSH1 0x0 JUMPDEST DUP4 DUP2 LT ISZERO PUSH2 0x3622 JUMPI DUP2 MLOAD PUSH2 0x3609 DUP8 DUP3 PUSH2 0x2E8A JUMP JUMPDEST SWAP7 POP PUSH2 0x3614 DUP4 PUSH2 0x35C6 JUMP JUMPDEST SWAP3 POP POP PUSH1 0x1 DUP2 ADD SWAP1 POP PUSH2 0x35F5 JUMP JUMPDEST POP POP POP POP POP POP JUMP JUMPDEST PUSH1 0x0 PUSH1 0xC0 DUP3 ADD SWAP1 POP PUSH2 0x363F PUSH1 0x0 DUP4 ADD DUP5 PUSH2 0x35D3 JUMP JUMPDEST SWAP3 SWAP2 POP POP JUMP JUMPDEST PUSH1 0x0 PUSH8 0xFFFFFFFFFFFFFFFF DUP3 GT ISZERO PUSH2 0x3660 JUMPI PUSH2 0x365F PUSH2 0x3055 JUMP JUMPDEST JUMPDEST PUSH1 0x20 DUP3 MUL SWAP1 POP SWAP2 SWAP1 POP JUMP JUMPDEST PUSH1 0x0 PUSH2 0x367E PUSH2 0x3679 DUP5 PUSH2 0x3645 JUMP JUMPDEST PUSH2 0x30B5 JUMP JUMPDEST SWAP1 POP DUP1 PUSH1 0x40 DUP5 MUL DUP4 ADD DUP6 DUP2 GT ISZERO PUSH2 0x3698 JUMPI PUSH2 0x3697 PUSH2 0x3231 JUMP JUMPDEST JUMPDEST DUP4 JUMPDEST DUP2 DUP2 LT ISZERO PUSH2 0x36C1 JUMPI DUP1 PUSH2 0x36AD DUP9 DUP3 PUSH2 0x32BC JUMP JUMPDEST DUP5 MSTORE PUSH1 0x20 DUP5 ADD SWAP4 POP POP PUSH1 0x40 DUP2 ADD SWAP1 POP PUSH2 0x369A JUMP JUMPDEST POP POP POP SWAP4 SWAP3 POP POP POP JUMP JUMPDEST PUSH1 0x0 DUP3 PUSH1 0x1F DUP4 ADD SLT PUSH2 0x36E0 JUMPI PUSH2 0x36DF PUSH2 0x304B JUMP JUMPDEST JUMPDEST PUSH1 0x2 PUSH2 0x36ED DUP5 DUP3 DUP6 PUSH2 0x366B JUMP JUMPDEST SWAP2 POP POP SWAP3 SWAP2 POP POP JUMP JUMPDEST PUSH1 0x0 PUSH8 0xFFFFFFFFFFFFFFFF DUP3 GT ISZERO PUSH2 0x3711 JUMPI PUSH2 0x3710 PUSH2 0x3055 JUMP JUMPDEST JUMPDEST PUSH1 0x20 DUP3 MUL SWAP1 POP SWAP2 SWAP1 POP JUMP JUMPDEST PUSH1 0x0 PUSH2 0x372F PUSH2 0x372A DUP5 PUSH2 0x36F6 JUMP JUMPDEST PUSH2 0x30B5 JUMP JUMPDEST SWAP1 POP DUP1 PUSH1 0x20 DUP5 MUL DUP4 ADD DUP6 DUP2 GT ISZERO PUSH2 0x3749 JUMPI PUSH2 0x3748 PUSH2 0x3231 JUMP JUMPDEST JUMPDEST DUP4 JUMPDEST DUP2 DUP2 LT ISZERO PUSH2 0x3772 JUMPI DUP1 PUSH2 0x375E DUP9 DUP3 PUSH2 0x2CC1 JUMP JUMPDEST DUP5 MSTORE PUSH1 0x20 DUP5 ADD SWAP4 POP POP PUSH1 0x20 DUP2 ADD SWAP1 POP PUSH2 0x374B JUMP JUMPDEST POP POP POP SWAP4 SWAP3 POP POP POP JUMP JUMPDEST PUSH1 0x0 DUP3 PUSH1 0x1F DUP4 ADD SLT PUSH2 0x3791 JUMPI PUSH2 0x3790 PUSH2 0x304B JUMP JUMPDEST JUMPDEST PUSH1 0x11 PUSH2 0x379E DUP5 DUP3 DUP6 PUSH2 0x371C JUMP JUMPDEST SWAP2 POP POP SWAP3 SWAP2 POP POP JUMP JUMPDEST PUSH1 0x0 DUP1 PUSH1 0x0 DUP1 PUSH2 0x320 DUP6 DUP8 SUB SLT ISZERO PUSH2 0x37C2 JUMPI PUSH2 0x37C1 PUSH2 0x2CA0 JUMP JUMPDEST JUMPDEST PUSH1 0x0 PUSH2 0x37D0 DUP8 DUP3 DUP9 ADD PUSH2 0x32BC JUMP JUMPDEST SWAP5 POP POP PUSH1 0x40 PUSH2 0x37E1 DUP8 DUP3 DUP9 ADD PUSH2 0x36CB JUMP JUMPDEST SWAP4 POP POP PUSH1 0xC0 PUSH2 0x37F2 DUP8 DUP3 DUP9 ADD PUSH2 0x32BC JUMP JUMPDEST SWAP3 POP POP PUSH2 0x100 PUSH2 0x3804 DUP8 DUP3 DUP9 ADD PUSH2 0x377C JUMP JUMPDEST SWAP2 POP POP SWAP3 SWAP6 SWAP2 SWAP5 POP SWAP3 POP JUMP JUMPDEST PUSH1 0x0 DUP1 PUSH1 0x60 DUP4 DUP6 SUB SLT ISZERO PUSH2 0x3827 JUMPI PUSH2 0x3826 PUSH2 0x2CA0 JUMP JUMPDEST JUMPDEST PUSH1 0x0 PUSH2 0x3835 DUP6 DUP3 DUP7 ADD PUSH2 0x2CC1 JUMP JUMPDEST SWAP3 POP POP PUSH1 0x20 PUSH2 0x3846 DUP6 DUP3 DUP7 ADD PUSH2 0x32BC JUMP JUMPDEST SWAP2 POP POP SWAP3 POP SWAP3 SWAP1 POP JUMP JUMPDEST PUSH1 0x0 DUP2 SWAP1 POP SWAP3 SWAP2 POP POP JUMP JUMPDEST PUSH2 0x3864 DUP2 PUSH2 0x2DDF JUMP JUMPDEST PUSH2 0x386E DUP2 DUP5 PUSH2 0x3850 JUMP JUMPDEST SWAP3 POP PUSH2 0x3879 DUP3 PUSH2 0x2DF5 JUMP JUMPDEST DUP1 PUSH1 0x0 JUMPDEST DUP4 DUP2 LT ISZERO PUSH2 0x38AA JUMPI DUP2 MLOAD PUSH2 0x3891 DUP8 DUP3 PUSH2 0x2E0E JUMP JUMPDEST SWAP7 POP PUSH2 0x389C DUP4 PUSH2 0x2E26 JUMP JUMPDEST SWAP3 POP POP PUSH1 0x1 DUP2 ADD SWAP1 POP PUSH2 0x387D JUMP JUMPDEST POP POP POP POP POP POP JUMP JUMPDEST PUSH1 0x0 PUSH1 0x40 DUP3 ADD SWAP1 POP PUSH2 0x38C7 PUSH1 0x0 DUP4 ADD DUP5 PUSH2 0x385B JUMP JUMPDEST SWAP3 SWAP2 POP POP JUMP JUMPDEST PUSH1 0x0 DUP1 PUSH1 0x0 DUP1 PUSH1 0x80 DUP6 DUP8 SUB SLT ISZERO PUSH2 0x38E7 JUMPI PUSH2 0x38E6 PUSH2 0x2CA0 JUMP JUMPDEST JUMPDEST PUSH1 0x0 PUSH2 0x38F5 DUP8 DUP3 DUP9 ADD PUSH2 0x2CC1 JUMP JUMPDEST SWAP5 POP POP PUSH1 0x20 PUSH2 0x3906 DUP8 DUP3 DUP9 ADD PUSH2 0x2CC1 JUMP JUMPDEST SWAP4 POP POP PUSH1 0x40 PUSH2 0x3917 DUP8 DUP3 DUP9 ADD PUSH2 0x2CC1 JUMP JUMPDEST SWAP3 POP POP PUSH1 0x60 PUSH2 0x3928 DUP8 DUP3 DUP9 ADD PUSH2 0x2CC1 JUMP JUMPDEST SWAP2 POP POP SWAP3 SWAP6 SWAP2 SWAP5 POP SWAP3 POP JUMP JUMPDEST PUSH1 0x0 PUSH1 0x40 DUP3 ADD SWAP1 POP PUSH2 0x3949 PUSH1 0x0 DUP4 ADD DUP6 PUSH2 0x2C6C JUMP JUMPDEST PUSH2 0x3956 PUSH1 0x20 DUP4 ADD DUP5 PUSH2 0x2C6C JUMP JUMPDEST SWAP4 SWAP3 POP POP POP JUMP JUMPDEST PUSH32 0x4E487B7100000000000000000000000000000000000000000000000000000000 PUSH1 0x0 MSTORE PUSH1 0x22 PUSH1 0x4 MSTORE PUSH1 0x24 PUSH1 0x0 REVERT JUMPDEST PUSH1 0x0 PUSH1 0x2 DUP3 DIV SWAP1 POP PUSH1 0x1 DUP3 AND DUP1 PUSH2 0x39A4 JUMPI PUSH1 0x7F DUP3 AND SWAP2 POP JUMPDEST PUSH1 0x20 DUP3 LT DUP2 SUB PUSH2 0x39B7 JUMPI PUSH2 0x39B6 PUSH2 0x395D JUMP JUMPDEST JUMPDEST POP SWAP2 SWAP1 POP JUMP JUMPDEST PUSH32 0x596F7520617265206E6F7420746865207368617265686F6C6465722E00000000 PUSH1 0x0 DUP3 ADD MSTORE POP JUMP JUMPDEST PUSH1 0x0 PUSH2 0x39F3 PUSH1 0x1C DUP4 PUSH2 0x346F JUMP JUMPDEST SWAP2 POP PUSH2 0x39FE DUP3 PUSH2 0x39BD JUMP JUMPDEST PUSH1 0x20 DUP3 ADD SWAP1 POP SWAP2 SWAP1 POP JUMP JUMPDEST PUSH1 0x0 PUSH1 0x20 DUP3 ADD SWAP1 POP DUP2 DUP2 SUB PUSH1 0x0 DUP4 ADD MSTORE PUSH2 0x3A22 DUP2 PUSH2 0x39E6 JUMP JUMPDEST SWAP1 POP SWAP2 SWAP1 POP JUMP JUMPDEST PUSH32 0x4E487B7100000000000000000000000000000000000000000000000000000000 PUSH1 0x0 MSTORE PUSH1 0x11 PUSH1 0x4 MSTORE PUSH1 0x24 PUSH1 0x0 REVERT JUMPDEST PUSH1 0x0 PUSH2 0x3A63 DUP3 PUSH2 0x2C62 JUMP JUMPDEST SWAP2 POP PUSH2 0x3A6E DUP4 PUSH2 0x2C62 JUMP JUMPDEST SWAP3 POP DUP3 DUP3 ADD SWAP1 POP DUP1 DUP3 GT ISZERO PUSH2 0x3A86 JUMPI PUSH2 0x3A85 PUSH2 0x3A29 JUMP JUMPDEST JUMPDEST SWAP3 SWAP2 POP POP JUMP JUMPDEST PUSH32 0x4E487B7100000000000000000000000000000000000000000000000000000000 PUSH1 0x0 MSTORE PUSH1 0x32 PUSH1 0x4 MSTORE PUSH1 0x24 PUSH1 0x0 REVERT JUMPDEST PUSH32 0x496E76616C696420726F6F742121210000000000000000000000000000000000 PUSH1 0x0 DUP3 ADD MSTORE POP JUMP JUMPDEST PUSH1 0x0 PUSH2 0x3AF1 PUSH1 0xF DUP4 PUSH2 0x346F JUMP JUMPDEST SWAP2 POP PUSH2 0x3AFC DUP3 PUSH2 0x3ABB JUMP JUMPDEST PUSH1 0x20 DUP3 ADD SWAP1 POP SWAP2 SWAP1 POP JUMP JUMPDEST PUSH1 0x0 PUSH1 0x20 DUP3 ADD SWAP1 POP DUP2 DUP2 SUB PUSH1 0x0 DUP4 ADD MSTORE PUSH2 0x3B20 DUP2 PUSH2 0x3AE4 JUMP JUMPDEST SWAP1 POP SWAP2 SWAP1 POP JUMP JUMPDEST PUSH32 0x496E76616C6964206E756C6C6966696572212121000000000000000000000000 PUSH1 0x0 DUP3 ADD MSTORE POP JUMP JUMPDEST PUSH1 0x0 PUSH2 0x3B5D PUSH1 0x14 DUP4 PUSH2 0x346F JUMP JUMPDEST SWAP2 POP PUSH2 0x3B68 DUP3 PUSH2 0x3B27 JUMP JUMPDEST PUSH1 0x20 DUP3 ADD SWAP1 POP SWAP2 SWAP1 POP JUMP JUMPDEST PUSH1 0x0 PUSH1 0x20 DUP3 ADD SWAP1 POP DUP2 DUP2 SUB PUSH1 0x0 DUP4 ADD MSTORE PUSH2 0x3B8C DUP2 PUSH2 0x3B50 JUMP JUMPDEST SWAP1 POP SWAP2 SWAP1 POP JUMP JUMPDEST PUSH32 0x496E76616C6964207075626C6963206B65792121210000000000000000000000 PUSH1 0x0 DUP3 ADD MSTORE POP JUMP JUMPDEST PUSH1 0x0 PUSH2 0x3BC9 PUSH1 0x15 DUP4 PUSH2 0x346F JUMP JUMPDEST SWAP2 POP PUSH2 0x3BD4 DUP3 PUSH2 0x3B93 JUMP JUMPDEST PUSH1 0x20 DUP3 ADD SWAP1 POP SWAP2 SWAP1 POP JUMP JUMPDEST PUSH1 0x0 PUSH1 0x20 DUP3 ADD SWAP1 POP DUP2 DUP2 SUB PUSH1 0x0 DUP4 ADD MSTORE PUSH2 0x3BF8 DUP2 PUSH2 0x3BBC JUMP JUMPDEST SWAP1 POP SWAP2 SWAP1 POP JUMP JUMPDEST PUSH32 0x596F75206861766520766F74656420616C726561647921212100000000000000 PUSH1 0x0 DUP3 ADD MSTORE POP JUMP JUMPDEST PUSH1 0x0 PUSH2 0x3C35 PUSH1 0x19 DUP4 PUSH2 0x346F JUMP JUMPDEST SWAP2 POP PUSH2 0x3C40 DUP3 PUSH2 0x3BFF JUMP JUMPDEST PUSH1 0x20 DUP3 ADD SWAP1 POP SWAP2 SWAP1 POP JUMP JUMPDEST PUSH1 0x0 PUSH1 0x20 DUP3 ADD SWAP1 POP DUP2 DUP2 SUB PUSH1 0x0 DUP4 ADD MSTORE PUSH2 0x3C64 DUP2 PUSH2 0x3C28 JUMP JUMPDEST SWAP1 POP SWAP2 SWAP1 POP JUMP JUMPDEST PUSH1 0x0 DUP2 SWAP1 POP SWAP3 SWAP2 POP POP JUMP JUMPDEST PUSH2 0x3C7F DUP2 PUSH2 0x2DBF JUMP JUMPDEST PUSH2 0x3C89 DUP2 DUP5 PUSH2 0x3C6B JUMP JUMPDEST SWAP3 POP PUSH2 0x3C94 DUP3 PUSH2 0x2DD5 JUMP JUMPDEST DUP1 PUSH1 0x0 JUMPDEST DUP4 DUP2 LT ISZERO PUSH2 0x3CC5 JUMPI DUP2 MLOAD PUSH2 0x3CAC DUP8 DUP3 PUSH2 0x2E8A JUMP JUMPDEST SWAP7 POP PUSH2 0x3CB7 DUP4 PUSH2 0x2EA2 JUMP JUMPDEST SWAP3 POP POP PUSH1 0x1 DUP2 ADD SWAP1 POP PUSH2 0x3C98 JUMP JUMPDEST POP POP POP POP POP POP JUMP JUMPDEST PUSH1 0x0 PUSH1 0x11 SWAP1 POP SWAP2 SWAP1 POP JUMP JUMPDEST PUSH1 0x0 DUP2 SWAP1 POP SWAP3 SWAP2 POP POP JUMP JUMPDEST PUSH1 0x0 DUP2 SWAP1 POP SWAP2 SWAP1 POP JUMP JUMPDEST PUSH1 0x0 PUSH1 0x20 DUP3 ADD SWAP1 POP SWAP2 SWAP1 POP JUMP JUMPDEST PUSH2 0x3D03 DUP2 PUSH2 0x3CCD JUMP JUMPDEST PUSH2 0x3D0D DUP2 DUP5 PUSH2 0x3CD8 JUMP JUMPDEST SWAP3 POP PUSH2 0x3D18 DUP3 PUSH2 0x3CE3 JUMP JUMPDEST DUP1 PUSH1 0x0 JUMPDEST DUP4 DUP2 LT ISZERO PUSH2 0x3D49 JUMPI DUP2 MLOAD PUSH2 0x3D30 DUP8 DUP3 PUSH2 0x2E0E JUMP JUMPDEST SWAP7 POP PUSH2 0x3D3B DUP4 PUSH2 0x3CED JUMP JUMPDEST SWAP3 POP POP PUSH1 0x1 DUP2 ADD SWAP1 POP PUSH2 0x3D1C JUMP JUMPDEST POP POP POP POP POP POP JUMP JUMPDEST PUSH1 0x0 PUSH2 0x320 DUP3 ADD SWAP1 POP PUSH2 0x3D67 PUSH1 0x0 DUP4 ADD DUP8 PUSH2 0x385B JUMP JUMPDEST PUSH2 0x3D74 PUSH1 0x40 DUP4 ADD DUP7 PUSH2 0x3C76 JUMP JUMPDEST PUSH2 0x3D81 PUSH1 0xC0 DUP4 ADD DUP6 PUSH2 0x385B JUMP JUMPDEST PUSH2 0x3D8F PUSH2 0x100 DUP4 ADD DUP5 PUSH2 0x3CFA JUMP JUMPDEST SWAP6 SWAP5 POP POP POP POP POP JUMP JUMPDEST PUSH2 0x3DA1 DUP2 PUSH2 0x339F JUMP JUMPDEST DUP2 EQ PUSH2 0x3DAC JUMPI PUSH1 0x0 DUP1 REVERT JUMPDEST POP JUMP JUMPDEST PUSH1 0x0 DUP2 MLOAD SWAP1 POP PUSH2 0x3DBE DUP2 PUSH2 0x3D98 JUMP JUMPDEST SWAP3 SWAP2 POP POP JUMP JUMPDEST PUSH1 0x0 PUSH1 0x20 DUP3 DUP5 SUB SLT ISZERO PUSH2 0x3DDA JUMPI PUSH2 0x3DD9 PUSH2 0x2CA0 JUMP JUMPDEST JUMPDEST PUSH1 0x0 PUSH2 0x3DE8 DUP5 DUP3 DUP6 ADD PUSH2 0x3DAF JUMP JUMPDEST SWAP2 POP POP SWAP3 SWAP2 POP POP JUMP JUMPDEST PUSH32 0x496E76616C69642070726F6F6621212100000000000000000000000000000000 PUSH1 0x0 DUP3 ADD MSTORE POP JUMP JUMPDEST PUSH1 0x0 PUSH2 0x3E27 PUSH1 0x10 DUP4 PUSH2 0x346F JUMP JUMPDEST SWAP2 POP PUSH2 0x3E32 DUP3 PUSH2 0x3DF1 JUMP JUMPDEST PUSH1 0x20 DUP3 ADD SWAP1 POP SWAP2 SWAP1 POP JUMP JUMPDEST PUSH1 0x0 PUSH1 0x20 DUP3 ADD SWAP1 POP DUP2 DUP2 SUB PUSH1 0x0 DUP4 ADD MSTORE PUSH2 0x3E56 DUP2 PUSH2 0x3E1A JUMP JUMPDEST SWAP1 POP SWAP2 SWAP1 POP JUMP JUMPDEST PUSH1 0x0 PUSH2 0x3E68 DUP3 PUSH2 0x2C62 JUMP JUMPDEST SWAP2 POP PUSH2 0x3E73 DUP4 PUSH2 0x2C62 JUMP JUMPDEST SWAP3 POP DUP3 DUP3 MUL PUSH2 0x3E81 DUP2 PUSH2 0x2C62 JUMP JUMPDEST SWAP2 POP DUP3 DUP3 DIV DUP5 EQ DUP4 ISZERO OR PUSH2 0x3E98 JUMPI PUSH2 0x3E97 PUSH2 0x3A29 JUMP JUMPDEST JUMPDEST POP SWAP3 SWAP2 POP POP JUMP JUMPDEST PUSH1 0x0 PUSH2 0x3EAA DUP3 PUSH2 0x2C62 JUMP JUMPDEST SWAP2 POP PUSH32 0xFFFFFFFFFFFFFFFFFFFFFFFFFFFFFFFFFFFFFFFFFFFFFFFFFFFFFFFFFFFFFFFF DUP3 SUB PUSH2 0x3EDC JUMPI PUSH2 0x3EDB PUSH2 0x3A29 JUMP JUMPDEST JUMPDEST PUSH1 0x1 DUP3 ADD SWAP1 POP SWAP2 SWAP1 POP JUMP JUMPDEST PUSH1 0x0 PUSH1 0x2 SWAP1 POP SWAP2 SWAP1 POP JUMP JUMPDEST PUSH1 0x0 DUP2 SWAP1 POP SWAP2 SWAP1 POP JUMP JUMPDEST PUSH1 0x0 PUSH1 0x2 SWAP1 POP SWAP2 SWAP1 POP JUMP JUMPDEST PUSH1 0x0 DUP2 SWAP1 POP SWAP2 SWAP1 POP JUMP JUMPDEST PUSH1 0x0 DUP2 PUSH1 0x0 SHR SWAP1 POP SWAP2 SWAP1 POP JUMP JUMPDEST PUSH1 0x0 DUP2 SWAP1 POP SWAP2 SWAP1 POP JUMP JUMPDEST PUSH1 0x0 PUSH2 0x3F3B PUSH2 0x3F36 DUP4 PUSH2 0x3F11 JUMP JUMPDEST PUSH2 0x3F1E JUMP JUMPDEST SWAP1 POP SWAP2 SWAP1 POP JUMP JUMPDEST PUSH1 0x0 PUSH2 0x3F4E DUP3 SLOAD PUSH2 0x3F28 JUMP JUMPDEST SWAP1 POP SWAP2 SWAP1 POP JUMP JUMPDEST PUSH1 0x0 PUSH1 0x1 DUP3 ADD SWAP1 POP SWAP2 SWAP1 POP JUMP JUMPDEST PUSH2 0x3F6B DUP2 PUSH2 0x3EFC JUMP JUMPDEST PUSH2 0x3F75 DUP2 DUP5 PUSH2 0x2DEA JUMP JUMPDEST SWAP3 POP PUSH2 0x3F80 DUP3 PUSH2 0x3F07 JUMP JUMPDEST DUP1 PUSH1 0x0 JUMPDEST DUP4 DUP2 LT ISZERO PUSH2 0x3FB8 JUMPI PUSH2 0x3F95 DUP3 PUSH2 0x3F42 JUMP JUMPDEST PUSH2 0x3F9F DUP8 DUP3 PUSH2 0x2E0E JUMP JUMPDEST SWAP7 POP PUSH2 0x3FAA DUP4 PUSH2 0x3F55 JUMP JUMPDEST SWAP3 POP POP PUSH1 0x1 DUP2 ADD SWAP1 POP PUSH2 0x3F84 JUMP JUMPDEST POP POP POP POP POP POP JUMP JUMPDEST PUSH1 0x0 PUSH2 0x3FCC DUP4 DUP4 PUSH2 0x3F62 JUMP JUMPDEST PUSH1 0x40 DUP4 ADD SWAP1 POP SWAP3 SWAP2 POP POP JUMP JUMPDEST PUSH1 0x0 PUSH1 0x2 DUP3 ADD SWAP1 POP SWAP2 SWAP1 POP JUMP JUMPDEST PUSH2 0x3FEE DUP2 PUSH2 0x3EE7 JUMP JUMPDEST PUSH2 0x3FF8 DUP2 DUP5 PUSH2 0x3C6B JUMP JUMPDEST SWAP3 POP PUSH2 0x4003 DUP3 PUSH2 0x3EF2 JUMP JUMPDEST DUP1 PUSH1 0x0 JUMPDEST DUP4 DUP2 LT ISZERO PUSH2 0x4033 JUMPI DUP2 PUSH2 0x401A DUP8 DUP3 PUSH2 0x3FC0 JUMP JUMPDEST SWAP7 POP PUSH2 0x4025 DUP4 PUSH2 0x3FD8 JUMP JUMPDEST SWAP3 POP POP PUSH1 0x1 DUP2 ADD SWAP1 POP PUSH2 0x4007 JUMP JUMPDEST POP POP POP POP POP POP JUMP JUMPDEST PUSH1 0x0 PUSH2 0x180 DUP3 ADD SWAP1 POP PUSH2 0x4051 PUSH1 0x0 DUP4 ADD DUP7 PUSH2 0x3FE5 JUMP JUMPDEST PUSH2 0x405E PUSH1 0x80 DUP4 ADD DUP6 PUSH2 0x3FE5 JUMP JUMPDEST PUSH2 0x406C PUSH2 0x100 DUP4 ADD DUP5 PUSH2 0x3FE5 JUMP JUMPDEST SWAP5 SWAP4 POP POP POP POP JUMP JUMPDEST PUSH32 0x4E487B7100000000000000000000000000000000000000000000000000000000 PUSH1 0x0 MSTORE PUSH1 0x12 PUSH1 0x4 MSTORE PUSH1 0x24 PUSH1 0x0 REVERT JUMPDEST PUSH1 0x0 PUSH2 0x40AE DUP3 PUSH2 0x2C62 JUMP JUMPDEST SWAP2 POP PUSH2 0x40B9 DUP4 PUSH2 0x2C62 JUMP JUMPDEST SWAP3 POP DUP3 DUP3 SUB SWAP1 POP DUP2 DUP2 GT ISZERO PUSH2 0x40D1 JUMPI PUSH2 0x40D0 PUSH2 0x3A29 JUMP JUMPDEST JUMPDEST SWAP3 SWAP2 POP POP JUMP JUMPDEST PUSH1 0x0 PUSH8 0xFFFFFFFFFFFFFFFF DUP3 GT ISZERO PUSH2 0x40F2 JUMPI PUSH2 0x40F1 PUSH2 0x3055 JUMP JUMPDEST JUMPDEST PUSH1 0x20 DUP3 MUL SWAP1 POP PUSH1 0x20 DUP2 ADD SWAP1 POP SWAP2 SWAP1 POP JUMP JUMPDEST PUSH1 0x0 DUP2 MLOAD SWAP1 POP PUSH2 0x4112 DUP2 PUSH2 0x2CAA JUMP JUMPDEST SWAP3 SWAP2 POP POP JUMP JUMPDEST PUSH1 0x0 PUSH2 0x412B PUSH2 0x4126 DUP5 PUSH2 0x40D7 JUMP JUMPDEST PUSH2 0x30B5 JUMP JUMPDEST SWAP1 POP DUP1 DUP4 DUP3 MSTORE PUSH1 0x20 DUP3 ADD SWAP1 POP PUSH1 0x20 DUP5 MUL DUP4 ADD DUP6 DUP2 GT ISZERO PUSH2 0x414E JUMPI PUSH2 0x414D PUSH2 0x3231 JUMP JUMPDEST JUMPDEST DUP4 JUMPDEST DUP2 DUP2 LT ISZERO PUSH2 0x4177 JUMPI DUP1 PUSH2 0x4163 DUP9 DUP3 PUSH2 0x4103 JUMP JUMPDEST DUP5 MSTORE PUSH1 0x20 DUP5 ADD SWAP4 POP POP PUSH1 0x20 DUP2 ADD SWAP1 POP PUSH2 0x4150 JUMP JUMPDEST POP POP POP SWAP4 SWAP3 POP POP POP JUMP JUMPDEST PUSH1 0x0 DUP3 PUSH1 0x1F DUP4 ADD SLT PUSH2 0x4196 JUMPI PUSH2 0x4195 PUSH2 0x304B JUMP JUMPDEST JUMPDEST DUP2 MLOAD PUSH2 0x41A6 DUP5 DUP3 PUSH1 0x20 DUP7 ADD PUSH2 0x4118 JUMP JUMPDEST SWAP2 POP POP SWAP3 SWAP2 POP POP JUMP JUMPDEST PUSH1 0x0 PUSH1 0x20 DUP3 DUP5 SUB SLT ISZERO PUSH2 0x41C5 JUMPI PUSH2 0x41C4 PUSH2 0x2CA0 JUMP JUMPDEST JUMPDEST PUSH1 0x0 DUP3 ADD MLOAD PUSH8 0xFFFFFFFFFFFFFFFF DUP2 GT ISZERO PUSH2 0x41E3 JUMPI PUSH2 0x41E2 PUSH2 0x2CA5 JUMP JUMPDEST JUMPDEST PUSH2 0x41EF DUP5 DUP3 DUP6 ADD PUSH2 0x4181 JUMP JUMPDEST SWAP2 POP POP SWAP3 SWAP2 POP POP JUMP JUMPDEST PUSH1 0x0 PUSH2 0x4203 DUP3 PUSH2 0x2C62 JUMP JUMPDEST SWAP2 POP PUSH2 0x420E DUP4 PUSH2 0x2C62 JUMP JUMPDEST SWAP3 POP DUP3 PUSH2 0x421E JUMPI PUSH2 0x421D PUSH2 0x4074 JUMP JUMPDEST JUMPDEST DUP3 DUP3 DIV SWAP1 POP SWAP3 SWAP2 POP POP JUMP JUMPDEST PUSH1 0x0 PUSH2 0x4234 DUP3 PUSH2 0x2C62 JUMP JUMPDEST SWAP2 POP PUSH2 0x423F DUP4 PUSH2 0x2C62 JUMP JUMPDEST SWAP3 POP DUP3 PUSH2 0x424F JUMPI PUSH2 0x424E PUSH2 0x4074 JUMP JUMPDEST JUMPDEST DUP3 DUP3 MOD SWAP1 POP SWAP3 SWAP2 POP POP JUMP JUMPDEST PUSH32 0x4E487B7100000000000000000000000000000000000000000000000000000000 PUSH1 0x0 MSTORE PUSH1 0x21 PUSH1 0x4 MSTORE PUSH1 0x24 PUSH1 0x0 REVERT JUMPDEST PUSH1 0x0 PUSH8 0xFFFFFFFFFFFFFFFF DUP3 AND SWAP1 POP SWAP2 SWAP1 POP JUMP JUMPDEST PUSH2 0x42A6 DUP2 PUSH2 0x4289 JUMP JUMPDEST DUP3 MSTORE POP POP JUMP JUMPDEST PUSH1 0x0 DUP2 MLOAD SWAP1 POP SWAP2 SWAP1 POP JUMP JUMPDEST PUSH1 0x0 DUP3 DUP3 MSTORE PUSH1 0x20 DUP3 ADD SWAP1 POP SWAP3 SWAP2 POP POP JUMP JUMPDEST PUSH1 0x0 PUSH2 0x42D3 DUP3 PUSH2 0x42AC JUMP JUMPDEST PUSH2 0x42DD DUP2 DUP6 PUSH2 0x42B7 JUMP JUMPDEST SWAP4 POP PUSH2 0x42ED DUP2 DUP6 PUSH1 0x20 DUP7 ADD PUSH2 0x2D4B JUMP JUMPDEST PUSH2 0x42F6 DUP2 PUSH2 0x2D75 JUMP JUMPDEST DUP5 ADD SWAP2 POP POP SWAP3 SWAP2 POP POP JUMP JUMPDEST PUSH1 0x0 PUSH2 0xFFFF DUP3 AND SWAP1 POP SWAP2 SWAP1 POP JUMP JUMPDEST PUSH2 0x4318 DUP2 PUSH2 0x4301 JUMP JUMPDEST DUP3 MSTORE POP POP JUMP JUMPDEST PUSH1 0x0 PUSH4 0xFFFFFFFF DUP3 AND SWAP1 POP SWAP2 SWAP1 POP JUMP JUMPDEST PUSH2 0x4337 DUP2 PUSH2 0x431E JUMP JUMPDEST DUP3 MSTORE POP POP JUMP JUMPDEST PUSH2 0x4346 DUP2 PUSH2 0x3015 JUMP JUMPDEST DUP3 MSTORE POP POP JUMP JUMPDEST PUSH1 0x0 PUSH1 0xA0 DUP3 ADD SWAP1 POP PUSH2 0x4361 PUSH1 0x0 DUP4 ADD DUP9 PUSH2 0x429D JUMP JUMPDEST DUP2 DUP2 SUB PUSH1 0x20 DUP4 ADD MSTORE PUSH2 0x4373 DUP2 DUP8 PUSH2 0x42C8 JUMP JUMPDEST SWAP1 POP PUSH2 0x4382 PUSH1 0x40 DUP4 ADD DUP7 PUSH2 0x430F JUMP JUMPDEST PUSH2 0x438F PUSH1 0x60 DUP4 ADD DUP6 PUSH2 0x432E JUMP JUMPDEST PUSH2 0x439C PUSH1 0x80 DUP4 ADD DUP5 PUSH2 0x433D JUMP JUMPDEST SWAP7 SWAP6 POP POP POP POP POP POP JUMP JUMPDEST PUSH1 0x0 DUP2 MLOAD SWAP1 POP PUSH2 0x43B5 DUP2 PUSH2 0x301F JUMP JUMPDEST SWAP3 SWAP2 POP POP JUMP JUMPDEST PUSH1 0x0 PUSH1 0x20 DUP3 DUP5 SUB SLT ISZERO PUSH2 0x43D1 JUMPI PUSH2 0x43D0 PUSH2 0x2CA0 JUMP JUMPDEST JUMPDEST PUSH1 0x0 PUSH2 0x43DF DUP5 DUP3 DUP6 ADD PUSH2 0x43A6 JUMP JUMPDEST SWAP2 POP POP SWAP3 SWAP2 POP POP JUMP JUMPDEST PUSH1 0x0 DUP2 PUSH1 0x1 SHR SWAP1 POP SWAP2 SWAP1 POP JUMP JUMPDEST PUSH1 0x0 DUP1 DUP3 SWAP2 POP DUP4 SWAP1 POP JUMPDEST PUSH1 0x1 DUP6 GT ISZERO PUSH2 0x443F JUMPI DUP1 DUP7 DIV DUP2 GT ISZERO PUSH2 0x441B JUMPI PUSH2 0x441A PUSH2 0x3A29 JUMP JUMPDEST JUMPDEST PUSH1 0x1 DUP6 AND ISZERO PUSH2 0x442A JUMPI DUP1 DUP3 MUL SWAP2 POP JUMPDEST DUP1 DUP2 MUL SWAP1 POP PUSH2 0x4438 DUP6 PUSH2 0x43E8 JUMP JUMPDEST SWAP5 POP PUSH2 0x43FF JUMP JUMPDEST SWAP5 POP SWAP5 SWAP3 POP POP POP JUMP JUMPDEST PUSH1 0x0 DUP3 PUSH2 0x4458 JUMPI PUSH1 0x1 SWAP1 POP PUSH2 0x4514 JUMP JUMPDEST DUP2 PUSH2 0x4466 JUMPI PUSH1 0x0 SWAP1 POP PUSH2 0x4514 JUMP JUMPDEST DUP2 PUSH1 0x1 DUP2 EQ PUSH2 0x447C JUMPI PUSH1 0x2 DUP2 EQ PUSH2 0x4486 JUMPI PUSH2 0x44B5 JUMP JUMPDEST PUSH1 0x1 SWAP2 POP POP PUSH2 0x4514 JUMP JUMPDEST PUSH1 0xFF DUP5 GT ISZERO PUSH2 0x4498 JUMPI PUSH2 0x4497 PUSH2 0x3A29 JUMP JUMPDEST JUMPDEST DUP4 PUSH1 0x2 EXP SWAP2 POP DUP5 DUP3 GT ISZERO PUSH2 0x44AF JUMPI PUSH2 0x44AE PUSH2 0x3A29 JUMP JUMPDEST JUMPDEST POP PUSH2 0x4514 JUMP JUMPDEST POP PUSH1 0x20 DUP4 LT PUSH2 0x133 DUP4 LT AND PUSH1 0x4E DUP5 LT PUSH1 0xB DUP5 LT AND OR ISZERO PUSH2 0x44EA JUMPI DUP3 DUP3 EXP SWAP1 POP DUP4 DUP2 GT ISZERO PUSH2 0x44E5 JUMPI PUSH2 0x44E4 PUSH2 0x3A29 JUMP JUMPDEST JUMPDEST PUSH2 0x4514 JUMP JUMPDEST PUSH2 0x44F7 DUP5 DUP5 DUP5 PUSH1 0x1 PUSH2 0x43F5 JUMP JUMPDEST SWAP3 POP SWAP1 POP DUP2 DUP5 DIV DUP2 GT ISZERO PUSH2 0x450E JUMPI PUSH2 0x450D PUSH2 0x3A29 JUMP JUMPDEST JUMPDEST DUP2 DUP2 MUL SWAP1 POP JUMPDEST SWAP4 SWAP3 POP POP POP JUMP JUMPDEST PUSH1 0x0 PUSH2 0x4526 DUP3 PUSH2 0x2C62 JUMP JUMPDEST SWAP2 POP PUSH2 0x4531 DUP4 PUSH2 0x2C62 JUMP JUMPDEST SWAP3 POP PUSH2 0x455E PUSH32 0xFFFFFFFFFFFFFFFFFFFFFFFFFFFFFFFFFFFFFFFFFFFFFFFFFFFFFFFFFFFFFFFF DUP5 DUP5 PUSH2 0x4448 JUMP JUMPDEST SWAP1 POP SWAP3 SWAP2 POP POP JUMP INVALID LOG2 PUSH5 0x6970667358 0x22 SLT KECCAK256 0xB9 0xFC CREATE 0xD0 0xD9 0x5D 0x4A PUSH14 0x92C163AB4D755C2A2C151F722F25 DUP12 PUSH1 0x53 LOG2 0xAF 0xAF PUSH29 0x90461C64736F6C63430008130033000000000000000000000000000000 "},"methodIdentifiers":{"babyAdd(uint256,uint256,uint256,uint256)":"a54a0868","babyMul(uint256,uint256[2])":"8fe4cb79","candidates(uint256)":"3477ee2e","getCandidates()":"06a49fce","getShares(uint256)":"6f7267b7","handleOracleFulfillment(bytes32,bytes,bytes)":"0ca76175","hasVoted_nullifier(uint256)":"4be9c9d8","nullifier()":"43bf6cf0","oracleSourceCode()":"2be6514b","pk(uint256)":"05b6dc1e","resultVoting(uint256)":"e168f6e2","root()":"ebf0c717","shareholderSubmitInfo(uint256)":"17031d6d","submitSi(uint256[2][3])":"0e6ce084","subscriptionId()":"09c1ba2e","totalSubmit()":"2dd342d3","verifier()":"2b7ac3f3","vote(uint256[2],uint256[2][2],uint256[2],uint256[17])":"84ade889","votingDeadline()":"036ee850","whiteList(address)":"372c12b1"}}}}}