{"contracts/verifier.sol":{"Groth16Verifier":{"abi":[{"inputs":[{"internalType":"uint256[2]","name":"_pA","type":"uint256[2]"},{"internalType":"uint256[2][2]","name":"_pB","type":"uint256[2][2]"},{"internalType":"uint256[2]","name":"_pC","type":"uint256[2]"},{"internalType":"uint256[17]","name":"_pubSignals","type":"uint256[17]"}],"name":"verifyProof","outputs":[{"internalType":"bool","name":"","type":"bool"}],"stateMutability":"view","type":"function"}],"evm":{"bytecode":{"linkReferences":{},"object":"608060405234801561001057600080fd5b50610be2806100206000396000f3fe608060405234801561001057600080fd5b506004361061002b5760003560e01c8063c1940a3614610030575b600080fd5b61004a60048036038101906100459190610b0d565b610060565b6040516100579190610b91565b60405180910390f35b6000610995565b7f30644e72e131a029b85045b68181585d2833e84879b9709143e1f593f00000018110610098576000805260206000f35b50565b600060405183815284602082015285604082015260408160608360076107d05a03fa9150816100ce576000805260206000f35b825160408201526020830151606082015260408360808360066107d05a03fa9150816100fe576000805260206000f35b505050505050565b600060808601600087017f1bd4e77b9caf5649900f0d6e04cdacfb5445c1536e35683749a857056523f45f81527f08ce46861b017e42f3fbd6e8c6d76f727698ff6c4c83f6ccda38b532934c825660208201526101a960008801357f20341547051cc98baa69a98b5521baca957b91af0f7b5ab68a133ee0331ae4ed7f1aacb5868318dec12ac331b37afae686d8760c0e1a7c78084990f28dfb299b548461009b565b6101f960208801357f215f69d5a65de26949d9aec7c5087824149903c13383ffa14d05144ee151ddc07f1ec0511c7bdb34606ba27e9ecc61d8d6b195916a317923182d72bdc76597fa418461009b565b61024960408801357f050c76c7d5f496c8e9a4634eda4ceae00296641f9e92a4e884ca620ca06e61117f18d31e4938fd330bbd8ce91ea9c8db702a8ef39f6ce5624a4d34b5bc0a35ff6f8461009b565b61029960608801357f1109974e3edcfce8c8fbc0755c2d77afedebec7f6b197ea174bfae0bca41b9d27f1d906d66112e0f2f48ad3ef5e9099328c4f71a7ebeffa57bb4eb6c90cdb6c1368461009b565b6102e960808801357f1ece0459ce5f8d61a4a8f619291a42733722cebffa2e8e979195426dc49d2df77f2175157ad3db7178cabb95436a1a586953c744ba3c557b7a7eafd558ebd26d8c8461009b565b61033960a08801357f2b27deb0b85100171998cb5342202986647f8e38fb29b400f62015e5ba8dbc3b7f0e798acc004610ccaf6c8fccfb73a066b52ccd38f39afb9e3a67f15d83f9dbaa8461009b565b61038960c08801357f0884200d490b29b574ad405f091c93a51a1c0c48492044e703e3458ede21a2b27f13c27414d5d55ec7ab508a56195aaa1b559810052d96e7cb965a3a32f479d9748461009b565b6103d960e08801357f2c17a594834d946bf1508bef222901dce606ddfb9848bd750c2935d3d2b62c457f2f85d766f2aa40f1eb8b2f693a7bdceed453474e2277196f9e2c51066390ec938461009b565b61042a6101008801357f0b32ac22f0a3fa3b246e85c6cb13f577452ab0254a5d2e2ab884e2a35d4f7e907f1a422aa0cdf7aabca70b147781b5ae6596d3ce4e55257de039b975003d3e22488461009b565b61047b6101208801357f29a5db7063b2b3f8f18e23e2acd3c85fc7324bdceef3e6402ddd7819434d1af47f2f41341b57e1dd6b45cac2f1f536d250106a1d4cf5fc09069a209e5b17c8ef0d8461009b565b6104cc6101408801357f124b332705ed4e859de6d732db230016b3b98416724a0d7ba141d776f6d90db67f1232a2cd26a840f58f734cf8cf3b1f2a5b8585566e3db9035452a2ed7c8a2a458461009b565b61051d6101608801357f01b3aec4dbdfb45fab342c5ddd2cb5d3fb56313325628205f59c33109d91b69a7f13df7e4e7ac1bf31fa0d0f7d79d7ca036b63a98d2e2b89ac054c946c53aa2f1d8461009b565b61056e6101808801357f18d26ceeb82e8662e04b2ae6a905d8821d93d4462cf6f80f90abe52979aa90eb7f127bf83b46979fe8e942ae4524b27df396d07460b81b11d08db3e4956f24da198461009b565b6105bf6101a08801357f10362cc2fb3ab01a0af944fd21c2a83669c0159c09ae260b92f9cc845699b5207f1af7bdddf225fb1879a9ae1e770e26bfd98ed505c4c5a9e33b85535d8343e26e8461009b565b61060f6101c08801357f15b2832af10a71fdd0686156afb6b59ad6a1e29b42319d983ec7196bb4c70e0c7e371843fc49feed7c61d5c526dd952cc178dc80dfdd13b4a89064988ba665418461009b565b6106606101e08801357f27f6925b45aaac8dda5a04e1bde35fed1eb3b2766b437f1d21a13b7c226dcb7f7f2ec54c550759bea1907773ffd1a2cb0778d33102a95310dd9bd70a1ddbd967628461009b565b6106b16102008801357f0a81ac94474b8ae6287ea959bae5cf57503df7e8de82e96a8c5a866151d14ae47f180f9212d34d1e1dc6f0b977cc56c43d009d5c8d55d033fe1096a148a8cb0a0e8461009b565b833582527f30644e72e131a029b85045b68181585d97816a916871ca8d3c208c16d87cfd4760208501357f30644e72e131a029b85045b68181585d97816a916871ca8d3c208c16d87cfd4703066020830152843560408301526020850135606083015260408501356080830152606085013560a08301527f038ce37eeedf16903b9e80f824e4a34567fcf381f05adfe660582d1b923d82fa60c08301527f0ee3ae92779a1605ac796d0097261fbea9082dc2fa9f8223732c435ee9b87c9260e08301527f0ac97f408cbec82057acc1a36a6eed22c2122caab88a35fd5f80358798a0dbad6101008301527f1a1b77af4e16a696756e53a1b15bbeb96c4d46ccb86c6086292bd4fffc4977876101208301527f097bc15cb5104836d688b093b3e5adec58def94f15d6dd979af8a3503c6b05b56101408301527f2bd4e5c49481692cd73540003f5697cd4f974520d60840acdba4ec8534a75462610160830152600088015161018083015260206000018801516101a08301527f198e9393920d483a7260bfb731fb5d25f1aa493335a9e71297e485b7aef312c26101c08301527f1800deef121f1e76426a00665e5c4479674322d4f75edadd46debd5cd992f6ed6101e08301527f090689d0585ff075ec9e99ad690c3395bc4b313370b38ef355acdadcd122975b6102008301527f12c85ea5db8c6deb4aab71808dcb408fe3d1e7690c43d37b4ce6cc0166fa7daa610220830152853561024083015260208601356102608301527f1c50e64969c4de05ce6746b74ee2d4d7b97d7d6d9e8b607aaf3a94064cfd92f46102808301527f2be2dabfc89393079a7b3e02b0f156ce0e03af7ecece00bc9bd005d19ee4eb606102a08301527f2c023001eea979a107ff5a9ad889c4d137d1fec120be34014ef07ee8df7707666102c08301527f2e52912b17c1789f8d7751fb5a9a1ebd9aa438148028a21c8d59abc58db1e6586102e08301526020826103008460086107d05a03fa82518116935050505095945050505050565b60405161038081016040526109ad6000840135610067565b6109ba6020840135610067565b6109c76040840135610067565b6109d46060840135610067565b6109e16080840135610067565b6109ee60a0840135610067565b6109fb60c0840135610067565b610a0860e0840135610067565b610a16610100840135610067565b610a24610120840135610067565b610a32610140840135610067565b610a40610160840135610067565b610a4e610180840135610067565b610a5c6101a0840135610067565b610a6a6101c0840135610067565b610a786101e0840135610067565b610a86610200840135610067565b610a93818486888a610106565b8060005260206000f35b600080fd5b600080fd5b600081905082602060020282011115610ac357610ac2610aa2565b5b92915050565b600081905082604060020282011115610ae557610ae4610aa2565b5b92915050565b600081905082602060110282011115610b0757610b06610aa2565b5b92915050565b6000806000806103208587031215610b2857610b27610a9d565b5b6000610b3687828801610aa7565b9450506040610b4787828801610ac9565b93505060c0610b5887828801610aa7565b925050610100610b6a87828801610aeb565b91505092959194509250565b60008115159050919050565b610b8b81610b76565b82525050565b6000602082019050610ba66000830184610b82565b9291505056fea2646970667358221220f440e1c774a4875c2d0cf5ceeac83dfdbe2bf423e88ee4b964f26c42f92d428464736f6c63430008130033","opcodes":"PUSH1 0x80 PUSH1 0x40 MSTORE CALLVALUE DUP1 ISZERO PUSH2 0x10 JUMPI PUSH1 0x0 DUP1 REVERT JUMPDEST POP PUSH2 0xBE2 DUP1 PUSH2 0x20 PUSH1 0x0 CODECOPY PUSH1 0x0 RETURN INVALID PUSH1 0x80 PUSH1 0x40 MSTORE CALLVALUE DUP1 ISZERO PUSH2 0x10 JUMPI PUSH1 0x0 DUP1 REVERT JUMPDEST POP PUSH1 0x4 CALLDATASIZE LT PUSH2 0x2B JUMPI PUSH1 0x0 CALLDATALOAD PUSH1 0xE0 SHR DUP1 PUSH4 0xC1940A36 EQ PUSH2 0x30 JUMPI JUMPDEST PUSH1 0x0 DUP1 REVERT JUMPDEST PUSH2 0x4A PUSH1 0x4 DUP1 CALLDATASIZE SUB DUP2 ADD SWAP1 PUSH2 0x45 SWAP2 SWAP1 PUSH2 0xB0D JUMP JUMPDEST PUSH2 0x60 JUMP JUMPDEST PUSH1 0x40 MLOAD PUSH2 0x57 SWAP2 SWAP1 PUSH2 0xB91 JUMP JUMPDEST PUSH1 0x40 MLOAD DUP1 SWAP2 SUB SWAP1 RETURN JUMPDEST PUSH1 0x0 PUSH2 0x995 JUMP JUMPDEST PUSH32 0x30644E72E131A029B85045B68181585D2833E84879B9709143E1F593F0000001 DUP2 LT PUSH2 0x98 JUMPI PUSH1 0x0 DUP1 MSTORE PUSH1 0x20 PUSH1 0x0 RETURN JUMPDEST POP JUMP JUMPDEST PUSH1 0x0 PUSH1 0x40 MLOAD DUP4 DUP2 MSTORE DUP5 PUSH1 0x20 DUP3 ADD MSTORE DUP6 PUSH1 0x40 DUP3 ADD MSTORE PUSH1 0x40 DUP2 PUSH1 0x60 DUP4 PUSH1 0x7 PUSH2 0x7D0 GAS SUB STATICCALL SWAP2 POP DUP2 PUSH2 0xCE JUMPI PUSH1 0x0 DUP1 MSTORE PUSH1 0x20 PUSH1 0x0 RETURN JUMPDEST DUP3 MLOAD PUSH1 0x40 DUP3 ADD MSTORE PUSH1 0x20 DUP4 ADD MLOAD PUSH1 0x60 DUP3 ADD MSTORE PUSH1 0x40 DUP4 PUSH1 0x80 DUP4 PUSH1 0x6 PUSH2 0x7D0 GAS SUB STATICCALL SWAP2 POP DUP2 PUSH2 0xFE JUMPI PUSH1 0x0 DUP1 MSTORE PUSH1 0x20 PUSH1 0x0 RETURN JUMPDEST POP POP POP POP POP POP JUMP JUMPDEST PUSH1 0x0 PUSH1 0x80 DUP7 ADD PUSH1 0x0 DUP8 ADD PUSH32 0x1BD4E77B9CAF5649900F0D6E04CDACFB5445C1536E35683749A857056523F45F DUP2 MSTORE PUSH32 0x8CE46861B017E42F3FBD6E8C6D76F727698FF6C4C83F6CCDA38B532934C8256 PUSH1 0x20 DUP3 ADD MSTORE PUSH2 0x1A9 PUSH1 0x0 DUP9 ADD CALLDATALOAD PUSH32 0x20341547051CC98BAA69A98B5521BACA957B91AF0F7B5AB68A133EE0331AE4ED PUSH32 0x1AACB5868318DEC12AC331B37AFAE686D8760C0E1A7C78084990F28DFB299B54 DUP5 PUSH2 0x9B JUMP JUMPDEST PUSH2 0x1F9 PUSH1 0x20 DUP9 ADD CALLDATALOAD PUSH32 0x215F69D5A65DE26949D9AEC7C5087824149903C13383FFA14D05144EE151DDC0 PUSH32 0x1EC0511C7BDB34606BA27E9ECC61D8D6B195916A317923182D72BDC76597FA41 DUP5 PUSH2 0x9B JUMP JUMPDEST PUSH2 0x249 PUSH1 0x40 DUP9 ADD CALLDATALOAD PUSH32 0x50C76C7D5F496C8E9A4634EDA4CEAE00296641F9E92A4E884CA620CA06E6111 PUSH32 0x18D31E4938FD330BBD8CE91EA9C8DB702A8EF39F6CE5624A4D34B5BC0A35FF6F DUP5 PUSH2 0x9B JUMP JUMPDEST PUSH2 0x299 PUSH1 0x60 DUP9 ADD CALLDATALOAD PUSH32 0x1109974E3EDCFCE8C8FBC0755C2D77AFEDEBEC7F6B197EA174BFAE0BCA41B9D2 PUSH32 0x1D906D66112E0F2F48AD3EF5E9099328C4F71A7EBEFFA57BB4EB6C90CDB6C136 DUP5 PUSH2 0x9B JUMP JUMPDEST PUSH2 0x2E9 PUSH1 0x80 DUP9 ADD CALLDATALOAD PUSH32 0x1ECE0459CE5F8D61A4A8F619291A42733722CEBFFA2E8E979195426DC49D2DF7 PUSH32 0x2175157AD3DB7178CABB95436A1A586953C744BA3C557B7A7EAFD558EBD26D8C DUP5 PUSH2 0x9B JUMP JUMPDEST PUSH2 0x339 PUSH1 0xA0 DUP9 ADD CALLDATALOAD PUSH32 0x2B27DEB0B85100171998CB5342202986647F8E38FB29B400F62015E5BA8DBC3B PUSH32 0xE798ACC004610CCAF6C8FCCFB73A066B52CCD38F39AFB9E3A67F15D83F9DBAA DUP5 PUSH2 0x9B JUMP JUMPDEST PUSH2 0x389 PUSH1 0xC0 DUP9 ADD CALLDATALOAD PUSH32 0x884200D490B29B574AD405F091C93A51A1C0C48492044E703E3458EDE21A2B2 PUSH32 0x13C27414D5D55EC7AB508A56195AAA1B559810052D96E7CB965A3A32F479D974 DUP5 PUSH2 0x9B JUMP JUMPDEST PUSH2 0x3D9 PUSH1 0xE0 DUP9 ADD CALLDATALOAD PUSH32 0x2C17A594834D946BF1508BEF222901DCE606DDFB9848BD750C2935D3D2B62C45 PUSH32 0x2F85D766F2AA40F1EB8B2F693A7BDCEED453474E2277196F9E2C51066390EC93 DUP5 PUSH2 0x9B JUMP JUMPDEST PUSH2 0x42A PUSH2 0x100 DUP9 ADD CALLDATALOAD PUSH32 0xB32AC22F0A3FA3B246E85C6CB13F577452AB0254A5D2E2AB884E2A35D4F7E90 PUSH32 0x1A422AA0CDF7AABCA70B147781B5AE6596D3CE4E55257DE039B975003D3E2248 DUP5 PUSH2 0x9B JUMP JUMPDEST PUSH2 0x47B PUSH2 0x120 DUP9 ADD CALLDATALOAD PUSH32 0x29A5DB7063B2B3F8F18E23E2ACD3C85FC7324BDCEEF3E6402DDD7819434D1AF4 PUSH32 0x2F41341B57E1DD6B45CAC2F1F536D250106A1D4CF5FC09069A209E5B17C8EF0D DUP5 PUSH2 0x9B JUMP JUMPDEST PUSH2 0x4CC PUSH2 0x140 DUP9 ADD CALLDATALOAD PUSH32 0x124B332705ED4E859DE6D732DB230016B3B98416724A0D7BA141D776F6D90DB6 PUSH32 0x1232A2CD26A840F58F734CF8CF3B1F2A5B8585566E3DB9035452A2ED7C8A2A45 DUP5 PUSH2 0x9B JUMP JUMPDEST PUSH2 0x51D PUSH2 0x160 DUP9 ADD CALLDATALOAD PUSH32 0x1B3AEC4DBDFB45FAB342C5DDD2CB5D3FB56313325628205F59C33109D91B69A PUSH32 0x13DF7E4E7AC1BF31FA0D0F7D79D7CA036B63A98D2E2B89AC054C946C53AA2F1D DUP5 PUSH2 0x9B JUMP JUMPDEST PUSH2 0x56E PUSH2 0x180 DUP9 ADD CALLDATALOAD PUSH32 0x18D26CEEB82E8662E04B2AE6A905D8821D93D4462CF6F80F90ABE52979AA90EB PUSH32 0x127BF83B46979FE8E942AE4524B27DF396D07460B81B11D08DB3E4956F24DA19 DUP5 PUSH2 0x9B JUMP JUMPDEST PUSH2 0x5BF PUSH2 0x1A0 DUP9 ADD CALLDATALOAD PUSH32 0x10362CC2FB3AB01A0AF944FD21C2A83669C0159C09AE260B92F9CC845699B520 PUSH32 0x1AF7BDDDF225FB1879A9AE1E770E26BFD98ED505C4C5A9E33B85535D8343E26E DUP5 PUSH2 0x9B JUMP JUMPDEST PUSH2 0x60F PUSH2 0x1C0 DUP9 ADD CALLDATALOAD PUSH32 0x15B2832AF10A71FDD0686156AFB6B59AD6A1E29B42319D983EC7196BB4C70E0C PUSH31 0x371843FC49FEED7C61D5C526DD952CC178DC80DFDD13B4A89064988BA66541 DUP5 PUSH2 0x9B JUMP JUMPDEST PUSH2 0x660 PUSH2 0x1E0 DUP9 ADD CALLDATALOAD PUSH32 0x27F6925B45AAAC8DDA5A04E1BDE35FED1EB3B2766B437F1D21A13B7C226DCB7F PUSH32 0x2EC54C550759BEA1907773FFD1A2CB0778D33102A95310DD9BD70A1DDBD96762 DUP5 PUSH2 0x9B JUMP JUMPDEST PUSH2 0x6B1 PUSH2 0x200 DUP9 ADD CALLDATALOAD PUSH32 0xA81AC94474B8AE6287EA959BAE5CF57503DF7E8DE82E96A8C5A866151D14AE4 PUSH32 0x180F9212D34D1E1DC6F0B977CC56C43D009D5C8D55D033FE1096A148A8CB0A0E DUP5 PUSH2 0x9B JUMP JUMPDEST DUP4 CALLDATALOAD DUP3 MSTORE PUSH32 0x30644E72E131A029B85045B68181585D97816A916871CA8D3C208C16D87CFD47 PUSH1 0x20 DUP6 ADD CALLDATALOAD PUSH32 0x30644E72E131A029B85045B68181585D97816A916871CA8D3C208C16D87CFD47 SUB MOD PUSH1 0x20 DUP4 ADD MSTORE DUP5 CALLDATALOAD PUSH1 0x40 DUP4 ADD MSTORE PUSH1 0x20 DUP6 ADD CALLDATALOAD PUSH1 0x60 DUP4 ADD MSTORE PUSH1 0x40 DUP6 ADD CALLDATALOAD PUSH1 0x80 DUP4 ADD MSTORE PUSH1 0x60 DUP6 ADD CALLDATALOAD PUSH1 0xA0 DUP4 ADD MSTORE PUSH32 0x38CE37EEEDF16903B9E80F824E4A34567FCF381F05ADFE660582D1B923D82FA PUSH1 0xC0 DUP4 ADD MSTORE PUSH32 0xEE3AE92779A1605AC796D0097261FBEA9082DC2FA9F8223732C435EE9B87C92 PUSH1 0xE0 DUP4 ADD MSTORE PUSH32 0xAC97F408CBEC82057ACC1A36A6EED22C2122CAAB88A35FD5F80358798A0DBAD PUSH2 0x100 DUP4 ADD MSTORE PUSH32 0x1A1B77AF4E16A696756E53A1B15BBEB96C4D46CCB86C6086292BD4FFFC497787 PUSH2 0x120 DUP4 ADD MSTORE PUSH32 0x97BC15CB5104836D688B093B3E5ADEC58DEF94F15D6DD979AF8A3503C6B05B5 PUSH2 0x140 DUP4 ADD MSTORE PUSH32 0x2BD4E5C49481692CD73540003F5697CD4F974520D60840ACDBA4EC8534A75462 PUSH2 0x160 DUP4 ADD MSTORE PUSH1 0x0 DUP9 ADD MLOAD PUSH2 0x180 DUP4 ADD MSTORE PUSH1 0x20 PUSH1 0x0 ADD DUP9 ADD MLOAD PUSH2 0x1A0 DUP4 ADD MSTORE PUSH32 0x198E9393920D483A7260BFB731FB5D25F1AA493335A9E71297E485B7AEF312C2 PUSH2 0x1C0 DUP4 ADD MSTORE PUSH32 0x1800DEEF121F1E76426A00665E5C4479674322D4F75EDADD46DEBD5CD992F6ED PUSH2 0x1E0 DUP4 ADD MSTORE PUSH32 0x90689D0585FF075EC9E99AD690C3395BC4B313370B38EF355ACDADCD122975B PUSH2 0x200 DUP4 ADD MSTORE PUSH32 0x12C85EA5DB8C6DEB4AAB71808DCB408FE3D1E7690C43D37B4CE6CC0166FA7DAA PUSH2 0x220 DUP4 ADD MSTORE DUP6 CALLDATALOAD PUSH2 0x240 DUP4 ADD MSTORE PUSH1 0x20 DUP7 ADD CALLDATALOAD PUSH2 0x260 DUP4 ADD MSTORE PUSH32 0x1C50E64969C4DE05CE6746B74EE2D4D7B97D7D6D9E8B607AAF3A94064CFD92F4 PUSH2 0x280 DUP4 ADD MSTORE PUSH32 0x2BE2DABFC89393079A7B3E02B0F156CE0E03AF7ECECE00BC9BD005D19EE4EB60 PUSH2 0x2A0 DUP4 ADD MSTORE PUSH32 0x2C023001EEA979A107FF5A9AD889C4D137D1FEC120BE34014EF07EE8DF770766 PUSH2 0x2C0 DUP4 ADD MSTORE PUSH32 0x2E52912B17C1789F8D7751FB5A9A1EBD9AA438148028A21C8D59ABC58DB1E658 PUSH2 0x2E0 DUP4 ADD MSTORE PUSH1 0x20 DUP3 PUSH2 0x300 DUP5 PUSH1 0x8 PUSH2 0x7D0 GAS SUB STATICCALL DUP3 MLOAD DUP2 AND SWAP4 POP POP POP POP SWAP6 SWAP5 POP POP POP POP POP JUMP JUMPDEST PUSH1 0x40 MLOAD PUSH2 0x380 DUP2 ADD PUSH1 0x40 MSTORE PUSH2 0x9AD PUSH1 0x0 DUP5 ADD CALLDATALOAD PUSH2 0x67 JUMP JUMPDEST PUSH2 0x9BA PUSH1 0x20 DUP5 ADD CALLDATALOAD PUSH2 0x67 JUMP JUMPDEST PUSH2 0x9C7 PUSH1 0x40 DUP5 ADD CALLDATALOAD PUSH2 0x67 JUMP JUMPDEST PUSH2 0x9D4 PUSH1 0x60 DUP5 ADD CALLDATALOAD PUSH2 0x67 JUMP JUMPDEST PUSH2 0x9E1 PUSH1 0x80 DUP5 ADD CALLDATALOAD PUSH2 0x67 JUMP JUMPDEST PUSH2 0x9EE PUSH1 0xA0 DUP5 ADD CALLDATALOAD PUSH2 0x67 JUMP JUMPDEST PUSH2 0x9FB PUSH1 0xC0 DUP5 ADD CALLDATALOAD PUSH2 0x67 JUMP JUMPDEST PUSH2 0xA08 PUSH1 0xE0 DUP5 ADD CALLDATALOAD PUSH2 0x67 JUMP JUMPDEST PUSH2 0xA16 PUSH2 0x100 DUP5 ADD CALLDATALOAD PUSH2 0x67 JUMP JUMPDEST PUSH2 0xA24 PUSH2 0x120 DUP5 ADD CALLDATALOAD PUSH2 0x67 JUMP JUMPDEST PUSH2 0xA32 PUSH2 0x140 DUP5 ADD CALLDATALOAD PUSH2 0x67 JUMP JUMPDEST PUSH2 0xA40 PUSH2 0x160 DUP5 ADD CALLDATALOAD PUSH2 0x67 JUMP JUMPDEST PUSH2 0xA4E PUSH2 0x180 DUP5 ADD CALLDATALOAD PUSH2 0x67 JUMP JUMPDEST PUSH2 0xA5C PUSH2 0x1A0 DUP5 ADD CALLDATALOAD PUSH2 0x67 JUMP JUMPDEST PUSH2 0xA6A PUSH2 0x1C0 DUP5 ADD CALLDATALOAD PUSH2 0x67 JUMP JUMPDEST PUSH2 0xA78 PUSH2 0x1E0 DUP5 ADD CALLDATALOAD PUSH2 0x67 JUMP JUMPDEST PUSH2 0xA86 PUSH2 0x200 DUP5 ADD CALLDATALOAD PUSH2 0x67 JUMP JUMPDEST PUSH2 0xA93 DUP2 DUP5 DUP7 DUP9 DUP11 PUSH2 0x106 JUMP JUMPDEST DUP1 PUSH1 0x0 MSTORE PUSH1 0x20 PUSH1 0x0 RETURN JUMPDEST PUSH1 0x0 DUP1 REVERT JUMPDEST PUSH1 0x0 DUP1 REVERT JUMPDEST PUSH1 0x0 DUP2 SWAP1 POP DUP3 PUSH1 0x20 PUSH1 0x2 MUL DUP3 ADD GT ISZERO PUSH2 0xAC3 JUMPI PUSH2 0xAC2 PUSH2 0xAA2 JUMP JUMPDEST JUMPDEST SWAP3 SWAP2 POP POP JUMP JUMPDEST PUSH1 0x0 DUP2 SWAP1 POP DUP3 PUSH1 0x40 PUSH1 0x2 MUL DUP3 ADD GT ISZERO PUSH2 0xAE5 JUMPI PUSH2 0xAE4 PUSH2 0xAA2 JUMP JUMPDEST JUMPDEST SWAP3 SWAP2 POP POP JUMP JUMPDEST PUSH1 0x0 DUP2 SWAP1 POP DUP3 PUSH1 0x20 PUSH1 0x11 MUL DUP3 ADD GT ISZERO PUSH2 0xB07 JUMPI PUSH2 0xB06 PUSH2 0xAA2 JUMP JUMPDEST JUMPDEST SWAP3 SWAP2 POP POP JUMP JUMPDEST PUSH1 0x0 DUP1 PUSH1 0x0 DUP1 PUSH2 0x320 DUP6 DUP8 SUB SLT ISZERO PUSH2 0xB28 JUMPI PUSH2 0xB27 PUSH2 0xA9D JUMP JUMPDEST JUMPDEST PUSH1 0x0 PUSH2 0xB36 DUP8 DUP3 DUP9 ADD PUSH2 0xAA7 JUMP JUMPDEST SWAP5 POP POP PUSH1 0x40 PUSH2 0xB47 DUP8 DUP3 DUP9 ADD PUSH2 0xAC9 JUMP JUMPDEST SWAP4 POP POP PUSH1 0xC0 PUSH2 0xB58 DUP8 DUP3 DUP9 ADD PUSH2 0xAA7 JUMP JUMPDEST SWAP3 POP POP PUSH2 0x100 PUSH2 0xB6A DUP8 DUP3 DUP9 ADD PUSH2 0xAEB JUMP JUMPDEST SWAP2 POP POP SWAP3 SWAP6 SWAP2 SWAP5 POP SWAP3 POP JUMP JUMPDEST PUSH1 0x0 DUP2 ISZERO ISZERO SWAP1 POP SWAP2 SWAP1 POP JUMP JUMPDEST PUSH2 0xB8B DUP2 PUSH2 0xB76 JUMP JUMPDEST DUP3 MSTORE POP POP JUMP JUMPDEST PUSH1 0x0 PUSH1 0x20 DUP3 ADD SWAP1 POP PUSH2 0xBA6 PUSH1 0x0 DUP4 ADD DUP5 PUSH2 0xB82 JUMP JUMPDEST SWAP3 SWAP2 POP POP JUMP INVALID LOG2 PUSH5 0x6970667358 0x22 SLT KECCAK256 DELEGATECALL BLOCKHASH 0xE1 0xC7 PUSH21 0xA4875C2D0CF5CEEAC83DFDBE2BF423E88EE4B964F2 PUSH13 0x42F92D428464736F6C63430008 SGT STOP CALLER "},"methodIdentifiers":{"verifyProof(uint256[2],uint256[2][2],uint256[2],uint256[17])":"c1940a36"}}}}}