{
  "_format": "hh-sol-artifact-1",
  "contractName": "Groth16Verifier",
  "sourceName": "contracts/verifier.sol",
  "abi": [
    {
      "inputs": [
        {
          "internalType": "uint256[2]",
          "name": "_pA",
          "type": "uint256[2]"
        },
        {
          "internalType": "uint256[2][2]",
          "name": "_pB",
          "type": "uint256[2][2]"
        },
        {
          "internalType": "uint256[2]",
          "name": "_pC",
          "type": "uint256[2]"
        },
        {
          "internalType": "uint256[17]",
          "name": "_pubSignals",
          "type": "uint256[17]"
        }
      ],
      "name": "verifyProof",
      "outputs": [
        {
          "internalType": "bool",
          "name": "",
          "type": "bool"
        }
      ],
      "stateMutability": "view",
      "type": "function"
    }
  ],
  "bytecode": "0x608060405234801561001057600080fd5b50610be2806100206000396000f3fe608060405234801561001057600080fd5b506004361061002b5760003560e01c8063c1940a3614610030575b600080fd5b61004a60048036038101906100459190610b0d565b610060565b6040516100579190610b91565b60405180910390f35b6000610995565b7f30644e72e131a029b85045b68181585d2833e84879b9709143e1f593f00000018110610098576000805260206000f35b50565b600060405183815284602082015285604082015260408160608360076107d05a03fa9150816100ce576000805260206000f35b825160408201526020830151606082015260408360808360066107d05a03fa9150816100fe576000805260206000f35b505050505050565b600060808601600087017f1bd4e77b9caf5649900f0d6e04cdacfb5445c1536e35683749a857056523f45f81527f08ce46861b017e42f3fbd6e8c6d76f727698ff6c4c83f6ccda38b532934c825660208201526101a960008801357f20341547051cc98baa69a98b5521baca957b91af0f7b5ab68a133ee0331ae4ed7f1aacb5868318dec12ac331b37afae686d8760c0e1a7c78084990f28dfb299b548461009b565b6101f960208801357f215f69d5a65de26949d9aec7c5087824149903c13383ffa14d05144ee151ddc07f1ec0511c7bdb34606ba27e9ecc61d8d6b195916a317923182d72bdc76597fa418461009b565b61024960408801357f050c76c7d5f496c8e9a4634eda4ceae00296641f9e92a4e884ca620ca06e61117f18d31e4938fd330bbd8ce91ea9c8db702a8ef39f6ce5624a4d34b5bc0a35ff6f8461009b565b61029960608801357f1109974e3edcfce8c8fbc0755c2d77afedebec7f6b197ea174bfae0bca41b9d27f1d906d66112e0f2f48ad3ef5e9099328c4f71a7ebeffa57bb4eb6c90cdb6c1368461009b565b6102e960808801357f1ece0459ce5f8d61a4a8f619291a42733722cebffa2e8e979195426dc49d2df77f2175157ad3db7178cabb95436a1a586953c744ba3c557b7a7eafd558ebd26d8c8461009b565b61033960a08801357f2b27deb0b85100171998cb5342202986647f8e38fb29b400f62015e5ba8dbc3b7f0e798acc004610ccaf6c8fccfb73a066b52ccd38f39afb9e3a67f15d83f9dbaa8461009b565b61038960c08801357f0884200d490b29b574ad405f091c93a51a1c0c48492044e703e3458ede21a2b27f13c27414d5d55ec7ab508a56195aaa1b559810052d96e7cb965a3a32f479d9748461009b565b6103d960e08801357f2c17a594834d946bf1508bef222901dce606ddfb9848bd750c2935d3d2b62c457f2f85d766f2aa40f1eb8b2f693a7bdceed453474e2277196f9e2c51066390ec938461009b565b61042a6101008801357f0b32ac22f0a3fa3b246e85c6cb13f577452ab0254a5d2e2ab884e2a35d4f7e907f1a422aa0cdf7aabca70b147781b5ae6596d3ce4e55257de039b975003d3e22488461009b565b61047b6101208801357f29a5db7063b2b3f8f18e23e2acd3c85fc7324bdceef3e6402ddd7819434d1af47f2f41341b57e1dd6b45cac2f1f536d250106a1d4cf5fc09069a209e5b17c8ef0d8461009b565b6104cc6101408801357f124b332705ed4e859de6d732db230016b3b98416724a0d7ba141d776f6d90db67f1232a2cd26a840f58f734cf8cf3b1f2a5b8585566e3db9035452a2ed7c8a2a458461009b565b61051d6101608801357f01b3aec4dbdfb45fab342c5ddd2cb5d3fb56313325628205f59c33109d91b69a7f13df7e4e7ac1bf31fa0d0f7d79d7ca036b63a98d2e2b89ac054c946c53aa2f1d8461009b565b61056e6101808801357f18d26ceeb82e8662e04b2ae6a905d8821d93d4462cf6f80f90abe52979aa90eb7f127bf83b46979fe8e942ae4524b27df396d07460b81b11d08db3e4956f24da198461009b565b6105bf6101a08801357f10362cc2fb3ab01a0af944fd21c2a83669c0159c09ae260b92f9cc845699b5207f1af7bdddf225fb1879a9ae1e770e26bfd98ed505c4c5a9e33b85535d8343e26e8461009b565b61060f6101c08801357f15b2832af10a71fdd0686156afb6b59ad6a1e29b42319d983ec7196bb4c70e0c7e371843fc49feed7c61d5c526dd952cc178dc80dfdd13b4a89064988ba665418461009b565b6106606101e08801357f27f6925b45aaac8dda5a04e1bde35fed1eb3b2766b437f1d21a13b7c226dcb7f7f2ec54c550759bea1907773ffd1a2cb0778d33102a95310dd9bd70a1ddbd967628461009b565b6106b16102008801357f0a81ac94474b8ae6287ea959bae5cf57503df7e8de82e96a8c5a866151d14ae47f180f9212d34d1e1dc6f0b977cc56c43d009d5c8d55d033fe1096a148a8cb0a0e8461009b565b833582527f30644e72e131a029b85045b68181585d97816a916871ca8d3c208c16d87cfd4760208501357f30644e72e131a029b85045b68181585d97816a916871ca8d3c208c16d87cfd4703066020830152843560408301526020850135606083015260408501356080830152606085013560a08301527f038ce37eeedf16903b9e80f824e4a34567fcf381f05adfe660582d1b923d82fa60c08301527f0ee3ae92779a1605ac796d0097261fbea9082dc2fa9f8223732c435ee9b87c9260e08301527f0ac97f408cbec82057acc1a36a6eed22c2122caab88a35fd5f80358798a0dbad6101008301527f1a1b77af4e16a696756e53a1b15bbeb96c4d46ccb86c6086292bd4fffc4977876101208301527f097bc15cb5104836d688b093b3e5adec58def94f15d6dd979af8a3503c6b05b56101408301527f2bd4e5c49481692cd73540003f5697cd4f974520d60840acdba4ec8534a75462610160830152600088015161018083015260206000018801516101a08301527f198e9393920d483a7260bfb731fb5d25f1aa493335a9e71297e485b7aef312c26101c08301527f1800deef121f1e76426a00665e5c4479674322d4f75edadd46debd5cd992f6ed6101e08301527f090689d0585ff075ec9e99ad690c3395bc4b313370b38ef355acdadcd122975b6102008301527f12c85ea5db8c6deb4aab71808dcb408fe3d1e7690c43d37b4ce6cc0166fa7daa610220830152853561024083015260208601356102608301527f1c50e64969c4de05ce6746b74ee2d4d7b97d7d6d9e8b607aaf3a94064cfd92f46102808301527f2be2dabfc89393079a7b3e02b0f156ce0e03af7ecece00bc9bd005d19ee4eb606102a08301527f2c023001eea979a107ff5a9ad889c4d137d1fec120be34014ef07ee8df7707666102c08301527f2e52912b17c1789f8d7751fb5a9a1ebd9aa438148028a21c8d59abc58db1e6586102e08301526020826103008460086107d05a03fa82518116935050505095945050505050565b60405161038081016040526109ad6000840135610067565b6109ba6020840135610067565b6109c76040840135610067565b6109d46060840135610067565b6109e16080840135610067565b6109ee60a0840135610067565b6109fb60c0840135610067565b610a0860e0840135610067565b610a16610100840135610067565b610a24610120840135610067565b610a32610140840135610067565b610a40610160840135610067565b610a4e610180840135610067565b610a5c6101a0840135610067565b610a6a6101c0840135610067565b610a786101e0840135610067565b610a86610200840135610067565b610a93818486888a610106565b8060005260206000f35b600080fd5b600080fd5b600081905082602060020282011115610ac357610ac2610aa2565b5b92915050565b600081905082604060020282011115610ae557610ae4610aa2565b5b92915050565b600081905082602060110282011115610b0757610b06610aa2565b5b92915050565b6000806000806103208587031215610b2857610b27610a9d565b5b6000610b3687828801610aa7565b9450506040610b4787828801610ac9565b93505060c0610b5887828801610aa7565b925050610100610b6a87828801610aeb565b91505092959194509250565b60008115159050919050565b610b8b81610b76565b82525050565b6000602082019050610ba66000830184610b82565b9291505056fea2646970667358221220f440e1c774a4875c2d0cf5ceeac83dfdbe2bf423e88ee4b964f26c42f92d428464736f6c63430008130033",
  "linkReferences": {},
  "deployedLinkReferences": {}
}