{
  "_format": "hh-sol-artifact-1",
  "contractName": "ballotManager",
  "sourceName": "contracts/ballotManager.sol",
  "abi": [
    {
      "inputs": [
        {
          "internalType": "address",
          "name": "_verifierAddress",
          "type": "address"
        },
        {
          "internalType": "uint256",
          "name": "_officialRoot",
          "type": "uint256"
        },
        {
          "internalType": "uint256",
          "name": "_nullifier",
          "type": "uint256"
        },
        {
          "internalType": "uint256[2]",
          "name": "_pk",
          "type": "uint256[2]"
        },
        {
          "internalType": "string[]",
          "name": "_names",
          "type": "string[]"
        },
        {
          "internalType": "string[]",
          "name": "_ipfsCID",
          "type": "string[]"
        },
        {
          "internalType": "uint256",
          "name": "_durationTime",
          "type": "uint256"
        },
        {
          "internalType": "address[5]",
          "name": "_shareholderAddress",
          "type": "address[5]"
        },
        {
          "internalType": "uint256",
          "name": "_subscriptionId",
          "type": "uint256"
        },
        {
          "internalType": "string",
          "name": "_oracleSourceCode",
          "type": "string"
        }
      ],
      "stateMutability": "nonpayable",
      "type": "constructor"
    },
    {
      "inputs": [],
      "name": "EmptyArgs",
      "type": "error"
    },
    {
      "inputs": [],
      "name": "EmptySource",
      "type": "error"
    },
    {
      "inputs": [],
      "name": "NoInlineSecrets",
      "type": "error"
    },
    {
      "inputs": [],
      "name": "OnlyRouterCanFulfill",
      "type": "error"
    },
    {
      "anonymous": false,
      "inputs": [
        {
          "indexed": true,
          "internalType": "bytes32",
          "name": "id",
          "type": "bytes32"
        }
      ],
      "name": "RequestFulfilled",
      "type": "event"
    },
    {
      "anonymous": false,
      "inputs": [
        {
          "indexed": true,
          "internalType": "bytes32",
          "name": "id",
          "type": "bytes32"
        }
      ],
      "name": "RequestSent",
      "type": "event"
    },
    {
      "anonymous": false,
      "inputs": [
        {
          "indexed": true,
          "internalType": "uint256",
          "name": "nullifierHash",
          "type": "uint256"
        },
        {
          "indexed": false,
          "internalType": "uint256[2][2]",
          "name": "vote01Count",
          "type": "uint256[2][2]"
        },
        {
          "indexed": false,
          "internalType": "uint256[2][2]",
          "name": "vote02Count",
          "type": "uint256[2][2]"
        },
        {
          "indexed": false,
          "internalType": "uint256[2][2]",
          "name": "vote03Count",
          "type": "uint256[2][2]"
        }
      ],
      "name": "Vote",
      "type": "event"
    },
    {
      "inputs": [
        {
          "internalType": "uint256",
          "name": "x1",
          "type": "uint256"
        },
        {
          "internalType": "uint256",
          "name": "y1",
          "type": "uint256"
        },
        {
          "internalType": "uint256",
          "name": "x2",
          "type": "uint256"
        },
        {
          "internalType": "uint256",
          "name": "y2",
          "type": "uint256"
        }
      ],
      "name": "babyAdd",
      "outputs": [
        {
          "internalType": "uint256",
          "name": "x3",
          "type": "uint256"
        },
        {
          "internalType": "uint256",
          "name": "y3",
          "type": "uint256"
        }
      ],
      "stateMutability": "pure",
      "type": "function"
    },
    {
      "inputs": [
        {
          "internalType": "uint256",
          "name": "k",
          "type": "uint256"
        },
        {
          "internalType": "uint256[2]",
          "name": "P",
          "type": "uint256[2]"
        }
      ],
      "name": "babyMul",
      "outputs": [
        {
          "internalType": "uint256[2]",
          "name": "",
          "type": "uint256[2]"
        }
      ],
      "stateMutability": "pure",
      "type": "function"
    },
    {
      "inputs": [
        {
          "internalType": "uint256",
          "name": "",
          "type": "uint256"
        }
      ],
      "name": "candidates",
      "outputs": [
        {
          "internalType": "string",
          "name": "name",
          "type": "string"
        },
        {
          "internalType": "string",
          "name": "ipfsCID",
          "type": "string"
        }
      ],
      "stateMutability": "view",
      "type": "function"
    },
    {
      "inputs": [],
      "name": "getCandidates",
      "outputs": [
        {
          "components": [
            {
              "internalType": "string",
              "name": "name",
              "type": "string"
            },
            {
              "internalType": "string",
              "name": "ipfsCID",
              "type": "string"
            },
            {
              "internalType": "uint256[2][2]",
              "name": "voteCount",
              "type": "uint256[2][2]"
            }
          ],
          "internalType": "struct ballotManager.candidate[]",
          "name": "",
          "type": "tuple[]"
        }
      ],
      "stateMutability": "view",
      "type": "function"
    },
    {
      "inputs": [
        {
          "internalType": "uint256",
          "name": "_shareholderId",
          "type": "uint256"
        }
      ],
      "name": "getShares",
      "outputs": [
        {
          "internalType": "uint256[2][3]",
          "name": "",
          "type": "uint256[2][3]"
        }
      ],
      "stateMutability": "view",
      "type": "function"
    },
    {
      "inputs": [
        {
          "internalType": "bytes32",
          "name": "requestId",
          "type": "bytes32"
        },
        {
          "internalType": "bytes",
          "name": "response",
          "type": "bytes"
        },
        {
          "internalType": "bytes",
          "name": "err",
          "type": "bytes"
        }
      ],
      "name": "handleOracleFulfillment",
      "outputs": [],
      "stateMutability": "nonpayable",
      "type": "function"
    },
    {
      "inputs": [
        {
          "internalType": "uint256",
          "name": "",
          "type": "uint256"
        }
      ],
      "name": "hasVoted_nullifier",
      "outputs": [
        {
          "internalType": "bool",
          "name": "",
          "type": "bool"
        }
      ],
      "stateMutability": "view",
      "type": "function"
    },
    {
      "inputs": [],
      "name": "nullifier",
      "outputs": [
        {
          "internalType": "uint256",
          "name": "",
          "type": "uint256"
        }
      ],
      "stateMutability": "view",
      "type": "function"
    },
    {
      "inputs": [],
      "name": "oracleSourceCode",
      "outputs": [
        {
          "internalType": "string",
          "name": "",
          "type": "string"
        }
      ],
      "stateMutability": "view",
      "type": "function"
    },
    {
      "inputs": [
        {
          "internalType": "uint256",
          "name": "",
          "type": "uint256"
        }
      ],
      "name": "pk",
      "outputs": [
        {
          "internalType": "uint256",
          "name": "",
          "type": "uint256"
        }
      ],
      "stateMutability": "view",
      "type": "function"
    },
    {
      "inputs": [
        {
          "internalType": "uint256",
          "name": "",
          "type": "uint256"
        }
      ],
      "name": "resultVoting",
      "outputs": [
        {
          "internalType": "uint256",
          "name": "",
          "type": "uint256"
        }
      ],
      "stateMutability": "view",
      "type": "function"
    },
    {
      "inputs": [],
      "name": "root",
      "outputs": [
        {
          "internalType": "uint256",
          "name": "",
          "type": "uint256"
        }
      ],
      "stateMutability": "view",
      "type": "function"
    },
    {
      "inputs": [
        {
          "internalType": "uint256",
          "name": "",
          "type": "uint256"
        }
      ],
      "name": "shareholderSubmitInfo",
      "outputs": [
        {
          "internalType": "bool",
          "name": "isSubmitted",
          "type": "bool"
        }
      ],
      "stateMutability": "view",
      "type": "function"
    },
    {
      "inputs": [
        {
          "internalType": "uint256[2][3]",
          "name": "_S",
          "type": "uint256[2][3]"
        }
      ],
      "name": "submitSi",
      "outputs": [],
      "stateMutability": "nonpayable",
      "type": "function"
    },
    {
      "inputs": [],
      "name": "subscriptionId",
      "outputs": [
        {
          "internalType": "uint256",
          "name": "",
          "type": "uint256"
        }
      ],
      "stateMutability": "view",
      "type": "function"
    },
    {
      "inputs": [],
      "name": "totalSubmit",
      "outputs": [
        {
          "internalType": "uint256",
          "name": "",
          "type": "uint256"
        }
      ],
      "stateMutability": "view",
      "type": "function"
    },
    {
      "inputs": [],
      "name": "verifier",
      "outputs": [
        {
          "internalType": "contract Groth16Verifier",
          "name": "",
          "type": "address"
        }
      ],
      "stateMutability": "view",
      "type": "function"
    },
    {
      "inputs": [
        {
          "internalType": "uint256[2]",
          "name": "_proofa",
          "type": "uint256[2]"
        },
        {
          "internalType": "uint256[2][2]",
          "name": "_proofb",
          "type": "uint256[2][2]"
        },
        {
          "internalType": "uint256[2]",
          "name": "_proofc",
          "type": "uint256[2]"
        },
        {
          "internalType": "uint256[17]",
          "name": "_input",
          "type": "uint256[17]"
        }
      ],
      "name": "vote",
      "outputs": [],
      "stateMutability": "nonpayable",
      "type": "function"
    },
    {
      "inputs": [],
      "name": "votingDeadline",
      "outputs": [
        {
          "internalType": "uint256",
          "name": "",
          "type": "uint256"
        }
      ],
      "stateMutability": "view",
      "type": "function"
    },
    {
      "inputs": [
        {
          "internalType": "address",
          "name": "",
          "type": "address"
        }
      ],
      "name": "whiteList",
      "outputs": [
        {
          "internalType": "uint256",
          "name": "shareholderId",
          "type": "uint256"
        },
        {
          "internalType": "bool",
          "name": "isActive",
          "type": "bool"
        }
      ],
      "stateMutability": "view",
      "type": "function"
    }
  ],
  "bytecode": "0x60a0604052600060085573c225964d70c738a5e1657ce07213444b36540306600c60006101000a81548173ffffffffffffffffffffffffffffffffffffffff021916908373ffffffffffffffffffffffffffffffffffffffff1602179055507f66756e2d657468657265756d2d7365706f6c69612d310000000000000000000060001b600d553480156200009257600080fd5b50604051620057cf380380620057cf8339818101604052810190620000b8919062000ced565b600c60009054906101000a900473ffffffffffffffffffffffffffffffffffffffff168073ffffffffffffffffffffffffffffffffffffffff1660808173ffffffffffffffffffffffffffffffffffffffff168152505050896000806101000a81548173ffffffffffffffffffffffffffffffffffffffff021916908373ffffffffffffffffffffffffffffffffffffffff1602179055508860028190555087600381905550866005906002620001719291906200066b565b50603c8462000181919062000e70565b426200018e919062000ebb565b60078190555060005b86518110156200038257620001ab620006b0565b600081600060028110620001c457620001c362000ef6565b5b6020020151600060028110620001df57620001de62000ef6565b5b60200201818152505060018160006002811062000201576200020062000ef6565b5b60200201516001600281106200021c576200021b62000ef6565b5b6020020181815250506000816001600281106200023e576200023d62000ef6565b5b602002015160006002811062000259576200025862000ef6565b5b6020020181815250506001816001600281106200027b576200027a62000ef6565b5b602002015160016002811062000296576200029562000ef6565b5b602002018181525050600160405180606001604052808a8581518110620002c257620002c162000ef6565b5b60200260200101518152602001898581518110620002e557620002e462000ef6565b5b60200260200101518152602001838152509080600181540180825580915050600190039060005260206000209060060201600090919091909150600082015181600001908162000336919062001166565b5060208201518160010190816200034e919062001166565b5060408201518160020190600262000368929190620006e0565b50505050808062000379906200124d565b91505062000197565b5060005b600581101562000641576040518060400160405280600183620003aa919062000ebb565b815260200160011515815250600e6000868460058110620003d057620003cf62000ef6565b5b602002015173ffffffffffffffffffffffffffffffffffffffff1673ffffffffffffffffffffffffffffffffffffffff1681526020019081526020016000206000820151816000015560208201518160010160006101000a81548160ff0219169083151502179055509050506200044662000737565b6000816000600381106200045f576200045e62000ef6565b5b60200201516000600281106200047a576200047962000ef6565b5b6020020181815250506001816000600381106200049c576200049b62000ef6565b5b6020020151600160028110620004b757620004b662000ef6565b5b602002018181525050600081600160038110620004d957620004d862000ef6565b5b6020020151600060028110620004f457620004f362000ef6565b5b60200201818152505060018160016003811062000516576200051562000ef6565b5b602002015160016002811062000531576200053062000ef6565b5b60200201818152505060008160026003811062000553576200055262000ef6565b5b60200201516000600281106200056e576200056d62000ef6565b5b60200201818152505060018160026003811062000590576200058f62000ef6565b5b6020020151600160028110620005ab57620005aa62000ef6565b5b602002018181525050604051806040016040528082815260200160001515815250600f6000600185620005df919062000ebb565b81526020019081526020016000206000820151816000019060036200060692919062000767565b5060208201518160060160006101000a81548160ff02191690831515021790555090505050808062000638906200124d565b91505062000386565b508160098190555080600a90816200065a919062001166565b50505050505050505050506200129a565b82600281019282156200069d579160200282015b828111156200069c5782518255916020019190600101906200067f565b5b509050620006ac9190620007bf565b5090565b60405180604001604052806002905b620006c9620007de565b815260200190600190039081620006bf5790505090565b8260028002810192821562000724579160200282015b828111156200072357825182906002620007129291906200066b565b5091602001919060020190620006f6565b5b50905062000733919062000800565b5090565b60405180606001604052806003905b62000750620007de565b815260200190600190039081620007465790505090565b8260036002028101928215620007ac579160200282015b82811115620007ab578251829060026200079a9291906200066b565b50916020019190600201906200077e565b5b509050620007bb919062000800565b5090565b5b80821115620007da576000816000905550600101620007c0565b5090565b6040518060400160405280600290602082028036833780820191505090505090565b5b808211156200082457600081816200081a919062000828565b5060020162000801565b5090565b506000815560010160009055565b6000604051905090565b600080fd5b600080fd5b600073ffffffffffffffffffffffffffffffffffffffff82169050919050565b600062000877826200084a565b9050919050565b62000889816200086a565b81146200089557600080fd5b50565b600081519050620008a9816200087e565b92915050565b6000819050919050565b620008c481620008af565b8114620008d057600080fd5b50565b600081519050620008e481620008b9565b92915050565b600080fd5b6000601f19601f8301169050919050565b7f4e487b7100000000000000000000000000000000000000000000000000000000600052604160045260246000fd5b6200093a82620008ef565b810181811067ffffffffffffffff821117156200095c576200095b62000900565b5b80604052505050565b60006200097162000836565b90506200097f82826200092f565b919050565b600067ffffffffffffffff821115620009a257620009a162000900565b5b602082029050919050565b600080fd5b6000620009c9620009c38462000984565b62000965565b90508060208402830185811115620009e657620009e5620009ad565b5b835b8181101562000a135780620009fe8882620008d3565b845260208401935050602081019050620009e8565b5050509392505050565b600082601f83011262000a355762000a34620008ea565b5b600262000a44848285620009b2565b91505092915050565b600067ffffffffffffffff82111562000a6b5762000a6a62000900565b5b602082029050602081019050919050565b600080fd5b600067ffffffffffffffff82111562000a9f5762000a9e62000900565b5b62000aaa82620008ef565b9050602081019050919050565b60005b8381101562000ad757808201518184015260208101905062000aba565b60008484015250505050565b600062000afa62000af48462000a81565b62000965565b90508281526020810184848401111562000b195762000b1862000a7c565b5b62000b2684828562000ab7565b509392505050565b600082601f83011262000b465762000b45620008ea565b5b815162000b5884826020860162000ae3565b91505092915050565b600062000b7862000b728462000a4d565b62000965565b9050808382526020820190506020840283018581111562000b9e5762000b9d620009ad565b5b835b8181101562000bec57805167ffffffffffffffff81111562000bc75762000bc6620008ea565b5b80860162000bd6898262000b2e565b8552602085019450505060208101905062000ba0565b5050509392505050565b600082601f83011262000c0e5762000c0d620008ea565b5b815162000c2084826020860162000b61565b91505092915050565b600067ffffffffffffffff82111562000c475762000c4662000900565b5b602082029050919050565b600062000c6962000c638462000c29565b62000965565b9050806020840283018581111562000c865762000c85620009ad565b5b835b8181101562000cb3578062000c9e888262000898565b84526020840193505060208101905062000c88565b5050509392505050565b600082601f83011262000cd55762000cd4620008ea565b5b600562000ce484828562000c52565b91505092915050565b6000806000806000806000806000806101e08b8d03121562000d145762000d1362000840565b5b600062000d248d828e0162000898565b9a5050602062000d378d828e01620008d3565b995050604062000d4a8d828e01620008d3565b985050606062000d5d8d828e0162000a1d565b97505060a08b015167ffffffffffffffff81111562000d815762000d8062000845565b5b62000d8f8d828e0162000bf6565b96505060c08b015167ffffffffffffffff81111562000db35762000db262000845565b5b62000dc18d828e0162000bf6565b95505060e062000dd48d828e01620008d3565b94505061010062000de88d828e0162000cbd565b9350506101a062000dfc8d828e01620008d3565b9250506101c08b015167ffffffffffffffff81111562000e215762000e2062000845565b5b62000e2f8d828e0162000b2e565b9150509295989b9194979a5092959850565b7f4e487b7100000000000000000000000000000000000000000000000000000000600052601160045260246000fd5b600062000e7d82620008af565b915062000e8a83620008af565b925082820262000e9a81620008af565b9150828204841483151762000eb45762000eb362000e41565b5b5092915050565b600062000ec882620008af565b915062000ed583620008af565b925082820190508082111562000ef05762000eef62000e41565b5b92915050565b7f4e487b7100000000000000000000000000000000000000000000000000000000600052603260045260246000fd5b600081519050919050565b7f4e487b7100000000000000000000000000000000000000000000000000000000600052602260045260246000fd5b6000600282049050600182168062000f7857607f821691505b60208210810362000f8e5762000f8d62000f30565b5b50919050565b60008190508160005260206000209050919050565b60006020601f8301049050919050565b600082821b905092915050565b60006008830262000ff87fffffffffffffffffffffffffffffffffffffffffffffffffffffffffffffffff8262000fb9565b62001004868362000fb9565b95508019841693508086168417925050509392505050565b6000819050919050565b600062001047620010416200103b84620008af565b6200101c565b620008af565b9050919050565b6000819050919050565b620010638362001026565b6200107b62001072826200104e565b84845462000fc6565b825550505050565b600090565b6200109262001083565b6200109f81848462001058565b505050565b5b81811015620010c757620010bb60008262001088565b600181019050620010a5565b5050565b601f8211156200111657620010e08162000f94565b620010eb8462000fa9565b81016020851015620010fb578190505b620011136200110a8562000fa9565b830182620010a4565b50505b505050565b600082821c905092915050565b60006200113b600019846008026200111b565b1980831691505092915050565b600062001156838362001128565b9150826002028217905092915050565b620011718262000f25565b67ffffffffffffffff8111156200118d576200118c62000900565b5b62001199825462000f5f565b620011a6828285620010cb565b600060209050601f831160018114620011de5760008415620011c9578287015190505b620011d5858262001148565b86555062001245565b601f198416620011ee8662000f94565b60005b828110156200121857848901518255600182019150602085019450602081019050620011f1565b8683101562001238578489015162001234601f89168262001128565b8355505b6001600288020188555050505b505050505050565b60006200125a82620008af565b91507fffffffffffffffffffffffffffffffffffffffffffffffffffffffffffffffff82036200128f576200128e62000e41565b5b600182019050919050565b608051614512620012bd60003960008181610651015261216f01526145126000f3fe608060405234801561001057600080fd5b506004361061012c5760003560e01c80633477ee2e116100ad57806384ade8891161007157806384ade8891461035d5780638fe4cb7914610379578063a54a0868146103a9578063e168f6e2146103da578063ebf0c7171461040a5761012c565b80633477ee2e1461027d578063372c12b1146102ae57806343bf6cf0146102df5780634be9c9d8146102fd5780636f7267b71461032d5761012c565b80630e6ce084116100f45780630e6ce084146101d757806317031d6d146101f35780632b7ac3f3146102235780632be6514b146102415780632dd342d31461025f5761012c565b8063036ee8501461013157806305b6dc1e1461014f57806306a49fce1461017f57806309c1ba2e1461019d5780630ca76175146101bb575b600080fd5b610139610428565b6040516101469190612b21565b60405180910390f35b61016960048036038101906101649190612b7c565b61042e565b6040516101769190612b21565b60405180910390f35b610187610449565b6040516101949190612e99565b60405180910390f35b6101a5610649565b6040516101b29190612b21565b60405180910390f35b6101d560048036038101906101d09190613026565b61064f565b005b6101f160048036038101906101ec9190613218565b610711565b005b61020d60048036038101906102089190612b7c565b610914565b60405161021a9190613260565b60405180910390f35b61022b61093f565b60405161023891906132fa565b60405180910390f35b610249610963565b604051610256919061335f565b60405180910390f35b6102676109f1565b6040516102749190612b21565b60405180910390f35b61029760048036038101906102929190612b7c565b6109f7565b6040516102a5929190613381565b60405180910390f35b6102c860048036038101906102c391906133f6565b610b3b565b6040516102d6929190613423565b60405180910390f35b6102e7610b6c565b6040516102f49190612b21565b60405180910390f35b61031760048036038101906103129190612b7c565b610b72565b6040516103249190613260565b60405180910390f35b61034760048036038101906103429190612b7c565b610b92565b60405161035491906134d0565b60405180910390f35b6103776004803603810190610372919061364d565b610c2b565b005b610393600480360381019061038e91906136b6565b6113cb565b6040516103a09190613758565b60405180910390f35b6103c360048036038101906103be9190613773565b61156b565b6040516103d19291906137da565b60405180910390f35b6103f460048036038101906103ef9190612b7c565b6118d4565b6040516104019190612b21565b60405180910390f35b6104126118f8565b60405161041f9190612b21565b60405180910390f35b60075481565b6005816002811061043e57600080fd5b016000915090505481565b60606001805480602002602001604051908101604052809291908181526020016000905b8282101561064057838290600052602060002090600602016040518060600160405290816000820180546104a090613832565b80601f01602080910402602001604051908101604052809291908181526020018280546104cc90613832565b80156105195780601f106104ee57610100808354040283529160200191610519565b820191906000526020600020905b8154815290600101906020018083116104fc57829003601f168201915b5050505050815260200160018201805461053290613832565b80601f016020809104026020016040519081016040528092919081815260200182805461055e90613832565b80156105ab5780601f10610580576101008083540402835291602001916105ab565b820191906000526020600020905b81548152906001019060200180831161058e57829003601f168201915b5050505050815260200160028201600280602002604051908101604052809291906000905b8282101561062957838260020201600280602002604051908101604052809291908260028015610615576020028201915b815481526020019060010190808311610601575b5050505050815260200190600101906105d0565b50505050815250508152602001906001019061046d565b50505050905090565b60095481565b7f000000000000000000000000000000000000000000000000000000000000000073ffffffffffffffffffffffffffffffffffffffff163373ffffffffffffffffffffffffffffffffffffffff16146106d4576040517fc6829f8300000000000000000000000000000000000000000000000000000000815260040160405180910390fd5b6106df8383836118fe565b827f85e1543bf2f84fe80c6badbce3648c8539ad1df4d2b3d822938ca0538be727e660405160405180910390a2505050565b600e60003373ffffffffffffffffffffffffffffffffffffffff1673ffffffffffffffffffffffffffffffffffffffff16815260200190815260200160002060010160009054906101000a900460ff166107a0576040517f08c379a0000000000000000000000000000000000000000000000000000000008152600401610797906138af565b60405180910390fd5b600f6000600e60003373ffffffffffffffffffffffffffffffffffffffff1673ffffffffffffffffffffffffffffffffffffffff16815260200190815260200160002060000154815260200190815260200160002060060160009054906101000a900460ff166108255760016008600082825461081d91906138fe565b925050819055505b80600f6000600e60003373ffffffffffffffffffffffffffffffffffffffff1673ffffffffffffffffffffffffffffffffffffffff16815260200190815260200160002060000154815260200190815260200160002060000190600361088c9291906128e0565b506001600f6000600e60003373ffffffffffffffffffffffffffffffffffffffff1673ffffffffffffffffffffffffffffffffffffffff16815260200190815260200160002060000154815260200190815260200160002060060160006101000a81548160ff0219169083151502179055506005600854036109115761091061192d565b5b50565b600f6020528060005260406000206000915090508060060160009054906101000a900460ff16905081565b60008054906101000a900473ffffffffffffffffffffffffffffffffffffffff1681565b600a805461097090613832565b80601f016020809104026020016040519081016040528092919081815260200182805461099c90613832565b80156109e95780601f106109be576101008083540402835291602001916109e9565b820191906000526020600020905b8154815290600101906020018083116109cc57829003601f168201915b505050505081565b60085481565b60018181548110610a0757600080fd5b9060005260206000209060060201600091509050806000018054610a2a90613832565b80601f0160208091040260200160405190810160405280929190818152602001828054610a5690613832565b8015610aa35780601f10610a7857610100808354040283529160200191610aa3565b820191906000526020600020905b815481529060010190602001808311610a8657829003601f168201915b505050505090806001018054610ab890613832565b80601f0160208091040260200160405190810160405280929190818152602001828054610ae490613832565b8015610b315780601f10610b0657610100808354040283529160200191610b31565b820191906000526020600020905b815481529060010190602001808311610b1457829003601f168201915b5050505050905082565b600e6020528060005260406000206000915090508060000154908060010160009054906101000a900460ff16905082565b60035481565b60046020528060005260406000206000915054906101000a900460ff1681565b610b9a612931565b600f6000838152602001908152602001600020600001600380602002604051908101604052809291906000905b82821015610c2057838260020201600280602002604051908101604052809291908260028015610c0c576020028201915b815481526020019060010190808311610bf8575b505050505081526020019060010190610bc7565b505050509050919050565b6007544210610c6f576040517f08c379a0000000000000000000000000000000000000000000000000000000008152600401610c669061397e565b60405180910390fd5b60025481600e60118110610c8657610c8561399e565b5b602002015114610ccb576040517f08c379a0000000000000000000000000000000000000000000000000000000008152600401610cc290613a19565b60405180910390fd5b60035481600d60118110610ce257610ce161399e565b5b602002015114610d27576040517f08c379a0000000000000000000000000000000000000000000000000000000008152600401610d1e90613a85565b60405180910390fd5b6005600060028110610d3c57610d3b61399e565b5b015481600f60118110610d5257610d5161399e565b5b6020020151148015610d9157506005600160028110610d7457610d7361399e565b5b015481601060118110610d8a57610d8961399e565b5b6020020151145b610dd0576040517f08c379a0000000000000000000000000000000000000000000000000000000008152600401610dc790613af1565b60405180910390fd5b6004600082600060118110610de857610de761399e565b5b6020020151815260200190815260200160002060009054906101000a900460ff1615610e49576040517f08c379a0000000000000000000000000000000000000000000000000000000008152600401610e4090613b5d565b60405180910390fd5b60008054906101000a900473ffffffffffffffffffffffffffffffffffffffff1673ffffffffffffffffffffffffffffffffffffffff1663c1940a36858585856040518563ffffffff1660e01b8152600401610ea89493929190613c63565b602060405180830381865afa158015610ec5573d6000803e3d6000fd5b505050506040513d601f19601f82011682018060405250810190610ee99190613cd6565b610f28576040517f08c379a0000000000000000000000000000000000000000000000000000000008152600401610f1f90613d4f565b60405180910390fd5b60016004600083600060118110610f4257610f4161399e565b5b6020020151815260200190815260200160002060006101000a81548160ff02191690831515021790555060005b60018054905081101561130257611085826001600284610f8f9190613d6f565b610f9991906138fe565b60118110610faa57610fa961399e565b5b60200201518360028085610fbe9190613d6f565b610fc891906138fe565b60118110610fd957610fd861399e565b5b602002015160018481548110610ff257610ff161399e565b5b90600052602060002090600602016002016000600281106110165761101561399e565b5b6002020160006002811061102d5761102c61399e565b5b0154600185815481106110435761104261399e565b5b90600052602060002090600602016002016000600281106110675761106661399e565b5b6002020160016002811061107e5761107d61399e565b5b015461156b565b600183815481106110995761109861399e565b5b90600052602060002090600602016002016000600281106110bd576110bc61399e565b5b600202016000600281106110d4576110d361399e565b5b016000600185815481106110eb576110ea61399e565b5b906000526020600020906006020160020160006002811061110f5761110e61399e565b5b600202016001600281106111265761112561399e565b5b01600084919050558391905055505061123f8260076002846111489190613d6f565b61115291906138fe565b601181106111635761116261399e565b5b60200201518360086002856111789190613d6f565b61118291906138fe565b601181106111935761119261399e565b5b6020020151600184815481106111ac576111ab61399e565b5b90600052602060002090600602016002016001600281106111d0576111cf61399e565b5b600202016000600281106111e7576111e661399e565b5b0154600185815481106111fd576111fc61399e565b5b90600052602060002090600602016002016001600281106112215761122061399e565b5b600202016001600281106112385761123761399e565b5b015461156b565b600183815481106112535761125261399e565b5b90600052602060002090600602016002016001600281106112775761127661399e565b5b6002020160006002811061128e5761128d61399e565b5b016000600185815481106112a5576112a461399e565b5b90600052602060002090600602016002016001600281106112c9576112c861399e565b5b600202016001600281106112e0576112df61399e565b5b01600084919050558391905055505080806112fa90613db1565b915050610f6f565b50806000601181106113175761131661399e565b5b60200201517f501740464b64c9c9e79c952b9302af63c9497d782a97c96435879dec06500e2660016000815481106113525761135161399e565b5b9060005260206000209060060201600201600180815481106113775761137661399e565b5b9060005260206000209060060201600201600160028154811061139d5761139c61399e565b5b90600052602060002090600602016002016040516113bd93929190613f4d565b60405180910390a250505050565b6113d361295e565b60006040518060400160405280600081526020016001815250905060008390505b6000851115611560576001808616036114ae576114738260006002811061141e5761141d61399e565b5b6020020151836001600281106114375761143661399e565b5b6020020151836000600281106114505761144f61399e565b5b6020020151846001600281106114695761146861399e565b5b602002015161156b565b836000600281106114875761148661399e565b5b602002018460016002811061149f5761149e61399e565b5b60200201828152508281525050505b61151a816000600281106114c5576114c461399e565b5b6020020151826001600281106114de576114dd61399e565b5b6020020151836000600281106114f7576114f661399e565b5b6020020151846001600281106115105761150f61399e565b5b602002015161156b565b8260006002811061152e5761152d61399e565b5b60200201836001600281106115465761154561399e565b5b6020020182815250828152505050600185901c94506113f4565b819250505092915050565b60008060007f30644e72e131a029b85045b68181585d2833e84879b9709143e1f593f00000018061159f5761159e613f86565b5b858809905060007f30644e72e131a029b85045b68181585d2833e84879b9709143e1f593f0000001806115d5576115d4613f86565b5b858809905060007f30644e72e131a029b85045b68181585d2833e84879b9709143e1f593f00000018061160b5761160a613f86565b5b7f30644e72e131a029b85045b68181585d2833e84879b9709143e1f593f00000018061163a57611639613f86565b5b838509620292f809905060007f30644e72e131a029b85045b68181585d2833e84879b9709143e1f593f00000018061167557611674613f86565b5b7f30644e72e131a029b85045b68181585d2833e84879b9709143e1f593f0000001806116a4576116a3613f86565b5b898b097f30644e72e131a029b85045b68181585d2833e84879b9709143e1f593f0000001806116d6576116d5613f86565b5b898d0908905060007f30644e72e131a029b85045b68181585d2833e84879b9709143e1f593f00000018061170d5761170c613f86565b5b7f30644e72e131a029b85045b68181585d2833e84879b9709143e1f593f00000018061173c5761173b613f86565b5b86620292fc097f30644e72e131a029b85045b68181585d2833e84879b9709143e1f593f000000161176d9190613fb5565b8508905060006117cf7f30644e72e131a029b85045b68181585d2833e84879b9709143e1f593f0000001806117a5576117a4613f86565b5b856001087f30644e72e131a029b85045b68181585d2833e84879b9709143e1f593f0000001611a98565b9050600061185a7f30644e72e131a029b85045b68181585d2833e84879b9709143e1f593f00000018061180557611804613f86565b5b867f30644e72e131a029b85045b68181585d2833e84879b9709143e1f593f00000016118319190613fb5565b6001087f30644e72e131a029b85045b68181585d2833e84879b9709143e1f593f0000001611a98565b90507f30644e72e131a029b85045b68181585d2833e84879b9709143e1f593f00000018061188b5761188a613f86565b5b82850998507f30644e72e131a029b85045b68181585d2833e84879b9709143e1f593f0000001806118bf576118be613f86565b5b81840997505050505050505094509492505050565b600b81815481106118e457600080fd5b906000526020600020016000915090505481565b60025481565b8180602001905181019061191291906140c1565b600b9080519060200190611927929190612980565b50505050565b6119356129cd565b6119d2600a805461194590613832565b80601f016020809104026020016040519081016040528092919081815260200182805461197190613832565b80156119be5780601f10611993576101008083540402835291602001916119be565b820191906000526020600020905b8154815290600101906020018083116119a157829003601f168201915b505050505082611ab990919063ffffffff16565b6000600167ffffffffffffffff8111156119ef576119ee612efb565b5b604051908082528060200260200182016040528015611a2257816020015b6060815260200190600190039081611a0d5790505b509050611a463073ffffffffffffffffffffffffffffffffffffffff166014611aca565b81600081518110611a5a57611a5961399e565b5b6020026020010181905250611a788183611d0690919063ffffffff16565b611a93611a8483611d4e565b6009546207a120600d5461216a565b505050565b6000611ab183600284611aab9190613fb5565b8461224d565b905092915050565b611ac682600080846122bb565b5050565b606060006002836002611add9190613d6f565b611ae791906138fe565b67ffffffffffffffff811115611b0057611aff612efb565b5b6040519080825280601f01601f191660200182016040528015611b325781602001600182028036833780820191505090505b5090507f300000000000000000000000000000000000000000000000000000000000000081600081518110611b6a57611b6961399e565b5b60200101907effffffffffffffffffffffffffffffffffffffffffffffffffffffffffffff1916908160001a9053507f780000000000000000000000000000000000000000000000000000000000000081600181518110611bce57611bcd61399e565b5b60200101907effffffffffffffffffffffffffffffffffffffffffffffffffffffffffffff1916908160001a90535060006001846002611c0e9190613d6f565b611c1891906138fe565b90505b6001811115611cb8577f3031323334353637383961626364656600000000000000000000000000000000600f861660108110611c5a57611c5961399e565b5b1a60f81b828281518110611c7157611c7061399e565b5b60200101907effffffffffffffffffffffffffffffffffffffffffffffffffffffffffffff1916908160001a905350600485901c945080611cb19061410a565b9050611c1b565b5060008414611cfc576040517f08c379a0000000000000000000000000000000000000000000000000000000008152600401611cf39061417f565b60405180910390fd5b8091505092915050565b6000815103611d41576040517ffe936cb700000000000000000000000000000000000000000000000000000000815260040160405180910390fd5b808260a001819052505050565b60606000611d5d610100612365565b9050611da76040518060400160405280600c81526020017f636f64654c6f636174696f6e00000000000000000000000000000000000000008152508261238c90919063ffffffff16565b611dd083600001516002811115611dc157611dc061419f565b5b826123b590919063ffffffff16565b611e186040518060400160405280600881526020017f6c616e67756167650000000000000000000000000000000000000000000000008152508261238c90919063ffffffff16565b611e4183604001516000811115611e3257611e3161419f565b5b826123b590919063ffffffff16565b611e896040518060400160405280600681526020017f736f7572636500000000000000000000000000000000000000000000000000008152508261238c90919063ffffffff16565b611ea083606001518261238c90919063ffffffff16565b60008360a00151511115611f5c57611ef66040518060400160405280600481526020017f61726773000000000000000000000000000000000000000000000000000000008152508261238c90919063ffffffff16565b611eff81612405565b60005b8360a0015151811015611f5157611f408460a001518281518110611f2957611f2861399e565b5b60200260200101518361238c90919063ffffffff16565b80611f4a90613db1565b9050611f02565b50611f5b8161242d565b5b6000836080015151111561209d5760006002811115611f7e57611f7d61419f565b5b83602001516002811115611f9557611f9461419f565b5b03611fcc576040517fa80d31f700000000000000000000000000000000000000000000000000000000815260040160405180910390fd5b6120146040518060400160405280600f81526020017f736563726574734c6f636174696f6e00000000000000000000000000000000008152508261238c90919063ffffffff16565b61203d8360200151600281111561202e5761202d61419f565b5b826123b590919063ffffffff16565b6120856040518060400160405280600781526020017f73656372657473000000000000000000000000000000000000000000000000008152508261238c90919063ffffffff16565b61209c83608001518261245590919063ffffffff16565b5b60008360c00151511115612159576120f36040518060400160405280600981526020017f62797465734172677300000000000000000000000000000000000000000000008152508261238c90919063ffffffff16565b6120fc81612405565b60005b8360c001515181101561214e5761213d8460c0015182815181106121265761212561399e565b5b60200260200101518361245590919063ffffffff16565b8061214790613db1565b90506120ff565b506121588161242d565b5b806000015160000151915050919050565b6000807f000000000000000000000000000000000000000000000000000000000000000073ffffffffffffffffffffffffffffffffffffffff1663461d27628688600188886040518663ffffffff1660e01b81526004016121cf959493929190614291565b6020604051808303816000875af11580156121ee573d6000803e3d6000fd5b505050506040513d601f19601f820116820180604052508101906122129190614300565b9050807f1131472297a800fee664d1d89cfa8f7676ff07189ecc53f80bbb5f4969099db860405160405180910390a280915050949350505050565b600060019050818461225f919061432d565b93505b60008311156122b457600160028461227a919061432d565b0361229457818061228e5761228d613f86565b5b84820990505b81806122a3576122a2613f86565b5b8485099350600183901c9250612262565b9392505050565b60008151036122f6576040517f22ce3edd00000000000000000000000000000000000000000000000000000000815260040160405180910390fd5b828460000190600281111561230e5761230d61419f565b5b908160028111156123225761232161419f565b5b81525050818460400190600081111561233e5761233d61419f565b5b908160008111156123525761235161419f565b5b8152505080846060018190525050505050565b61236d612a3f565b61237b81600001518361247e565b506000816020018181525050919050565b61239982600383516124f7565b6123b08183600001516126a090919063ffffffff16565b505050565b6123d760026005600660ff16901b1783600001516126bc90919063ffffffff16565b5061240182826040516020016123ed9190612b21565b604051602081830303815290604052612455565b5050565b612410816004612726565b60018160200181815161242391906138fe565b9150818152505050565b612438816007612726565b60018160200181815161244b9190613fb5565b9150818152505050565b61246282600283516124f7565b6124798183600001516126a090919063ffffffff16565b505050565b612486612a5f565b6000602083612495919061432d565b146124c1576020826124a7919061432d565b60206124b39190613fb5565b826124be91906138fe565b91505b8183602001818152505060405180845260008152828101602001818110156124e857600080fd5b80604052505082905092915050565b60178167ffffffffffffffff16116125325761252c8160058460ff16901b60ff161784600001516126bc90919063ffffffff16565b5061269b565b60ff8167ffffffffffffffff161161259057612565601860058460ff16901b1784600001516126bc90919063ffffffff16565b5061258a8167ffffffffffffffff166001856000015161274c9092919063ffffffff16565b5061269a565b61ffff8167ffffffffffffffff16116125ef576125c4601960058460ff16901b1784600001516126bc90919063ffffffff16565b506125e98167ffffffffffffffff166002856000015161274c9092919063ffffffff16565b50612699565b63ffffffff8167ffffffffffffffff161161265057612625601a60058460ff16901b1784600001516126bc90919063ffffffff16565b5061264a8167ffffffffffffffff166004856000015161274c9092919063ffffffff16565b50612698565b612671601b60058460ff16901b1784600001516126bc90919063ffffffff16565b506126968167ffffffffffffffff166008856000015161274c9092919063ffffffff16565b505b5b5b5b505050565b6126a8612a5f565b6126b4838384516127d9565b905092915050565b6126c4612a5f565b6000836000015151905060006001826126dd91906138fe565b90508460200151821061270157612700856002836126fb9190613d6f565b6128bc565b5b84516020838201018581538151831115612719578282525b5050849250505092915050565b612747601f60058360ff16901b1783600001516126bc90919063ffffffff16565b505050565b612754612a5f565b600084600001515190506000818461276c91906138fe565b90508560200151811115612791576127908660028361278b9190613d6f565b6128bc565b5b60006001856101006127a39190614491565b6127ad9190613fb5565b9050865182810187831982511617815281518411156127ca578382525b50508693505050509392505050565b6127e1612a5f565b82518211156127ef57600080fd5b600084600001515190506000838261280791906138fe565b9050856020015181111561282c5761282b866002836128269190613d6f565b6128bc565b5b60008087518051856020830101935080851115612847578482525b60208901925050505b6020861061288e578051825260208261286991906138fe565b915060208161287891906138fe565b90506020866128879190613fb5565b9550612850565b60006001876020036101000a0390508019825116818451168181178552505050879450505050509392505050565b6000826000015190506128cf838361247e565b506128da83826126a0565b50505050565b8260036002028101928215612920579160200282015b8281111561291f5782518290600261290f929190612a79565b50916020019190600201906128f6565b5b50905061292d9190612ab9565b5090565b60405180606001604052806003905b61294861295e565b8152602001906001900390816129405790505090565b6040518060400160405280600290602082028036833780820191505090505090565b8280548282559060005260206000209081019282156129bc579160200282015b828111156129bb5782518255916020019190600101906129a0565b5b5090506129c99190612add565b5090565b6040518060e00160405280600060028111156129ec576129eb61419f565b5b815260200160006002811115612a0557612a0461419f565b5b8152602001600080811115612a1d57612a1c61419f565b5b8152602001606081526020016060815260200160608152602001606081525090565b6040518060400160405280612a52612a5f565b8152602001600081525090565b604051806040016040528060608152602001600081525090565b8260028101928215612aa8579160200282015b82811115612aa7578251825591602001919060010190612a8c565b5b509050612ab59190612add565b5090565b5b80821115612ad95760008181612ad09190612afa565b50600201612aba565b5090565b5b80821115612af6576000816000905550600101612ade565b5090565b506000815560010160009055565b6000819050919050565b612b1b81612b08565b82525050565b6000602082019050612b366000830184612b12565b92915050565b6000604051905090565b600080fd5b600080fd5b612b5981612b08565b8114612b6457600080fd5b50565b600081359050612b7681612b50565b92915050565b600060208284031215612b9257612b91612b46565b5b6000612ba084828501612b67565b91505092915050565b600081519050919050565b600082825260208201905092915050565b6000819050602082019050919050565b600081519050919050565b600082825260208201905092915050565b60005b83811015612c0f578082015181840152602081019050612bf4565b60008484015250505050565b6000601f19601f8301169050919050565b6000612c3782612bd5565b612c418185612be0565b9350612c51818560208601612bf1565b612c5a81612c1b565b840191505092915050565b600060029050919050565b600081905092915050565b6000819050919050565b600060029050919050565b600081905092915050565b6000819050919050565b612cae81612b08565b82525050565b6000612cc08383612ca5565b60208301905092915050565b6000602082019050919050565b612ce281612c85565b612cec8184612c90565b9250612cf782612c9b565b8060005b83811015612d28578151612d0f8782612cb4565b9650612d1a83612ccc565b925050600181019050612cfb565b505050505050565b6000612d3c8383612cd9565b60408301905092915050565b6000602082019050919050565b612d5e81612c65565b612d688184612c70565b9250612d7382612c7b565b8060005b83811015612da4578151612d8b8782612d30565b9650612d9683612d48565b925050600181019050612d77565b505050505050565b600060c0830160008301518482036000860152612dc98282612c2c565b91505060208301518482036020860152612de38282612c2c565b9150506040830151612df86040860182612d55565b508091505092915050565b6000612e0f8383612dac565b905092915050565b6000602082019050919050565b6000612e2f82612ba9565b612e398185612bb4565b935083602082028501612e4b85612bc5565b8060005b85811015612e875784840389528151612e688582612e03565b9450612e7383612e17565b925060208a01995050600181019050612e4f565b50829750879550505050505092915050565b60006020820190508181036000830152612eb38184612e24565b905092915050565b6000819050919050565b612ece81612ebb565b8114612ed957600080fd5b50565b600081359050612eeb81612ec5565b92915050565b600080fd5b600080fd5b7f4e487b7100000000000000000000000000000000000000000000000000000000600052604160045260246000fd5b612f3382612c1b565b810181811067ffffffffffffffff82111715612f5257612f51612efb565b5b80604052505050565b6000612f65612b3c565b9050612f718282612f2a565b919050565b600067ffffffffffffffff821115612f9157612f90612efb565b5b612f9a82612c1b565b9050602081019050919050565b82818337600083830152505050565b6000612fc9612fc484612f76565b612f5b565b905082815260208101848484011115612fe557612fe4612ef6565b5b612ff0848285612fa7565b509392505050565b600082601f83011261300d5761300c612ef1565b5b813561301d848260208601612fb6565b91505092915050565b60008060006060848603121561303f5761303e612b46565b5b600061304d86828701612edc565b935050602084013567ffffffffffffffff81111561306e5761306d612b4b565b5b61307a86828701612ff8565b925050604084013567ffffffffffffffff81111561309b5761309a612b4b565b5b6130a786828701612ff8565b9150509250925092565b600067ffffffffffffffff8211156130cc576130cb612efb565b5b602082029050919050565b600080fd5b600067ffffffffffffffff8211156130f7576130f6612efb565b5b602082029050919050565b6000613115613110846130dc565b612f5b565b9050806020840283018581111561312f5761312e6130d7565b5b835b8181101561315857806131448882612b67565b845260208401935050602081019050613131565b5050509392505050565b600082601f83011261317757613176612ef1565b5b6002613184848285613102565b91505092915050565b60006131a061319b846130b1565b612f5b565b905080604084028301858111156131ba576131b96130d7565b5b835b818110156131e357806131cf8882613162565b8452602084019350506040810190506131bc565b5050509392505050565b600082601f83011261320257613201612ef1565b5b600361320f84828561318d565b91505092915050565b600060c0828403121561322e5761322d612b46565b5b600061323c848285016131ed565b91505092915050565b60008115159050919050565b61325a81613245565b82525050565b60006020820190506132756000830184613251565b92915050565b600073ffffffffffffffffffffffffffffffffffffffff82169050919050565b6000819050919050565b60006132c06132bb6132b68461327b565b61329b565b61327b565b9050919050565b60006132d2826132a5565b9050919050565b60006132e4826132c7565b9050919050565b6132f4816132d9565b82525050565b600060208201905061330f60008301846132eb565b92915050565b600082825260208201905092915050565b600061333182612bd5565b61333b8185613315565b935061334b818560208601612bf1565b61335481612c1b565b840191505092915050565b600060208201905081810360008301526133798184613326565b905092915050565b6000604082019050818103600083015261339b8185613326565b905081810360208301526133af8184613326565b90509392505050565b60006133c38261327b565b9050919050565b6133d3816133b8565b81146133de57600080fd5b50565b6000813590506133f0816133ca565b92915050565b60006020828403121561340c5761340b612b46565b5b600061341a848285016133e1565b91505092915050565b60006040820190506134386000830185612b12565b6134456020830184613251565b9392505050565b600060039050919050565b600081905092915050565b6000819050919050565b6000602082019050919050565b6134828161344c565b61348c8184613457565b925061349782613462565b8060005b838110156134c85781516134af8782612d30565b96506134ba8361346c565b92505060018101905061349b565b505050505050565b600060c0820190506134e56000830184613479565b92915050565b600067ffffffffffffffff82111561350657613505612efb565b5b602082029050919050565b600061352461351f846134eb565b612f5b565b9050806040840283018581111561353e5761353d6130d7565b5b835b8181101561356757806135538882613162565b845260208401935050604081019050613540565b5050509392505050565b600082601f83011261358657613585612ef1565b5b6002613593848285613511565b91505092915050565b600067ffffffffffffffff8211156135b7576135b6612efb565b5b602082029050919050565b60006135d56135d08461359c565b612f5b565b905080602084028301858111156135ef576135ee6130d7565b5b835b8181101561361857806136048882612b67565b8452602084019350506020810190506135f1565b5050509392505050565b600082601f83011261363757613636612ef1565b5b60116136448482856135c2565b91505092915050565b600080600080610320858703121561366857613667612b46565b5b600061367687828801613162565b945050604061368787828801613571565b93505060c061369887828801613162565b9250506101006136aa87828801613622565b91505092959194509250565b600080606083850312156136cd576136cc612b46565b5b60006136db85828601612b67565b92505060206136ec85828601613162565b9150509250929050565b600081905092915050565b61370a81612c85565b61371481846136f6565b925061371f82612c9b565b8060005b838110156137505781516137378782612cb4565b965061374283612ccc565b925050600181019050613723565b505050505050565b600060408201905061376d6000830184613701565b92915050565b6000806000806080858703121561378d5761378c612b46565b5b600061379b87828801612b67565b94505060206137ac87828801612b67565b93505060406137bd87828801612b67565b92505060606137ce87828801612b67565b91505092959194509250565b60006040820190506137ef6000830185612b12565b6137fc6020830184612b12565b9392505050565b7f4e487b7100000000000000000000000000000000000000000000000000000000600052602260045260246000fd5b6000600282049050600182168061384a57607f821691505b60208210810361385d5761385c613803565b5b50919050565b7f596f7520617265206e6f7420746865207368617265686f6c6465722e00000000600082015250565b6000613899601c83613315565b91506138a482613863565b602082019050919050565b600060208201905081810360008301526138c88161388c565b9050919050565b7f4e487b7100000000000000000000000000000000000000000000000000000000600052601160045260246000fd5b600061390982612b08565b915061391483612b08565b925082820190508082111561392c5761392b6138cf565b5b92915050565b7f566f74696e6720706572696f642068617320656e646564212121000000000000600082015250565b6000613968601a83613315565b915061397382613932565b602082019050919050565b600060208201905081810360008301526139978161395b565b9050919050565b7f4e487b7100000000000000000000000000000000000000000000000000000000600052603260045260246000fd5b7f496e76616c696420726f6f742121210000000000000000000000000000000000600082015250565b6000613a03600f83613315565b9150613a0e826139cd565b602082019050919050565b60006020820190508181036000830152613a32816139f6565b9050919050565b7f496e76616c6964206e756c6c6966696572212121000000000000000000000000600082015250565b6000613a6f601483613315565b9150613a7a82613a39565b602082019050919050565b60006020820190508181036000830152613a9e81613a62565b9050919050565b7f496e76616c6964207075626c6963206b65792121210000000000000000000000600082015250565b6000613adb601583613315565b9150613ae682613aa5565b602082019050919050565b60006020820190508181036000830152613b0a81613ace565b9050919050565b7f596f75206861766520766f74656420616c726561647921212100000000000000600082015250565b6000613b47601983613315565b9150613b5282613b11565b602082019050919050565b60006020820190508181036000830152613b7681613b3a565b9050919050565b600081905092915050565b613b9181612c65565b613b9b8184613b7d565b9250613ba682612c7b565b8060005b83811015613bd7578151613bbe8782612d30565b9650613bc983612d48565b925050600181019050613baa565b505050505050565b600060119050919050565b600081905092915050565b6000819050919050565b6000602082019050919050565b613c1581613bdf565b613c1f8184613bea565b9250613c2a82613bf5565b8060005b83811015613c5b578151613c428782612cb4565b9650613c4d83613bff565b925050600181019050613c2e565b505050505050565b600061032082019050613c796000830187613701565b613c866040830186613b88565b613c9360c0830185613701565b613ca1610100830184613c0c565b95945050505050565b613cb381613245565b8114613cbe57600080fd5b50565b600081519050613cd081613caa565b92915050565b600060208284031215613cec57613ceb612b46565b5b6000613cfa84828501613cc1565b91505092915050565b7f496e76616c69642070726f6f6621212100000000000000000000000000000000600082015250565b6000613d39601083613315565b9150613d4482613d03565b602082019050919050565b60006020820190508181036000830152613d6881613d2c565b9050919050565b6000613d7a82612b08565b9150613d8583612b08565b9250828202613d9381612b08565b91508282048414831517613daa57613da96138cf565b5b5092915050565b6000613dbc82612b08565b91507fffffffffffffffffffffffffffffffffffffffffffffffffffffffffffffffff8203613dee57613ded6138cf565b5b600182019050919050565b600060029050919050565b6000819050919050565b600060029050919050565b6000819050919050565b60008160001c9050919050565b6000819050919050565b6000613e4d613e4883613e23565b613e30565b9050919050565b6000613e608254613e3a565b9050919050565b6000600182019050919050565b613e7d81613e0e565b613e878184612c90565b9250613e9282613e19565b8060005b83811015613eca57613ea782613e54565b613eb18782612cb4565b9650613ebc83613e67565b925050600181019050613e96565b505050505050565b6000613ede8383613e74565b60408301905092915050565b6000600282019050919050565b613f0081613df9565b613f0a8184613b7d565b9250613f1582613e04565b8060005b83811015613f455781613f2c8782613ed2565b9650613f3783613eea565b925050600181019050613f19565b505050505050565b600061018082019050613f636000830186613ef7565b613f706080830185613ef7565b613f7e610100830184613ef7565b949350505050565b7f4e487b7100000000000000000000000000000000000000000000000000000000600052601260045260246000fd5b6000613fc082612b08565b9150613fcb83612b08565b9250828203905081811115613fe357613fe26138cf565b5b92915050565b600067ffffffffffffffff82111561400457614003612efb565b5b602082029050602081019050919050565b60008151905061402481612b50565b92915050565b600061403d61403884613fe9565b612f5b565b905080838252602082019050602084028301858111156140605761405f6130d7565b5b835b8181101561408957806140758882614015565b845260208401935050602081019050614062565b5050509392505050565b600082601f8301126140a8576140a7612ef1565b5b81516140b884826020860161402a565b91505092915050565b6000602082840312156140d7576140d6612b46565b5b600082015167ffffffffffffffff8111156140f5576140f4612b4b565b5b61410184828501614093565b91505092915050565b600061411582612b08565b915060008203614128576141276138cf565b5b600182039050919050565b7f537472696e67733a20686578206c656e67746820696e73756666696369656e74600082015250565b6000614169602083613315565b915061417482614133565b602082019050919050565b600060208201905081810360008301526141988161415c565b9050919050565b7f4e487b7100000000000000000000000000000000000000000000000000000000600052602160045260246000fd5b600067ffffffffffffffff82169050919050565b6141eb816141ce565b82525050565b600081519050919050565b600082825260208201905092915050565b6000614218826141f1565b61422281856141fc565b9350614232818560208601612bf1565b61423b81612c1b565b840191505092915050565b600061ffff82169050919050565b61425d81614246565b82525050565b600063ffffffff82169050919050565b61427c81614263565b82525050565b61428b81612ebb565b82525050565b600060a0820190506142a660008301886141e2565b81810360208301526142b8818761420d565b90506142c76040830186614254565b6142d46060830185614273565b6142e16080830184614282565b9695505050505050565b6000815190506142fa81612ec5565b92915050565b60006020828403121561431657614315612b46565b5b6000614324848285016142eb565b91505092915050565b600061433882612b08565b915061434383612b08565b92508261435357614352613f86565b5b828206905092915050565b60008160011c9050919050565b6000808291508390505b60018511156143b557808604811115614391576143906138cf565b5b60018516156143a05780820291505b80810290506143ae8561435e565b9450614375565b94509492505050565b6000826143ce576001905061448a565b816143dc576000905061448a565b81600181146143f257600281146143fc5761442b565b600191505061448a565b60ff84111561440e5761440d6138cf565b5b8360020a915084821115614425576144246138cf565b5b5061448a565b5060208310610133831016604e8410600b84101617156144605782820a90508381111561445b5761445a6138cf565b5b61448a565b61446d848484600161436b565b92509050818404811115614484576144836138cf565b5b81810290505b9392505050565b600061449c82612b08565b91506144a783612b08565b92506144d47fffffffffffffffffffffffffffffffffffffffffffffffffffffffffffffffff84846143be565b90509291505056fea2646970667358221220f12dd209d0036216ba38d3804866240ecc57f3de967590d56d88ad7896b4f72964736f6c63430008130033",
  "linkReferences": {},
  "deployedLinkReferences": {}
}